{
  "contractName": "BookFactory",
  "abi": [
    {
      "inputs": [
        {
          "internalType": "string",
          "name": "_title",
          "type": "string"
        },
        {
          "internalType": "string",
          "name": "_author",
          "type": "string"
        },
        {
          "internalType": "address",
          "name": "_author_account",
          "type": "address"
        },
        {
          "internalType": "string",
          "name": "_publisher",
          "type": "string"
        },
        {
          "internalType": "string",
          "name": "_releaseDate",
          "type": "string"
        },
        {
          "internalType": "string",
          "name": "_isbn",
          "type": "string"
        },
        {
          "internalType": "string",
          "name": "_cover",
          "type": "string"
        },
        {
          "internalType": "string",
          "name": "_description",
          "type": "string"
        },
        {
          "internalType": "string",
          "name": "_documentHash",
          "type": "string"
        }
      ],
      "name": "createBook",
      "outputs": [],
      "stateMutability": "nonpayable",
      "type": "function"
    },
    {
      "inputs": [
        {
          "internalType": "uint256",
          "name": "_limit",
          "type": "uint256"
        },
        {
          "internalType": "uint256",
          "name": "_offset",
          "type": "uint256"
        }
      ],
      "name": "books",
      "outputs": [
        {
          "internalType": "contract Book[]",
          "name": "collections",
          "type": "address[]"
        }
      ],
      "stateMutability": "view",
      "type": "function",
      "constant": true
    },
    {
      "inputs": [],
      "name": "myBooks",
      "outputs": [
        {
          "internalType": "contract Book[]",
          "name": "collections",
          "type": "address[]"
        }
      ],
      "stateMutability": "view",
      "type": "function",
      "constant": true
    },
    {
      "inputs": [],
      "name": "myRequests",
      "outputs": [
        {
          "internalType": "contract Book[]",
          "name": "collections",
          "type": "address[]"
        }
      ],
      "stateMutability": "view",
      "type": "function",
      "constant": true
    },
    {
      "inputs": [],
      "name": "myRequestedBooks",
      "outputs": [
        {
          "internalType": "contract Book[]",
          "name": "collections",
          "type": "address[]"
        }
      ],
      "stateMutability": "view",
      "type": "function",
      "constant": true
    }
  ],
  "bytecode": "0x608060405234801561001057600080fd5b506134cc806100206000396000f3fe608060405234801561001057600080fd5b5060043610610074576000357c010000000000000000000000000000000000000000000000000000000090048063071f14d1146100795780632c76994c146100955780639777b72c146100b3578063c2eddbbb146100d1578063c823dbb5146100ef575b600080fd5b610093600480360381019061008e9190610fc5565b61011f565b005b61009d610254565b6040516100aa919061127d565b60405180910390f35b6100bb61068f565b6040516100c8919061127d565b60405180910390f35b6100d961095e565b6040516100e6919061127d565b60405180910390f35b610109600480360381019061010491906112d5565b610c70565b604051610116919061127d565b60405180910390f35b600060405161012d90610e00565b604051809103906000f080158015610149573d6000803e3d6000fd5b5090508073ffffffffffffffffffffffffffffffffffffffff1663e145ad778b8b8b8b8b8b8b8b8b336040518b63ffffffff167c01000000000000000000000000000000000000000000000000000000000281526004016101b39a999897969594939291906113ac565b600060405180830381600087803b1580156101cd57600080fd5b505af11580156101e1573d6000803e3d6000fd5b505050506000819080600181540180825580915050600190039060005260206000200160009091909190916101000a81548173ffffffffffffffffffffffffffffffffffffffff021916908373ffffffffffffffffffffffffffffffffffffffff16021790555050505050505050505050565b60606000805b60008054905081101561041d57600080828154811061027c5761027b611480565b5b9060005260206000200160009054906101000a900473ffffffffffffffffffffffffffffffffffffffff1690503373ffffffffffffffffffffffffffffffffffffffff168173ffffffffffffffffffffffffffffffffffffffff16638da5cb5b6040518163ffffffff167c0100000000000000000000000000000000000000000000000000000000028152600401602060405180830381865afa158015610327573d6000803e3d6000fd5b505050506040513d601f19601f8201168201806040525081019061034b91906114c4565b73ffffffffffffffffffffffffffffffffffffffff161480156103f557508073ffffffffffffffffffffffffffffffffffffffff166397781f026040518163ffffffff167c0100000000000000000000000000000000000000000000000000000000028152600401602060405180830381865afa1580156103d0573d6000803e3d6000fd5b505050506040513d601f19601f820116820180604052508101906103f49190611529565b5b1561040957828061040590611585565b9350505b50808061041590611585565b91505061025a565b50600081111561068b5760008167ffffffffffffffff81111561044357610442610e3c565b5b6040519080825280602002602001820160405280156104715781602001602082028036833780820191505090505b50925060005b60008054905081101561068857600080828154811061049957610498611480565b5b9060005260206000200160009054906101000a900473ffffffffffffffffffffffffffffffffffffffff1690503373ffffffffffffffffffffffffffffffffffffffff168173ffffffffffffffffffffffffffffffffffffffff16638da5cb5b6040518163ffffffff167c0100000000000000000000000000000000000000000000000000000000028152600401602060405180830381865afa158015610544573d6000803e3d6000fd5b505050506040513d601f19601f8201168201806040525081019061056891906114c4565b73ffffffffffffffffffffffffffffffffffffffff1614801561061257508073ffffffffffffffffffffffffffffffffffffffff166397781f026040518163ffffffff167c0100000000000000000000000000000000000000000000000000000000028152600401602060405180830381865afa1580156105ed573d6000803e3d6000fd5b505050506040513d601f19601f820116820180604052508101906106119190611529565b5b15610674578085848151811061062b5761062a611480565b5b602002602001019073ffffffffffffffffffffffffffffffffffffffff16908173ffffffffffffffffffffffffffffffffffffffff1681525050828061067090611585565b9350505b50808061068090611585565b915050610477565b50505b5090565b60606000805b6000805490508110156107a25760008082815481106106b7576106b6611480565b5b9060005260206000200160009054906101000a900473ffffffffffffffffffffffffffffffffffffffff1690508073ffffffffffffffffffffffffffffffffffffffff1663db74db41336040518263ffffffff167c010000000000000000000000000000000000000000000000000000000002815260040161073991906115cd565b602060405180830381865afa158015610756573d6000803e3d6000fd5b505050506040513d601f19601f8201168201806040525081019061077a9190611529565b1561078e57828061078a90611585565b9350505b50808061079a90611585565b915050610695565b50600081111561095a5760008167ffffffffffffffff8111156107c8576107c7610e3c565b5b6040519080825280602002602001820160405280156107f65781602001602082028036833780820191505090505b50925060005b60008054905081101561095757600080828154811061081e5761081d611480565b5b9060005260206000200160009054906101000a900473ffffffffffffffffffffffffffffffffffffffff1690508073ffffffffffffffffffffffffffffffffffffffff1663db74db41336040518263ffffffff167c01000000000000000000000000000000000000000000000000000000000281526004016108a091906115cd565b602060405180830381865afa1580156108bd573d6000803e3d6000fd5b505050506040513d601f19601f820116820180604052508101906108e19190611529565b1561094357808584815181106108fa576108f9611480565b5b602002602001019073ffffffffffffffffffffffffffffffffffffffff16908173ffffffffffffffffffffffffffffffffffffffff1681525050828061093f90611585565b9350505b50808061094f90611585565b9150506107fc565b50505b5090565b60606000805b600080549050811015610a9357600080828154811061098657610985611480565b5b9060005260206000200160009054906101000a900473ffffffffffffffffffffffffffffffffffffffff1690503373ffffffffffffffffffffffffffffffffffffffff168173ffffffffffffffffffffffffffffffffffffffff16638da5cb5b6040518163ffffffff167c0100000000000000000000000000000000000000000000000000000000028152600401602060405180830381865afa158015610a31573d6000803e3d6000fd5b505050506040513d601f19601f82011682018060405250810190610a5591906114c4565b73ffffffffffffffffffffffffffffffffffffffff1603610a7f578280610a7b90611585565b9350505b508080610a8b90611585565b915050610964565b506000811115610c6c578067ffffffffffffffff811115610ab757610ab6610e3c565b5b604051908082528060200260200182016040528015610ae55781602001602082028036833780820191505090505b5091506000805b600080549050811015610c69576000808281548110610b0e57610b0d611480565b5b9060005260206000200160009054906101000a900473ffffffffffffffffffffffffffffffffffffffff1690503373ffffffffffffffffffffffffffffffffffffffff168173ffffffffffffffffffffffffffffffffffffffff16638da5cb5b6040518163ffffffff167c0100000000000000000000000000000000000000000000000000000000028152600401602060405180830381865afa158015610bb9573d6000803e3d6000fd5b505050506040513d601f19601f82011682018060405250810190610bdd91906114c4565b73ffffffffffffffffffffffffffffffffffffffff1603610c555780858481518110610c0c57610c0b611480565b5b602002602001019073ffffffffffffffffffffffffffffffffffffffff16908173ffffffffffffffffffffffffffffffffffffffff16815250508280610c5190611585565b9350505b508080610c6190611585565b915050610aec565b50505b5090565b6060600080549050821115610cba576040517f08c379a0000000000000000000000000000000000000000000000000000000008152600401610cb190611634565b60405180910390fd5b600060149050600083600080549050610cd39190611654565b9050848110610ce25784610ce4565b805b9050818110610cf35781610cf5565b805b90508067ffffffffffffffff811115610d1157610d10610e3c565b5b604051908082528060200260200182016040528015610d3f5781602001602082028036833780820191505090505b50925060005b81811015610df75760008186610d5b9190611688565b81548110610d6c57610d6b611480565b5b9060005260206000200160009054906101000a900473ffffffffffffffffffffffffffffffffffffffff16848281518110610daa57610da9611480565b5b602002602001019073ffffffffffffffffffffffffffffffffffffffff16908173ffffffffffffffffffffffffffffffffffffffff16815250508080610def90611585565b915050610d45565b50505092915050565b611db8806116df83390190565b6000604051905090565b600080fd5b600080fd5b600080fd5b600080fd5b6000601f19601f8301169050919050565b7f4e487b7100000000000000000000000000000000000000000000000000000000600052604160045260246000fd5b610e7482610e2b565b810181811067ffffffffffffffff82111715610e9357610e92610e3c565b5b80604052505050565b6000610ea6610e0d565b9050610eb28282610e6b565b919050565b600067ffffffffffffffff821115610ed257610ed1610e3c565b5b610edb82610e2b565b9050602081019050919050565b82818337600083830152505050565b6000610f0a610f0584610eb7565b610e9c565b905082815260208101848484011115610f2657610f25610e26565b5b610f31848285610ee8565b509392505050565b600082601f830112610f4e57610f4d610e21565b5b8135610f5e848260208601610ef7565b91505092915050565b600073ffffffffffffffffffffffffffffffffffffffff82169050919050565b6000610f9282610f67565b9050919050565b610fa281610f87565b8114610fad57600080fd5b50565b600081359050610fbf81610f99565b92915050565b60008060008060008060008060006101208a8c031215610fe857610fe7610e17565b5b60008a013567ffffffffffffffff81111561100657611005610e1c565b5b6110128c828d01610f39565b99505060208a013567ffffffffffffffff81111561103357611032610e1c565b5b61103f8c828d01610f39565b98505060406110508c828d01610fb0565b97505060608a013567ffffffffffffffff81111561107157611070610e1c565b5b61107d8c828d01610f39565b96505060808a013567ffffffffffffffff81111561109e5761109d610e1c565b5b6110aa8c828d01610f39565b95505060a08a013567ffffffffffffffff8111156110cb576110ca610e1c565b5b6110d78c828d01610f39565b94505060c08a013567ffffffffffffffff8111156110f8576110f7610e1c565b5b6111048c828d01610f39565b93505060e08a013567ffffffffffffffff81111561112557611124610e1c565b5b6111318c828d01610f39565b9250506101008a013567ffffffffffffffff81111561115357611152610e1c565b5b61115f8c828d01610f39565b9150509295985092959850929598565b600081519050919050565b600082825260208201905092915050565b6000819050602082019050919050565b6000819050919050565b60006111c06111bb6111b684610f67565b61119b565b610f67565b9050919050565b60006111d2826111a5565b9050919050565b60006111e4826111c7565b9050919050565b6111f4816111d9565b82525050565b600061120683836111eb565b60208301905092915050565b6000602082019050919050565b600061122a8261116f565b611234818561117a565b935061123f8361118b565b8060005b8381101561127057815161125788826111fa565b975061126283611212565b925050600181019050611243565b5085935050505092915050565b60006020820190508181036000830152611297818461121f565b905092915050565b6000819050919050565b6112b28161129f565b81146112bd57600080fd5b50565b6000813590506112cf816112a9565b92915050565b600080604083850312156112ec576112eb610e17565b5b60006112fa858286016112c0565b925050602061130b858286016112c0565b9150509250929050565b600081519050919050565b600082825260208201905092915050565b60005b8381101561134f578082015181840152602081019050611334565b8381111561135e576000848401525b50505050565b600061136f82611315565b6113798185611320565b9350611389818560208601611331565b61139281610e2b565b840191505092915050565b6113a681610f87565b82525050565b60006101408201905081810360008301526113c7818d611364565b905081810360208301526113db818c611364565b90506113ea604083018b61139d565b81810360608301526113fc818a611364565b905081810360808301526114108189611364565b905081810360a08301526114248188611364565b905081810360c08301526114388187611364565b905081810360e083015261144c8186611364565b90508181036101008301526114618185611364565b905061147161012083018461139d565b9b9a5050505050505050505050565b7f4e487b7100000000000000000000000000000000000000000000000000000000600052603260045260246000fd5b6000815190506114be81610f99565b92915050565b6000602082840312156114da576114d9610e17565b5b60006114e8848285016114af565b91505092915050565b60008115159050919050565b611506816114f1565b811461151157600080fd5b50565b600081519050611523816114fd565b92915050565b60006020828403121561153f5761153e610e17565b5b600061154d84828501611514565b91505092915050565b7f4e487b7100000000000000000000000000000000000000000000000000000000600052601160045260246000fd5b60006115908261129f565b91507fffffffffffffffffffffffffffffffffffffffffffffffffffffffffffffffff82036115c2576115c1611556565b5b600182019050919050565b60006020820190506115e2600083018461139d565b92915050565b7f6f6666736574206f7574206f6620626f756e6473000000000000000000000000600082015250565b600061161e601483611320565b9150611629826115e8565b602082019050919050565b6000602082019050818103600083015261164d81611611565b9050919050565b600061165f8261129f565b915061166a8361129f565b92508282101561167d5761167c611556565b5b828203905092915050565b60006116938261129f565b915061169e8361129f565b9250827fffffffffffffffffffffffffffffffffffffffffffffffffffffffffffffffff038211156116d3576116d2611556565b5b82820190509291505056fe608060405234801561001057600080fd5b50336000806101000a81548173ffffffffffffffffffffffffffffffffffffffff021916908373ffffffffffffffffffffffffffffffffffffffff160217905550611d58806100606000396000f3fe60806040526004361061011b576000357c010000000000000000000000000000000000000000000000000000000090048063a6c3e6b9116100b2578063c2bb515f11610081578063c2bb515f14610306578063d29d44ee14610333578063db74db411461035c578063e145ad7714610399578063e7d931e4146103b55761011b565b8063a6c3e6b914610269578063b46f0af214610294578063b6f3f14d146102b0578063b9e3e2db146102db5761011b565b80637284e416116100ee5780637284e416146101bd5780638c72c54e146101e85780638da5cb5b1461021357806397781f021461023e5761011b565b806340078519146101205780634a79d50c1461013c578063542a233f146101675780636929b85d14610192575b600080fd5b61013a6004803603810190610135919061154e565b6103e0565b005b34801561014857600080fd5b506101516105d8565b60405161015e919061161f565b60405180910390f35b34801561017357600080fd5b5061017c610666565b6040516101899190611682565b60405180910390f35b34801561019e57600080fd5b506101a761068c565b6040516101b4919061161f565b60405180910390f35b3480156101c957600080fd5b506101d261071a565b6040516101df919061161f565b60405180910390f35b3480156101f457600080fd5b506101fd6107a8565b60405161020a919061161f565b60405180910390f35b34801561021f57600080fd5b50610228610836565b6040516102359190611682565b60405180910390f35b34801561024a57600080fd5b5061025361085f565b60405161026091906116b8565b60405180910390f35b34801561027557600080fd5b5061027e6108bb565b60405161028b919061161f565b60405180910390f35b6102ae60048036038101906102a9919061154e565b610949565b005b3480156102bc57600080fd5b506102c5610bb6565b6040516102d2919061161f565b60405180910390f35b3480156102e757600080fd5b506102f0610cbd565b6040516102fd919061161f565b60405180910390f35b34801561031257600080fd5b5061031b610d4b565b60405161032a939291906116d3565b60405180910390f35b34801561033f57600080fd5b5061035a60048036038101906103559190611744565b610fa9565b005b34801561036857600080fd5b50610383600480360381019061037e9190611744565b611061565b60405161039091906116b8565b60405180910390f35b6103b360048036038101906103ae9190611771565b6110be565b005b3480156103c157600080fd5b506103ca611283565b6040516103d7919061161f565b60405180910390f35b3373ffffffffffffffffffffffffffffffffffffffff166103ff610836565b73ffffffffffffffffffffffffffffffffffffffff1614610455576040517f08c379a000000000000000000000000000000000000000000000000000000000815260040161044c9061197c565b60405180910390fd5b600073ffffffffffffffffffffffffffffffffffffffff16600a60000160009054906101000a900473ffffffffffffffffffffffffffffffffffffffff1673ffffffffffffffffffffffffffffffffffffffff16036104e9576040517f08c379a00000000000000000000000000000000000000000000000000000000081526004016104e0906119e8565b60405180910390fd5b80600990805190602001906104ff929190611311565b5061052e600a60000160009054906101000a900473ffffffffffffffffffffffffffffffffffffffff16610fa9565b7f05ed72fb067c347f6105353bae5a89a2a6007f55cc0cca8d3ae682196e55344433600a60000160009054906101000a900473ffffffffffffffffffffffffffffffffffffffff166001426040516105899493929190611b16565b60405180910390a1600a600080820160006101000a81549073ffffffffffffffffffffffffffffffffffffffff02191690556001820160006105cb9190611397565b6002820160009055505050565b600180546105e590611a37565b80601f016020809104026020016040519081016040528092919081815260200182805461061190611a37565b801561065e5780601f106106335761010080835404028352916020019161065e565b820191906000526020600020905b81548152906001019060200180831161064157829003601f168201915b505050505081565b600360009054906101000a900473ffffffffffffffffffffffffffffffffffffffff1681565b6006805461069990611a37565b80601f01602080910402602001604051908101604052809291908181526020018280546106c590611a37565b80156107125780601f106106e757610100808354040283529160200191610712565b820191906000526020600020905b8154815290600101906020018083116106f557829003601f168201915b505050505081565b6008805461072790611a37565b80601f016020809104026020016040519081016040528092919081815260200182805461075390611a37565b80156107a05780601f10610775576101008083540402835291602001916107a0565b820191906000526020600020905b81548152906001019060200180831161078357829003601f168201915b505050505081565b600480546107b590611a37565b80601f01602080910402602001604051908101604052809291908181526020018280546107e190611a37565b801561082e5780601f106108035761010080835404028352916020019161082e565b820191906000526020600020905b81548152906001019060200180831161081157829003601f168201915b505050505081565b60008060009054906101000a900473ffffffffffffffffffffffffffffffffffffffff16905090565b60008073ffffffffffffffffffffffffffffffffffffffff16600a60000160009054906101000a900473ffffffffffffffffffffffffffffffffffffffff1673ffffffffffffffffffffffffffffffffffffffff161415905090565b600280546108c890611a37565b80601f01602080910402602001604051908101604052809291908181526020018280546108f490611a37565b80156109415780601f1061091657610100808354040283529160200191610941565b820191906000526020600020905b81548152906001019060200180831161092457829003601f168201915b505050505081565b3373ffffffffffffffffffffffffffffffffffffffff16610968610836565b73ffffffffffffffffffffffffffffffffffffffff16036109be576040517f08c379a00000000000000000000000000000000000000000000000000000000081526004016109b590611bae565b60405180910390fd5b3373ffffffffffffffffffffffffffffffffffffffff16600a60000160009054906101000a900473ffffffffffffffffffffffffffffffffffffffff1673ffffffffffffffffffffffffffffffffffffffff1603610a51576040517f08c379a0000000000000000000000000000000000000000000000000000000008152600401610a4890611c1a565b60405180910390fd5b600073ffffffffffffffffffffffffffffffffffffffff16600a60000160009054906101000a900473ffffffffffffffffffffffffffffffffffffffff1673ffffffffffffffffffffffffffffffffffffffff1614610ae5576040517f08c379a0000000000000000000000000000000000000000000000000000000008152600401610adc90611c86565b60405180910390fd5b33600a60000160006101000a81548173ffffffffffffffffffffffffffffffffffffffff021916908373ffffffffffffffffffffffffffffffffffffffff16021790555080600a6001019080519060200190610b42929190611311565b5042600a600201819055507f129f67783f1fc54762392a484603d038c3007571edd583280de130581c11f1c2600a60000160009054906101000a900473ffffffffffffffffffffffffffffffffffffffff166001600a60020154604051610bab93929190611ca6565b60405180910390a150565b60603373ffffffffffffffffffffffffffffffffffffffff16610bd7610836565b73ffffffffffffffffffffffffffffffffffffffff1614610c2d576040517f08c379a0000000000000000000000000000000000000000000000000000000008152600401610c249061197c565b60405180910390fd5b60098054610c3a90611a37565b80601f0160208091040260200160405190810160405280929190818152602001828054610c6690611a37565b8015610cb35780601f10610c8857610100808354040283529160200191610cb3565b820191906000526020600020905b815481529060010190602001808311610c9657829003601f168201915b5050505050905090565b60058054610cca90611a37565b80601f0160208091040260200160405190810160405280929190818152602001828054610cf690611a37565b8015610d435780601f10610d1857610100808354040283529160200191610d43565b820191906000526020600020905b815481529060010190602001808311610d2657829003601f168201915b505050505081565b60006060803373ffffffffffffffffffffffffffffffffffffffff16610d6f610836565b73ffffffffffffffffffffffffffffffffffffffff1614610dc5576040517f08c379a0000000000000000000000000000000000000000000000000000000008152600401610dbc9061197c565b60405180910390fd5b600073ffffffffffffffffffffffffffffffffffffffff16600a60000160009054906101000a900473ffffffffffffffffffffffffffffffffffffffff1673ffffffffffffffffffffffffffffffffffffffff1603610e59576040517f08c379a0000000000000000000000000000000000000000000000000000000008152600401610e50906119e8565b60405180910390fd5b600a60000160009054906101000a900473ffffffffffffffffffffffffffffffffffffffff16600a6001016009818054610e9290611a37565b80601f0160208091040260200160405190810160405280929190818152602001828054610ebe90611a37565b8015610f0b5780601f10610ee057610100808354040283529160200191610f0b565b820191906000526020600020905b815481529060010190602001808311610eee57829003601f168201915b50505050509150808054610f1e90611a37565b80601f0160208091040260200160405190810160405280929190818152602001828054610f4a90611a37565b8015610f975780601f10610f6c57610100808354040283529160200191610f97565b820191906000526020600020905b815481529060010190602001808311610f7a57829003601f168201915b50505050509050925092509250909192565b3373ffffffffffffffffffffffffffffffffffffffff16610fc8610836565b73ffffffffffffffffffffffffffffffffffffffff161461101e576040517f08c379a00000000000000000000000000000000000000000000000000000000081526004016110159061197c565b60405180910390fd5b806000806101000a81548173ffffffffffffffffffffffffffffffffffffffff021916908373ffffffffffffffffffffffffffffffffffffffff16021790555050565b60008173ffffffffffffffffffffffffffffffffffffffff16600a60000160009054906101000a900473ffffffffffffffffffffffffffffffffffffffff1673ffffffffffffffffffffffffffffffffffffffff16149050919050565b3373ffffffffffffffffffffffffffffffffffffffff166110dd610836565b73ffffffffffffffffffffffffffffffffffffffff1614611133576040517f08c379a000000000000000000000000000000000000000000000000000000000815260040161112a9061197c565b60405180910390fd5b8960019080519060200190611149929190611311565b508860029080519060200190611160929190611311565b5087600360006101000a81548173ffffffffffffffffffffffffffffffffffffffff021916908373ffffffffffffffffffffffffffffffffffffffff16021790555086600490805190602001906111b8929190611311565b5085600590805190602001906111cf929190611311565b5084600690805190602001906111e6929190611311565b5083600790805190602001906111fd929190611311565b508260089080519060200190611214929190611311565b50816009908051906020019061122b929190611311565b5061123581610fa9565b7f2c3d8654c722907d677c4b23bb45791dd5537752c42883afd760f076d69436b48a61125f610836565b4260405161126f93929190611ce4565b60405180910390a150505050505050505050565b6007805461129090611a37565b80601f01602080910402602001604051908101604052809291908181526020018280546112bc90611a37565b80156113095780601f106112de57610100808354040283529160200191611309565b820191906000526020600020905b8154815290600101906020018083116112ec57829003601f168201915b505050505081565b82805461131d90611a37565b90600052602060002090601f01602090048101928261133f5760008555611386565b82601f1061135857805160ff1916838001178555611386565b82800160010185558215611386579182015b8281111561138557825182559160200191906001019061136a565b5b50905061139391906113d7565b5090565b5080546113a390611a37565b6000825580601f106113b557506113d4565b601f0160209004906000526020600020908101906113d391906113d7565b5b50565b5b808211156113f05760008160009055506001016113d8565b5090565b6000604051905090565b600080fd5b600080fd5b600080fd5b600080fd5b6000601f19601f8301169050919050565b7f4e487b7100000000000000000000000000000000000000000000000000000000600052604160045260246000fd5b61145b82611412565b810181811067ffffffffffffffff8211171561147a57611479611423565b5b80604052505050565b600061148d6113f4565b90506114998282611452565b919050565b600067ffffffffffffffff8211156114b9576114b8611423565b5b6114c282611412565b9050602081019050919050565b82818337600083830152505050565b60006114f16114ec8461149e565b611483565b90508281526020810184848401111561150d5761150c61140d565b5b6115188482856114cf565b509392505050565b600082601f83011261153557611534611408565b5b81356115458482602086016114de565b91505092915050565b600060208284031215611564576115636113fe565b5b600082013567ffffffffffffffff81111561158257611581611403565b5b61158e84828501611520565b91505092915050565b600081519050919050565b600082825260208201905092915050565b60005b838110156115d15780820151818401526020810190506115b6565b838111156115e0576000848401525b50505050565b60006115f182611597565b6115fb81856115a2565b935061160b8185602086016115b3565b61161481611412565b840191505092915050565b6000602082019050818103600083015261163981846115e6565b905092915050565b600073ffffffffffffffffffffffffffffffffffffffff82169050919050565b600061166c82611641565b9050919050565b61167c81611661565b82525050565b60006020820190506116976000830184611673565b92915050565b60008115159050919050565b6116b28161169d565b82525050565b60006020820190506116cd60008301846116a9565b92915050565b60006060820190506116e86000830186611673565b81810360208301526116fa81856115e6565b9050818103604083015261170e81846115e6565b9050949350505050565b61172181611661565b811461172c57600080fd5b50565b60008135905061173e81611718565b92915050565b60006020828403121561175a576117596113fe565b5b60006117688482850161172f565b91505092915050565b6000806000806000806000806000806101408b8d031215611795576117946113fe565b5b60008b013567ffffffffffffffff8111156117b3576117b2611403565b5b6117bf8d828e01611520565b9a505060208b013567ffffffffffffffff8111156117e0576117df611403565b5b6117ec8d828e01611520565b99505060406117fd8d828e0161172f565b98505060608b013567ffffffffffffffff81111561181e5761181d611403565b5b61182a8d828e01611520565b97505060808b013567ffffffffffffffff81111561184b5761184a611403565b5b6118578d828e01611520565b96505060a08b013567ffffffffffffffff81111561187857611877611403565b5b6118848d828e01611520565b95505060c08b013567ffffffffffffffff8111156118a5576118a4611403565b5b6118b18d828e01611520565b94505060e08b013567ffffffffffffffff8111156118d2576118d1611403565b5b6118de8d828e01611520565b9350506101008b013567ffffffffffffffff811115611900576118ff611403565b5b61190c8d828e01611520565b92505061012061191e8d828e0161172f565b9150509295989b9194979a5092959850565b7f746865206775657374206e6f7420616c6c6f7765642e00000000000000000000600082015250565b60006119666016836115a2565b915061197182611930565b602082019050919050565b6000602082019050818103600083015261199581611959565b9050919050565b7f7468652072657175657374206973206e6f7420617661696c61626c6500000000600082015250565b60006119d2601c836115a2565b91506119dd8261199c565b602082019050919050565b60006020820190508181036000830152611a01816119c5565b9050919050565b7f4e487b7100000000000000000000000000000000000000000000000000000000600052602260045260246000fd5b60006002820490506001821680611a4f57607f821691505b602082108103611a6257611a61611a08565b5b50919050565b60008190508160005260206000209050919050565b60008154611a8a81611a37565b611a9481866115a2565b94506001821660008114611aaf5760018114611ac157611af4565b60ff1983168652602086019350611af4565b611aca85611a68565b60005b83811015611aec57815481890152600182019150602081019050611acd565b808801955050505b50505092915050565b6000819050919050565b611b1081611afd565b82525050565b6000608082019050611b2b6000830187611673565b611b386020830186611673565b8181036040830152611b4a8185611a7d565b9050611b596060830184611b07565b95945050505050565b7f746865206f776e6572206e6f7420616c6c6f7765640000000000000000000000600082015250565b6000611b986015836115a2565b9150611ba382611b62565b602082019050919050565b60006020820190508181036000830152611bc781611b8b565b9050919050565b7f796f752072657175657374656400000000000000000000000000000000000000600082015250565b6000611c04600d836115a2565b9150611c0f82611bce565b602082019050919050565b60006020820190508181036000830152611c3381611bf7565b9050919050565b7f74686520626f6f6b207265717565737465640000000000000000000000000000600082015250565b6000611c706012836115a2565b9150611c7b82611c3a565b602082019050919050565b60006020820190508181036000830152611c9f81611c63565b9050919050565b6000606082019050611cbb6000830186611673565b8181036020830152611ccd8185611a7d565b9050611cdc6040830184611b07565b949350505050565b60006060820190508181036000830152611cfe81866115e6565b9050611d0d6020830185611673565b611d1a6040830184611b07565b94935050505056fea264697066735822122045c87b8edba90317200bb1e253a941fb61affcdd0b6036e1975f5884964978af64736f6c634300080e0033a2646970667358221220f721625086811900e4e10abb1dd77beffe8adc8fbb6b8140b24f31c2cc47331664736f6c634300080e0033",
  "immutableReferences": {},
  "source": "// SPDX-License-Identifier: MIT\npragma solidity >=0.8.0 <0.9.0;\n\nimport \"./Ownable.sol\";\n\ncontract BookFactory {\n    //for public info\n    Book[] private _books;\n\n    function createBook(\n        string memory _title,\n        string memory _author,\n        address _author_account,\n        string memory _publisher,\n        string memory _releaseDate,\n        string memory _isbn,\n        string memory _cover,\n        string memory _description,\n        string memory _documentHash\n    ) public {\n        Book book = new Book();\n        book.create(\n            _title,\n            _author,\n            _author_account,\n            _publisher,\n            _releaseDate,\n            _isbn,\n            _cover,\n            _description,\n            _documentHash,\n            msg.sender\n        );\n\n        _books.push(book);\n    }\n\n    function books(uint256 _limit, uint256 _offset)\n        public\n        view\n        returns (Book[] memory collections)\n    {\n        require(_offset <= _books.length, \"offset out of bounds\");\n        uint256 maxlimit = 20;\n        uint256 size = _books.length - _offset;\n        size = size < _limit ? size : _limit;\n        size = size < maxlimit ? size : maxlimit;\n\n        collections = new Book[](size);\n\n        for (uint256 i = 0; i < size; i++) {\n            collections[i] = _books[_offset + i];\n        }\n\n        return collections;\n    }\n\n    function myBooks() external view returns (Book[] memory collections) {\n        uint256 size = 0;\n        for (uint256 i = 0; i < _books.length; i++) {\n            Book pub = _books[i];\n            if (pub.owner() == msg.sender) size++;\n        }\n\n        if (size > 0) {\n            collections = new Book[](size);\n            uint256 collectIndex = 0;\n            for (uint256 i = 0; i < _books.length; i++) {\n                Book pub = _books[i];\n                if (pub.owner() == msg.sender) {\n                    collections[collectIndex] = pub;\n                    collectIndex++;\n                }\n            }\n        }\n\n        return collections;\n    }\n\n    function myRequests() external view returns (Book[] memory collections) {\n        uint256 size = 0;\n        for (uint256 i = 0; i < _books.length; i++) {\n            Book pub = _books[i];\n            if (pub.isMyRequest(msg.sender)) size++;\n        }\n\n        if (size > 0) {\n            uint256 collectIndex = 0;\n            collections = new Book[](size);\n            for (uint256 i = 0; i < _books.length; i++) {\n                Book pub = _books[i];\n                if (pub.isMyRequest(msg.sender)) {\n                    collections[collectIndex] = pub;\n                    collectIndex++;\n                }\n            }\n        }\n\n        return collections;\n    }\n\n    function myRequestedBooks()\n        external\n        view\n        returns (Book[] memory collections)\n    {\n        uint256 size = 0;\n        for (uint256 i = 0; i < _books.length; i++) {\n            Book pub = _books[i];\n            if (pub.owner() == msg.sender && pub.isRequested()) size++;\n        }\n\n        if (size > 0) {\n            uint256 collectIndex = 0;\n            collections = new Book[](size);\n            for (uint256 i = 0; i < _books.length; i++) {\n                Book pub = _books[i];\n                if (pub.owner() == msg.sender && pub.isRequested()) {\n                    collections[collectIndex] = pub;\n                    collectIndex++;\n                }\n            }\n        }\n\n        return collections;\n    }\n}\n\ncontract Book is Ownable {\n    string public title;\n    string public author;\n    address public author_account;\n    string public publisher;\n    string public releaseDate;\n    string public isbn;\n    string public cover;\n    string public description;\n    string private documentHash;\n\n    //customer struct\n    struct Requester {\n        address customer;\n        string publicKey;\n        uint256 date;\n    }\n\n    Requester private _requester;\n\n    event BookCreated(string title, address owner, uint256 date);\n    event Requested(address customer, string title, uint256 date);\n    event RequestAccepted(address from, address to, string title, uint256 date);\n\n    function create(\n        string memory _title,\n        string memory _author,\n        address _author_account,\n        string memory _publisher,\n        string memory _releaseDate,\n        string memory _isbn,\n        string memory _cover,\n        string memory _description,\n        string memory _hashDocument,\n        address _owner\n    ) public payable onlyOwner {\n        title = _title;\n        author = _author;\n        author_account = _author_account;\n        publisher = _publisher;\n        releaseDate = _releaseDate;\n        isbn = _isbn;\n        cover = _cover;\n        description = _description;\n        documentHash = _hashDocument;\n\n        _transferOwnership(_owner);\n\n        emit BookCreated(_title, owner(), block.timestamp);\n    }\n\n    function getDocument() external view onlyOwner returns (string memory) {\n        return documentHash;\n    }\n\n    function requestOwner(string memory _customerPublicKey)\n        external\n        payable\n        nonOwner\n    {\n        require(_requester.customer != msg.sender, \"you requested\");\n        require(_requester.customer == address(0x0), \"the book requested\");\n\n        _requester.customer = msg.sender;\n        _requester.publicKey = _customerPublicKey;\n        _requester.date = block.timestamp;\n\n        //emit event\n        emit Requested(_requester.customer, title, _requester.date);\n    }\n\n    function getRequest()\n        external\n        view\n        onlyOwner\n        returns (\n            address,\n            string memory,\n            string memory\n        )\n    {\n        require(\n            _requester.customer != address(0x0),\n            \"the request is not available\"\n        );\n        return (_requester.customer, _requester.publicKey, documentHash);\n    }\n\n    function isMyRequest(address customer) public view returns (bool) {\n        return _requester.customer == customer;\n    }\n\n    function isRequested() public view returns (bool) {\n        return _requester.customer != address(0x00);\n    }\n\n    function acceptRequest(string memory _documentHash)\n        external\n        payable\n        onlyOwner\n    {\n        require(\n            _requester.customer != address(0x0),\n            \"the request is not available\"\n        );\n\n        documentHash = _documentHash;\n        _transferOwnership(_requester.customer);\n\n        emit RequestAccepted(\n            msg.sender,\n            _requester.customer,\n            title,\n            block.timestamp\n        );\n\n        delete _requester;\n    }\n}\n",
  "sourcePath": "/Users/jee/Studies/projects/blockchain/drmchain-dapp/main-app/truffle/contracts/BookFactory.sol",
  "compiler": {
    "name": "solc",
    "version": "0.8.14+commit.80d49f37.Emscripten.clang"
  },
  "schemaVersion": "3.4.10",
  "updatedAt": "2023-02-08T07:26:52.440Z",
  "networkType": "ethereum",
  "devdoc": {
    "kind": "dev",
    "methods": {},
    "version": 1
  },
  "userdoc": {
    "kind": "user",
    "methods": {},
    "version": 1
  }
}