{
  "contractName": "BookFactory",
  "abi": [
    {
      "anonymous": false,
      "inputs": [
        {
          "indexed": false,
          "internalType": "string",
          "name": "title",
          "type": "string"
        },
        {
          "indexed": false,
          "internalType": "address",
          "name": "owner",
          "type": "address"
        },
        {
          "indexed": false,
          "internalType": "uint256",
          "name": "date",
          "type": "uint256"
        }
      ],
      "name": "BookCreated",
      "type": "event"
    },
    {
      "inputs": [
        {
          "internalType": "string",
          "name": "_title",
          "type": "string"
        },
        {
          "internalType": "string",
          "name": "_author",
          "type": "string"
        },
        {
          "internalType": "address",
          "name": "_author_account",
          "type": "address"
        },
        {
          "internalType": "string",
          "name": "_publisher",
          "type": "string"
        },
        {
          "internalType": "string",
          "name": "_releaseDate",
          "type": "string"
        },
        {
          "internalType": "string",
          "name": "_isbn",
          "type": "string"
        },
        {
          "internalType": "string",
          "name": "_cover",
          "type": "string"
        },
        {
          "internalType": "string",
          "name": "_description",
          "type": "string"
        },
        {
          "internalType": "string",
          "name": "_documentHash",
          "type": "string"
        }
      ],
      "name": "createBook",
      "outputs": [],
      "stateMutability": "nonpayable",
      "type": "function"
    },
    {
      "inputs": [],
      "name": "bookCount",
      "outputs": [
        {
          "internalType": "uint256",
          "name": "",
          "type": "uint256"
        }
      ],
      "stateMutability": "view",
      "type": "function",
      "constant": true
    },
    {
      "inputs": [
        {
          "internalType": "uint256",
          "name": "_limit",
          "type": "uint256"
        },
        {
          "internalType": "uint256",
          "name": "_offset",
          "type": "uint256"
        }
      ],
      "name": "books",
      "outputs": [
        {
          "internalType": "contract Book[]",
          "name": "collections",
          "type": "address[]"
        }
      ],
      "stateMutability": "view",
      "type": "function",
      "constant": true
    },
    {
      "inputs": [],
      "name": "myBooks",
      "outputs": [
        {
          "internalType": "contract Book[]",
          "name": "collections",
          "type": "address[]"
        }
      ],
      "stateMutability": "view",
      "type": "function",
      "constant": true
    },
    {
      "inputs": [],
      "name": "myRequests",
      "outputs": [
        {
          "internalType": "contract Book[]",
          "name": "collections",
          "type": "address[]"
        }
      ],
      "stateMutability": "view",
      "type": "function",
      "constant": true
    },
    {
      "inputs": [],
      "name": "myRequestedBooks",
      "outputs": [
        {
          "internalType": "contract Book[]",
          "name": "collections",
          "type": "address[]"
        }
      ],
      "stateMutability": "view",
      "type": "function",
      "constant": true
    }
  ],
  "bytecode": "0x608060405234801561001057600080fd5b50613935806100206000396000f3fe60806040523480156200001157600080fd5b50600436106200006a5760003560e01c8063071f14d1146200006f5780632c76994c146200008f5780639777b72c14620000b1578063b905ad7814620000d3578063c2eddbbb14620000f5578063c823dbb51462000117575b600080fd5b6200008d600480360381019062000087919062001005565b6200014d565b005b62000099620002b9565b604051620000a8919062001304565b60405180910390f35b620000bb620006ae565b604051620000ca919062001304565b60405180910390f35b620000dd6200096b565b604051620000ec919062001343565b60405180910390f35b620000ff62000977565b6040516200010e919062001304565b60405180910390f35b6200013560048036038101906200012f919062001391565b62000c73565b60405162000144919062001304565b60405180910390f35b600089898989898989898933604051620001679062000e1c565b6200017c9a999897969594939291906200147c565b604051809103906000f08015801562000199573d6000803e3d6000fd5b5090506000819080600181540180825580915050600190039060005260206000200160009091909190916101000a81548173ffffffffffffffffffffffffffffffffffffffff021916908373ffffffffffffffffffffffffffffffffffffffff1602179055507f2c3d8654c722907d677c4b23bb45791dd5537752c42883afd760f076d69436b48a8273ffffffffffffffffffffffffffffffffffffffff16638da5cb5b6040518163ffffffff1660e01b8152600401602060405180830381865afa1580156200026d573d6000803e3d6000fd5b505050506040513d601f19601f820116820180604052508101906200029391906200157b565b42604051620002a593929190620015ad565b60405180910390a150505050505050505050565b60606000805b6000805490508110156200045b576000808281548110620002e557620002e4620015f1565b5b9060005260206000200160009054906101000a900473ffffffffffffffffffffffffffffffffffffffff1690503373ffffffffffffffffffffffffffffffffffffffff168173ffffffffffffffffffffffffffffffffffffffff16638da5cb5b6040518163ffffffff1660e01b8152600401602060405180830381865afa15801562000375573d6000803e3d6000fd5b505050506040513d601f19601f820116820180604052508101906200039b91906200157b565b73ffffffffffffffffffffffffffffffffffffffff161480156200042d57508073ffffffffffffffffffffffffffffffffffffffff166397781f026040518163ffffffff1660e01b8152600401602060405180830381865afa15801562000406573d6000803e3d6000fd5b505050506040513d601f19601f820116820180604052508101906200042c91906200165d565b5b15620004445782806200044090620016be565b9350505b5080806200045290620016be565b915050620002bf565b506000811115620006aa5760008167ffffffffffffffff81111562000485576200048462000e59565b5b604051908082528060200260200182016040528015620004b45781602001602082028036833780820191505090505b50925060005b600080549050811015620006a7576000808281548110620004e057620004df620015f1565b5b9060005260206000200160009054906101000a900473ffffffffffffffffffffffffffffffffffffffff1690503373ffffffffffffffffffffffffffffffffffffffff168173ffffffffffffffffffffffffffffffffffffffff16638da5cb5b6040518163ffffffff1660e01b8152600401602060405180830381865afa15801562000570573d6000803e3d6000fd5b505050506040513d601f19601f820116820180604052508101906200059691906200157b565b73ffffffffffffffffffffffffffffffffffffffff161480156200062857508073ffffffffffffffffffffffffffffffffffffffff166397781f026040518163ffffffff1660e01b8152600401602060405180830381865afa15801562000601573d6000803e3d6000fd5b505050506040513d601f19601f820116820180604052508101906200062791906200165d565b5b15620006905780858481518110620006455762000644620015f1565b5b602002602001019073ffffffffffffffffffffffffffffffffffffffff16908173ffffffffffffffffffffffffffffffffffffffff168152505082806200068c90620016be565b9350505b5080806200069e90620016be565b915050620004ba565b50505b5090565b60606000805b600080549050811015620007b4576000808281548110620006da57620006d9620015f1565b5b9060005260206000200160009054906101000a900473ffffffffffffffffffffffffffffffffffffffff1690508073ffffffffffffffffffffffffffffffffffffffff1663db74db41336040518263ffffffff1660e01b81526004016200074291906200170b565b602060405180830381865afa15801562000760573d6000803e3d6000fd5b505050506040513d601f19601f820116820180604052508101906200078691906200165d565b156200079d5782806200079990620016be565b9350505b508080620007ab90620016be565b915050620006b4565b506000811115620009675760008167ffffffffffffffff811115620007de57620007dd62000e59565b5b6040519080825280602002602001820160405280156200080d5781602001602082028036833780820191505090505b50925060005b60008054905081101562000964576000808281548110620008395762000838620015f1565b5b9060005260206000200160009054906101000a900473ffffffffffffffffffffffffffffffffffffffff1690508073ffffffffffffffffffffffffffffffffffffffff1663db74db41336040518263ffffffff1660e01b8152600401620008a191906200170b565b602060405180830381865afa158015620008bf573d6000803e3d6000fd5b505050506040513d601f19601f82011682018060405250810190620008e591906200165d565b156200094d5780858481518110620009025762000901620015f1565b5b602002602001019073ffffffffffffffffffffffffffffffffffffffff16908173ffffffffffffffffffffffffffffffffffffffff168152505082806200094990620016be565b9350505b5080806200095b90620016be565b91505062000813565b50505b5090565b60008080549050905090565b60606000805b60008054905081101562000a9d576000808281548110620009a357620009a2620015f1565b5b9060005260206000200160009054906101000a900473ffffffffffffffffffffffffffffffffffffffff1690503373ffffffffffffffffffffffffffffffffffffffff168173ffffffffffffffffffffffffffffffffffffffff16638da5cb5b6040518163ffffffff1660e01b8152600401602060405180830381865afa15801562000a33573d6000803e3d6000fd5b505050506040513d601f19601f8201168201806040525081019062000a5991906200157b565b73ffffffffffffffffffffffffffffffffffffffff160362000a8657828062000a8290620016be565b9350505b50808062000a9490620016be565b9150506200097d565b50600081111562000c6f578067ffffffffffffffff81111562000ac55762000ac462000e59565b5b60405190808252806020026020018201604052801562000af45781602001602082028036833780820191505090505b5091506000805b60008054905081101562000c6c57600080828154811062000b215762000b20620015f1565b5b9060005260206000200160009054906101000a900473ffffffffffffffffffffffffffffffffffffffff1690503373ffffffffffffffffffffffffffffffffffffffff168173ffffffffffffffffffffffffffffffffffffffff16638da5cb5b6040518163ffffffff1660e01b8152600401602060405180830381865afa15801562000bb1573d6000803e3d6000fd5b505050506040513d601f19601f8201168201806040525081019062000bd791906200157b565b73ffffffffffffffffffffffffffffffffffffffff160362000c55578085848151811062000c0a5762000c09620015f1565b5b602002602001019073ffffffffffffffffffffffffffffffffffffffff16908173ffffffffffffffffffffffffffffffffffffffff1681525050828062000c5190620016be565b9350505b50808062000c6390620016be565b91505062000afb565b50505b5090565b606060008054905082111562000cc0576040517f08c379a000000000000000000000000000000000000000000000000000000000815260040162000cb79062001778565b60405180910390fd5b60006014905060008360008054905062000cdb91906200179a565b905084811062000cec578462000cee565b805b905081811062000cff578162000d01565b805b90508067ffffffffffffffff81111562000d205762000d1f62000e59565b5b60405190808252806020026020018201604052801562000d4f5781602001602082028036833780820191505090505b50925060005b8181101562000e13576000818662000d6e9190620017d5565b8154811062000d825762000d81620015f1565b5b9060005260206000200160009054906101000a900473ffffffffffffffffffffffffffffffffffffffff1684828151811062000dc35762000dc2620015f1565b5b602002602001019073ffffffffffffffffffffffffffffffffffffffff16908173ffffffffffffffffffffffffffffffffffffffff1681525050808062000e0a90620016be565b91505062000d55565b50505092915050565b6120cd806200183383390190565b6000604051905090565b600080fd5b600080fd5b600080fd5b600080fd5b6000601f19601f8301169050919050565b7f4e487b7100000000000000000000000000000000000000000000000000000000600052604160045260246000fd5b62000e938262000e48565b810181811067ffffffffffffffff8211171562000eb55762000eb462000e59565b5b80604052505050565b600062000eca62000e2a565b905062000ed8828262000e88565b919050565b600067ffffffffffffffff82111562000efb5762000efa62000e59565b5b62000f068262000e48565b9050602081019050919050565b82818337600083830152505050565b600062000f3962000f338462000edd565b62000ebe565b90508281526020810184848401111562000f585762000f5762000e43565b5b62000f6584828562000f13565b509392505050565b600082601f83011262000f855762000f8462000e3e565b5b813562000f9784826020860162000f22565b91505092915050565b600073ffffffffffffffffffffffffffffffffffffffff82169050919050565b600062000fcd8262000fa0565b9050919050565b62000fdf8162000fc0565b811462000feb57600080fd5b50565b60008135905062000fff8162000fd4565b92915050565b60008060008060008060008060006101208a8c0312156200102b576200102a62000e34565b5b60008a013567ffffffffffffffff8111156200104c576200104b62000e39565b5b6200105a8c828d0162000f6d565b99505060208a013567ffffffffffffffff8111156200107e576200107d62000e39565b5b6200108c8c828d0162000f6d565b98505060406200109f8c828d0162000fee565b97505060608a013567ffffffffffffffff811115620010c357620010c262000e39565b5b620010d18c828d0162000f6d565b96505060808a013567ffffffffffffffff811115620010f557620010f462000e39565b5b620011038c828d0162000f6d565b95505060a08a013567ffffffffffffffff81111562001127576200112662000e39565b5b620011358c828d0162000f6d565b94505060c08a013567ffffffffffffffff81111562001159576200115862000e39565b5b620011678c828d0162000f6d565b93505060e08a013567ffffffffffffffff8111156200118b576200118a62000e39565b5b620011998c828d0162000f6d565b9250506101008a013567ffffffffffffffff811115620011be57620011bd62000e39565b5b620011cc8c828d0162000f6d565b9150509295985092959850929598565b600081519050919050565b600082825260208201905092915050565b6000819050602082019050919050565b6000819050919050565b6000620012336200122d620012278462000fa0565b62001208565b62000fa0565b9050919050565b6000620012478262001212565b9050919050565b60006200125b826200123a565b9050919050565b6200126d816200124e565b82525050565b600062001281838362001262565b60208301905092915050565b6000602082019050919050565b6000620012a782620011dc565b620012b38185620011e7565b9350620012c083620011f8565b8060005b83811015620012f7578151620012db888262001273565b9750620012e8836200128d565b925050600181019050620012c4565b5085935050505092915050565b600060208201905081810360008301526200132081846200129a565b905092915050565b6000819050919050565b6200133d8162001328565b82525050565b60006020820190506200135a600083018462001332565b92915050565b6200136b8162001328565b81146200137757600080fd5b50565b6000813590506200138b8162001360565b92915050565b60008060408385031215620013ab57620013aa62000e34565b5b6000620013bb858286016200137a565b9250506020620013ce858286016200137a565b9150509250929050565b600081519050919050565b600082825260208201905092915050565b60005b8381101562001414578082015181840152602081019050620013f7565b8381111562001424576000848401525b50505050565b60006200143782620013d8565b620014438185620013e3565b935062001455818560208601620013f4565b620014608162000e48565b840191505092915050565b620014768162000fc0565b82525050565b600061014082019050818103600083015262001499818d6200142a565b90508181036020830152620014af818c6200142a565b9050620014c0604083018b6200146b565b8181036060830152620014d4818a6200142a565b90508181036080830152620014ea81896200142a565b905081810360a08301526200150081886200142a565b905081810360c08301526200151681876200142a565b905081810360e08301526200152c81866200142a565b90508181036101008301526200154381856200142a565b9050620015556101208301846200146b565b9b9a5050505050505050505050565b600081519050620015758162000fd4565b92915050565b60006020828403121562001594576200159362000e34565b5b6000620015a48482850162001564565b91505092915050565b60006060820190508181036000830152620015c981866200142a565b9050620015da60208301856200146b565b620015e9604083018462001332565b949350505050565b7f4e487b7100000000000000000000000000000000000000000000000000000000600052603260045260246000fd5b60008115159050919050565b620016378162001620565b81146200164357600080fd5b50565b60008151905062001657816200162c565b92915050565b60006020828403121562001676576200167562000e34565b5b6000620016868482850162001646565b91505092915050565b7f4e487b7100000000000000000000000000000000000000000000000000000000600052601160045260246000fd5b6000620016cb8262001328565b91507fffffffffffffffffffffffffffffffffffffffffffffffffffffffffffffffff82036200170057620016ff6200168f565b5b600182019050919050565b60006020820190506200172260008301846200146b565b92915050565b7f6f6666736574206f7574206f6620626f756e6473000000000000000000000000600082015250565b600062001760601483620013e3565b91506200176d8262001728565b602082019050919050565b60006020820190508181036000830152620017938162001751565b9050919050565b6000620017a78262001328565b9150620017b48362001328565b925082821015620017ca57620017c96200168f565b5b828203905092915050565b6000620017e28262001328565b9150620017ef8362001328565b9250827fffffffffffffffffffffffffffffffffffffffffffffffffffffffffffffffff038211156200182757620018266200168f565b5b82820190509291505056fe60806040523480156200001157600080fd5b50604051620020cd380380620020cd83398181016040528101906200003791906200053f565b336000806101000a81548173ffffffffffffffffffffffffffffffffffffffff021916908373ffffffffffffffffffffffffffffffffffffffff16021790555089600190805190602001906200008f9291906200028d565b508860029080519060200190620000a89291906200028d565b5087600360006101000a81548173ffffffffffffffffffffffffffffffffffffffff021916908373ffffffffffffffffffffffffffffffffffffffff1602179055508660049080519060200190620001029291906200028d565b5085600590805190602001906200011b9291906200028d565b508460069080519060200190620001349291906200028d565b5083600790805190602001906200014d9291906200028d565b508260089080519060200190620001669291906200028d565b5081600990805190602001906200017f9291906200028d565b506200019181620001a160201b60201c565b5050505050505050505062000814565b3373ffffffffffffffffffffffffffffffffffffffff16620001c86200026460201b60201c565b73ffffffffffffffffffffffffffffffffffffffff161462000221576040517f08c379a000000000000000000000000000000000000000000000000000000000815260040162000218906200078e565b60405180910390fd5b806000806101000a81548173ffffffffffffffffffffffffffffffffffffffff021916908373ffffffffffffffffffffffffffffffffffffffff16021790555050565b60008060009054906101000a900473ffffffffffffffffffffffffffffffffffffffff16905090565b8280546200029b90620007df565b90600052602060002090601f016020900481019282620002bf57600085556200030b565b82601f10620002da57805160ff19168380011785556200030b565b828001600101855582156200030b579182015b828111156200030a578251825591602001919060010190620002ed565b5b5090506200031a91906200031e565b5090565b5b80821115620003395760008160009055506001016200031f565b5090565b6000604051905090565b600080fd5b600080fd5b600080fd5b600080fd5b6000601f19601f8301169050919050565b7f4e487b7100000000000000000000000000000000000000000000000000000000600052604160045260246000fd5b620003a6826200035b565b810181811067ffffffffffffffff82111715620003c857620003c76200036c565b5b80604052505050565b6000620003dd6200033d565b9050620003eb82826200039b565b919050565b600067ffffffffffffffff8211156200040e576200040d6200036c565b5b62000419826200035b565b9050602081019050919050565b60005b838110156200044657808201518184015260208101905062000429565b8381111562000456576000848401525b50505050565b6000620004736200046d84620003f0565b620003d1565b90508281526020810184848401111562000492576200049162000356565b5b6200049f84828562000426565b509392505050565b600082601f830112620004bf57620004be62000351565b5b8151620004d18482602086016200045c565b91505092915050565b600073ffffffffffffffffffffffffffffffffffffffff82169050919050565b60006200050782620004da565b9050919050565b6200051981620004fa565b81146200052557600080fd5b50565b60008151905062000539816200050e565b92915050565b6000806000806000806000806000806101408b8d03121562000566576200056562000347565b5b60008b015167ffffffffffffffff8111156200058757620005866200034c565b5b620005958d828e01620004a7565b9a505060208b015167ffffffffffffffff811115620005b957620005b86200034c565b5b620005c78d828e01620004a7565b9950506040620005da8d828e0162000528565b98505060608b015167ffffffffffffffff811115620005fe57620005fd6200034c565b5b6200060c8d828e01620004a7565b97505060808b015167ffffffffffffffff81111562000630576200062f6200034c565b5b6200063e8d828e01620004a7565b96505060a08b015167ffffffffffffffff8111156200066257620006616200034c565b5b620006708d828e01620004a7565b95505060c08b015167ffffffffffffffff8111156200069457620006936200034c565b5b620006a28d828e01620004a7565b94505060e08b015167ffffffffffffffff811115620006c657620006c56200034c565b5b620006d48d828e01620004a7565b9350506101008b015167ffffffffffffffff811115620006f957620006f86200034c565b5b620007078d828e01620004a7565b9250506101206200071b8d828e0162000528565b9150509295989b9194979a5092959850565b600082825260208201905092915050565b7f746865206775657374206e6f7420616c6c6f7765642e00000000000000000000600082015250565b6000620007766016836200072d565b915062000783826200073e565b602082019050919050565b60006020820190508181036000830152620007a98162000767565b9050919050565b7f4e487b7100000000000000000000000000000000000000000000000000000000600052602260045260246000fd5b60006002820490506001821680620007f857607f821691505b6020821081036200080e576200080d620007b0565b5b50919050565b6118a980620008246000396000f3fe608060405234801561001057600080fd5b50600436106101005760003560e01c8063a6c3e6b911610097578063c2bb515f11610066578063c2bb515f14610269578063d29d44ee14610289578063db74db41146102a5578063e7d931e4146102d557610100565b8063a6c3e6b9146101f3578063b46f0af214610211578063b6f3f14d1461022d578063b9e3e2db1461024b57610100565b80637284e416116100d35780637284e4161461017b5780638c72c54e146101995780638da5cb5b146101b757806397781f02146101d557610100565b806340078519146101055780634a79d50c14610121578063542a233f1461013f5780636929b85d1461015d575b600080fd5b61011f600480360381019061011a919061129c565b6102f3565b005b6101296104eb565b604051610136919061136d565b60405180910390f35b610147610579565b60405161015491906113d0565b60405180910390f35b61016561059f565b604051610172919061136d565b60405180910390f35b61018361062d565b604051610190919061136d565b60405180910390f35b6101a16106bb565b6040516101ae919061136d565b60405180910390f35b6101bf610749565b6040516101cc91906113d0565b60405180910390f35b6101dd610772565b6040516101ea9190611406565b60405180910390f35b6101fb6107ce565b604051610208919061136d565b60405180910390f35b61022b6004803603810190610226919061129c565b61085c565b005b610235610ac9565b604051610242919061136d565b60405180910390f35b610253610bd0565b604051610260919061136d565b60405180910390f35b610271610c5e565b60405161028093929190611421565b60405180910390f35b6102a3600480360381019061029e9190611492565b610ebc565b005b6102bf60048036038101906102ba9190611492565b610f74565b6040516102cc9190611406565b60405180910390f35b6102dd610fd1565b6040516102ea919061136d565b60405180910390f35b3373ffffffffffffffffffffffffffffffffffffffff16610312610749565b73ffffffffffffffffffffffffffffffffffffffff1614610368576040517f08c379a000000000000000000000000000000000000000000000000000000000815260040161035f9061150b565b60405180910390fd5b600073ffffffffffffffffffffffffffffffffffffffff16600a60000160009054906101000a900473ffffffffffffffffffffffffffffffffffffffff1673ffffffffffffffffffffffffffffffffffffffff16036103fc576040517f08c379a00000000000000000000000000000000000000000000000000000000081526004016103f390611577565b60405180910390fd5b806009908051906020019061041292919061105f565b50610441600a60000160009054906101000a900473ffffffffffffffffffffffffffffffffffffffff16610ebc565b7f05ed72fb067c347f6105353bae5a89a2a6007f55cc0cca8d3ae682196e55344433600a60000160009054906101000a900473ffffffffffffffffffffffffffffffffffffffff1660014260405161049c94939291906116a5565b60405180910390a1600a600080820160006101000a81549073ffffffffffffffffffffffffffffffffffffffff02191690556001820160006104de91906110e5565b6002820160009055505050565b600180546104f8906115c6565b80601f0160208091040260200160405190810160405280929190818152602001828054610524906115c6565b80156105715780601f1061054657610100808354040283529160200191610571565b820191906000526020600020905b81548152906001019060200180831161055457829003601f168201915b505050505081565b600360009054906101000a900473ffffffffffffffffffffffffffffffffffffffff1681565b600680546105ac906115c6565b80601f01602080910402602001604051908101604052809291908181526020018280546105d8906115c6565b80156106255780601f106105fa57610100808354040283529160200191610625565b820191906000526020600020905b81548152906001019060200180831161060857829003601f168201915b505050505081565b6008805461063a906115c6565b80601f0160208091040260200160405190810160405280929190818152602001828054610666906115c6565b80156106b35780601f10610688576101008083540402835291602001916106b3565b820191906000526020600020905b81548152906001019060200180831161069657829003601f168201915b505050505081565b600480546106c8906115c6565b80601f01602080910402602001604051908101604052809291908181526020018280546106f4906115c6565b80156107415780601f1061071657610100808354040283529160200191610741565b820191906000526020600020905b81548152906001019060200180831161072457829003601f168201915b505050505081565b60008060009054906101000a900473ffffffffffffffffffffffffffffffffffffffff16905090565b60008073ffffffffffffffffffffffffffffffffffffffff16600a60000160009054906101000a900473ffffffffffffffffffffffffffffffffffffffff1673ffffffffffffffffffffffffffffffffffffffff161415905090565b600280546107db906115c6565b80601f0160208091040260200160405190810160405280929190818152602001828054610807906115c6565b80156108545780601f1061082957610100808354040283529160200191610854565b820191906000526020600020905b81548152906001019060200180831161083757829003601f168201915b505050505081565b3373ffffffffffffffffffffffffffffffffffffffff1661087b610749565b73ffffffffffffffffffffffffffffffffffffffff16036108d1576040517f08c379a00000000000000000000000000000000000000000000000000000000081526004016108c89061173d565b60405180910390fd5b3373ffffffffffffffffffffffffffffffffffffffff16600a60000160009054906101000a900473ffffffffffffffffffffffffffffffffffffffff1673ffffffffffffffffffffffffffffffffffffffff1603610964576040517f08c379a000000000000000000000000000000000000000000000000000000000815260040161095b906117a9565b60405180910390fd5b600073ffffffffffffffffffffffffffffffffffffffff16600a60000160009054906101000a900473ffffffffffffffffffffffffffffffffffffffff1673ffffffffffffffffffffffffffffffffffffffff16146109f8576040517f08c379a00000000000000000000000000000000000000000000000000000000081526004016109ef90611815565b60405180910390fd5b33600a60000160006101000a81548173ffffffffffffffffffffffffffffffffffffffff021916908373ffffffffffffffffffffffffffffffffffffffff16021790555080600a6001019080519060200190610a5592919061105f565b5042600a600201819055507f129f67783f1fc54762392a484603d038c3007571edd583280de130581c11f1c2600a60000160009054906101000a900473ffffffffffffffffffffffffffffffffffffffff166001600a60020154604051610abe93929190611835565b60405180910390a150565b60603373ffffffffffffffffffffffffffffffffffffffff16610aea610749565b73ffffffffffffffffffffffffffffffffffffffff1614610b40576040517f08c379a0000000000000000000000000000000000000000000000000000000008152600401610b379061150b565b60405180910390fd5b60098054610b4d906115c6565b80601f0160208091040260200160405190810160405280929190818152602001828054610b79906115c6565b8015610bc65780601f10610b9b57610100808354040283529160200191610bc6565b820191906000526020600020905b815481529060010190602001808311610ba957829003601f168201915b5050505050905090565b60058054610bdd906115c6565b80601f0160208091040260200160405190810160405280929190818152602001828054610c09906115c6565b8015610c565780601f10610c2b57610100808354040283529160200191610c56565b820191906000526020600020905b815481529060010190602001808311610c3957829003601f168201915b505050505081565b60006060803373ffffffffffffffffffffffffffffffffffffffff16610c82610749565b73ffffffffffffffffffffffffffffffffffffffff1614610cd8576040517f08c379a0000000000000000000000000000000000000000000000000000000008152600401610ccf9061150b565b60405180910390fd5b600073ffffffffffffffffffffffffffffffffffffffff16600a60000160009054906101000a900473ffffffffffffffffffffffffffffffffffffffff1673ffffffffffffffffffffffffffffffffffffffff1603610d6c576040517f08c379a0000000000000000000000000000000000000000000000000000000008152600401610d6390611577565b60405180910390fd5b600a60000160009054906101000a900473ffffffffffffffffffffffffffffffffffffffff16600a6001016009818054610da5906115c6565b80601f0160208091040260200160405190810160405280929190818152602001828054610dd1906115c6565b8015610e1e5780601f10610df357610100808354040283529160200191610e1e565b820191906000526020600020905b815481529060010190602001808311610e0157829003601f168201915b50505050509150808054610e31906115c6565b80601f0160208091040260200160405190810160405280929190818152602001828054610e5d906115c6565b8015610eaa5780601f10610e7f57610100808354040283529160200191610eaa565b820191906000526020600020905b815481529060010190602001808311610e8d57829003601f168201915b50505050509050925092509250909192565b3373ffffffffffffffffffffffffffffffffffffffff16610edb610749565b73ffffffffffffffffffffffffffffffffffffffff1614610f31576040517f08c379a0000000000000000000000000000000000000000000000000000000008152600401610f289061150b565b60405180910390fd5b806000806101000a81548173ffffffffffffffffffffffffffffffffffffffff021916908373ffffffffffffffffffffffffffffffffffffffff16021790555050565b60008173ffffffffffffffffffffffffffffffffffffffff16600a60000160009054906101000a900473ffffffffffffffffffffffffffffffffffffffff1673ffffffffffffffffffffffffffffffffffffffff16149050919050565b60078054610fde906115c6565b80601f016020809104026020016040519081016040528092919081815260200182805461100a906115c6565b80156110575780601f1061102c57610100808354040283529160200191611057565b820191906000526020600020905b81548152906001019060200180831161103a57829003601f168201915b505050505081565b82805461106b906115c6565b90600052602060002090601f01602090048101928261108d57600085556110d4565b82601f106110a657805160ff19168380011785556110d4565b828001600101855582156110d4579182015b828111156110d35782518255916020019190600101906110b8565b5b5090506110e19190611125565b5090565b5080546110f1906115c6565b6000825580601f106111035750611122565b601f0160209004906000526020600020908101906111219190611125565b5b50565b5b8082111561113e576000816000905550600101611126565b5090565b6000604051905090565b600080fd5b600080fd5b600080fd5b600080fd5b6000601f19601f8301169050919050565b7f4e487b7100000000000000000000000000000000000000000000000000000000600052604160045260246000fd5b6111a982611160565b810181811067ffffffffffffffff821117156111c8576111c7611171565b5b80604052505050565b60006111db611142565b90506111e782826111a0565b919050565b600067ffffffffffffffff82111561120757611206611171565b5b61121082611160565b9050602081019050919050565b82818337600083830152505050565b600061123f61123a846111ec565b6111d1565b90508281526020810184848401111561125b5761125a61115b565b5b61126684828561121d565b509392505050565b600082601f83011261128357611282611156565b5b813561129384826020860161122c565b91505092915050565b6000602082840312156112b2576112b161114c565b5b600082013567ffffffffffffffff8111156112d0576112cf611151565b5b6112dc8482850161126e565b91505092915050565b600081519050919050565b600082825260208201905092915050565b60005b8381101561131f578082015181840152602081019050611304565b8381111561132e576000848401525b50505050565b600061133f826112e5565b61134981856112f0565b9350611359818560208601611301565b61136281611160565b840191505092915050565b600060208201905081810360008301526113878184611334565b905092915050565b600073ffffffffffffffffffffffffffffffffffffffff82169050919050565b60006113ba8261138f565b9050919050565b6113ca816113af565b82525050565b60006020820190506113e560008301846113c1565b92915050565b60008115159050919050565b611400816113eb565b82525050565b600060208201905061141b60008301846113f7565b92915050565b600060608201905061143660008301866113c1565b81810360208301526114488185611334565b9050818103604083015261145c8184611334565b9050949350505050565b61146f816113af565b811461147a57600080fd5b50565b60008135905061148c81611466565b92915050565b6000602082840312156114a8576114a761114c565b5b60006114b68482850161147d565b91505092915050565b7f746865206775657374206e6f7420616c6c6f7765642e00000000000000000000600082015250565b60006114f56016836112f0565b9150611500826114bf565b602082019050919050565b60006020820190508181036000830152611524816114e8565b9050919050565b7f7468652072657175657374206973206e6f7420617661696c61626c6500000000600082015250565b6000611561601c836112f0565b915061156c8261152b565b602082019050919050565b6000602082019050818103600083015261159081611554565b9050919050565b7f4e487b7100000000000000000000000000000000000000000000000000000000600052602260045260246000fd5b600060028204905060018216806115de57607f821691505b6020821081036115f1576115f0611597565b5b50919050565b60008190508160005260206000209050919050565b60008154611619816115c6565b61162381866112f0565b9450600182166000811461163e576001811461165057611683565b60ff1983168652602086019350611683565b611659856115f7565b60005b8381101561167b5781548189015260018201915060208101905061165c565b808801955050505b50505092915050565b6000819050919050565b61169f8161168c565b82525050565b60006080820190506116ba60008301876113c1565b6116c760208301866113c1565b81810360408301526116d9818561160c565b90506116e86060830184611696565b95945050505050565b7f746865206f776e6572206e6f7420616c6c6f7765640000000000000000000000600082015250565b60006117276015836112f0565b9150611732826116f1565b602082019050919050565b600060208201905081810360008301526117568161171a565b9050919050565b7f796f752072657175657374656400000000000000000000000000000000000000600082015250565b6000611793600d836112f0565b915061179e8261175d565b602082019050919050565b600060208201905081810360008301526117c281611786565b9050919050565b7f74686520626f6f6b207265717565737465640000000000000000000000000000600082015250565b60006117ff6012836112f0565b915061180a826117c9565b602082019050919050565b6000602082019050818103600083015261182e816117f2565b9050919050565b600060608201905061184a60008301866113c1565b818103602083015261185c818561160c565b905061186b6040830184611696565b94935050505056fea2646970667358221220634afb5cc20123a5c62cbd7b0f3d77e19e248eda220a2b67526425b7f9eea9bb64736f6c634300080e0033a2646970667358221220b09c34112f34ed7c470390581d39f678c25fcc97909ebc7f719af02e140612ce64736f6c634300080e0033",
  "immutableReferences": {},
  "source": "// SPDX-License-Identifier: MIT\npragma solidity >=0.8.0 <0.9.0;\n\nimport \"./Book.sol\";\n\ncontract BookFactory {\n    //for public info\n    Book[] private _books;\n\n    event BookCreated(string title, address owner, uint256 date);\n\n    function createBook(\n        string memory _title,\n        string memory _author,\n        address _author_account,\n        string memory _publisher,\n        string memory _releaseDate,\n        string memory _isbn,\n        string memory _cover,\n        string memory _description,\n        string memory _documentHash\n    ) public {\n        Book book = new Book(\n            _title,\n            _author,\n            _author_account,\n            _publisher,\n            _releaseDate,\n            _isbn,\n            _cover,\n            _description,\n            _documentHash,\n            msg.sender\n        );\n\n        _books.push(book);\n\n        emit BookCreated(_title, book.owner(), block.timestamp);\n    }\n\n    function bookCount() external view returns (uint256) {\n        return _books.length;\n    }\n\n    function books(uint256 _limit, uint256 _offset)\n        public\n        view\n        returns (Book[] memory collections)\n    {\n        require(_offset <= _books.length, \"offset out of bounds\");\n        uint256 maxlimit = 20;\n        uint256 size = _books.length - _offset;\n        size = size < _limit ? size : _limit;\n        size = size < maxlimit ? size : maxlimit;\n\n        collections = new Book[](size);\n\n        for (uint256 i = 0; i < size; i++) {\n            collections[i] = _books[_offset + i];\n        }\n\n        return collections;\n    }\n\n    function myBooks() external view returns (Book[] memory collections) {\n        uint256 size = 0;\n        for (uint256 i = 0; i < _books.length; i++) {\n            Book pub = _books[i];\n            if (pub.owner() == msg.sender) size++;\n        }\n\n        if (size > 0) {\n            collections = new Book[](size);\n            uint256 collectIndex = 0;\n            for (uint256 i = 0; i < _books.length; i++) {\n                Book pub = _books[i];\n                if (pub.owner() == msg.sender) {\n                    collections[collectIndex] = pub;\n                    collectIndex++;\n                }\n            }\n        }\n\n        return collections;\n    }\n\n    function myRequests() external view returns (Book[] memory collections) {\n        uint256 size = 0;\n        for (uint256 i = 0; i < _books.length; i++) {\n            Book pub = _books[i];\n            if (pub.isMyRequest(msg.sender)) size++;\n        }\n\n        if (size > 0) {\n            uint256 collectIndex = 0;\n            collections = new Book[](size);\n            for (uint256 i = 0; i < _books.length; i++) {\n                Book pub = _books[i];\n                if (pub.isMyRequest(msg.sender)) {\n                    collections[collectIndex] = pub;\n                    collectIndex++;\n                }\n            }\n        }\n\n        return collections;\n    }\n\n    function myRequestedBooks()\n        external\n        view\n        returns (Book[] memory collections)\n    {\n        uint256 size = 0;\n        for (uint256 i = 0; i < _books.length; i++) {\n            Book pub = _books[i];\n            if (pub.owner() == msg.sender && pub.isRequested()) size++;\n        }\n\n        if (size > 0) {\n            uint256 collectIndex = 0;\n            collections = new Book[](size);\n            for (uint256 i = 0; i < _books.length; i++) {\n                Book pub = _books[i];\n                if (pub.owner() == msg.sender && pub.isRequested()) {\n                    collections[collectIndex] = pub;\n                    collectIndex++;\n                }\n            }\n        }\n\n        return collections;\n    }\n}\n",
  "sourcePath": "/Users/jee/Studies/projects/blockchain/drmchain-dapp/application/truffle/contracts/BookFactory.sol",
  "compiler": {
    "name": "solc",
    "version": "0.8.14+commit.80d49f37.Emscripten.clang"
  },
  "schemaVersion": "3.4.10",
  "updatedAt": "2023-01-10T02:26:19.594Z",
  "networkType": "ethereum",
  "devdoc": {
    "kind": "dev",
    "methods": {},
    "version": 1
  },
  "userdoc": {
    "kind": "user",
    "methods": {},
    "version": 1
  }
}