{
  "contractName": "Book",
  "abi": [
    {
      "inputs": [
        {
          "internalType": "string",
          "name": "_title",
          "type": "string"
        },
        {
          "internalType": "string",
          "name": "_author",
          "type": "string"
        },
        {
          "internalType": "address",
          "name": "_author_account",
          "type": "address"
        },
        {
          "internalType": "string",
          "name": "_publisher",
          "type": "string"
        },
        {
          "internalType": "string",
          "name": "_releaseDate",
          "type": "string"
        },
        {
          "internalType": "string",
          "name": "_isbn",
          "type": "string"
        },
        {
          "internalType": "string",
          "name": "_cover",
          "type": "string"
        },
        {
          "internalType": "string",
          "name": "_description",
          "type": "string"
        },
        {
          "internalType": "string",
          "name": "_hashDocument",
          "type": "string"
        },
        {
          "internalType": "address",
          "name": "_owner",
          "type": "address"
        }
      ],
      "stateMutability": "nonpayable",
      "type": "constructor"
    },
    {
      "anonymous": false,
      "inputs": [
        {
          "indexed": false,
          "internalType": "address",
          "name": "from",
          "type": "address"
        },
        {
          "indexed": false,
          "internalType": "address",
          "name": "to",
          "type": "address"
        },
        {
          "indexed": false,
          "internalType": "string",
          "name": "title",
          "type": "string"
        },
        {
          "indexed": false,
          "internalType": "uint256",
          "name": "date",
          "type": "uint256"
        }
      ],
      "name": "RequestAccepted",
      "type": "event"
    },
    {
      "anonymous": false,
      "inputs": [
        {
          "indexed": false,
          "internalType": "address",
          "name": "customer",
          "type": "address"
        },
        {
          "indexed": false,
          "internalType": "string",
          "name": "title",
          "type": "string"
        },
        {
          "indexed": false,
          "internalType": "uint256",
          "name": "date",
          "type": "uint256"
        }
      ],
      "name": "Requested",
      "type": "event"
    },
    {
      "inputs": [
        {
          "internalType": "address",
          "name": "newOwner",
          "type": "address"
        }
      ],
      "name": "_transferOwnership",
      "outputs": [],
      "stateMutability": "nonpayable",
      "type": "function"
    },
    {
      "inputs": [],
      "name": "author",
      "outputs": [
        {
          "internalType": "string",
          "name": "",
          "type": "string"
        }
      ],
      "stateMutability": "view",
      "type": "function"
    },
    {
      "inputs": [],
      "name": "author_account",
      "outputs": [
        {
          "internalType": "address",
          "name": "",
          "type": "address"
        }
      ],
      "stateMutability": "view",
      "type": "function"
    },
    {
      "inputs": [],
      "name": "cover",
      "outputs": [
        {
          "internalType": "string",
          "name": "",
          "type": "string"
        }
      ],
      "stateMutability": "view",
      "type": "function"
    },
    {
      "inputs": [],
      "name": "description",
      "outputs": [
        {
          "internalType": "string",
          "name": "",
          "type": "string"
        }
      ],
      "stateMutability": "view",
      "type": "function"
    },
    {
      "inputs": [],
      "name": "isbn",
      "outputs": [
        {
          "internalType": "string",
          "name": "",
          "type": "string"
        }
      ],
      "stateMutability": "view",
      "type": "function"
    },
    {
      "inputs": [],
      "name": "owner",
      "outputs": [
        {
          "internalType": "address",
          "name": "",
          "type": "address"
        }
      ],
      "stateMutability": "view",
      "type": "function"
    },
    {
      "inputs": [],
      "name": "publisher",
      "outputs": [
        {
          "internalType": "string",
          "name": "",
          "type": "string"
        }
      ],
      "stateMutability": "view",
      "type": "function"
    },
    {
      "inputs": [],
      "name": "releaseDate",
      "outputs": [
        {
          "internalType": "string",
          "name": "",
          "type": "string"
        }
      ],
      "stateMutability": "view",
      "type": "function"
    },
    {
      "inputs": [],
      "name": "title",
      "outputs": [
        {
          "internalType": "string",
          "name": "",
          "type": "string"
        }
      ],
      "stateMutability": "view",
      "type": "function"
    },
    {
      "inputs": [],
      "name": "getDocument",
      "outputs": [
        {
          "internalType": "string",
          "name": "",
          "type": "string"
        }
      ],
      "stateMutability": "view",
      "type": "function"
    },
    {
      "inputs": [
        {
          "internalType": "string",
          "name": "_customerPublicKey",
          "type": "string"
        }
      ],
      "name": "requestOwner",
      "outputs": [],
      "stateMutability": "nonpayable",
      "type": "function"
    },
    {
      "inputs": [],
      "name": "getRequest",
      "outputs": [
        {
          "internalType": "address",
          "name": "",
          "type": "address"
        },
        {
          "internalType": "string",
          "name": "",
          "type": "string"
        },
        {
          "internalType": "string",
          "name": "",
          "type": "string"
        }
      ],
      "stateMutability": "view",
      "type": "function"
    },
    {
      "inputs": [
        {
          "internalType": "address",
          "name": "customer",
          "type": "address"
        }
      ],
      "name": "isMyRequest",
      "outputs": [
        {
          "internalType": "bool",
          "name": "",
          "type": "bool"
        }
      ],
      "stateMutability": "view",
      "type": "function"
    },
    {
      "inputs": [],
      "name": "isRequested",
      "outputs": [
        {
          "internalType": "bool",
          "name": "",
          "type": "bool"
        }
      ],
      "stateMutability": "view",
      "type": "function"
    },
    {
      "inputs": [
        {
          "internalType": "string",
          "name": "_documentHash",
          "type": "string"
        }
      ],
      "name": "acceptRequest",
      "outputs": [],
      "stateMutability": "nonpayable",
      "type": "function"
    }
  ],
  "bytecode": "0x60806040523480156200001157600080fd5b50604051620020cd380380620020cd83398181016040528101906200003791906200053f565b336000806101000a81548173ffffffffffffffffffffffffffffffffffffffff021916908373ffffffffffffffffffffffffffffffffffffffff16021790555089600190805190602001906200008f9291906200028d565b508860029080519060200190620000a89291906200028d565b5087600360006101000a81548173ffffffffffffffffffffffffffffffffffffffff021916908373ffffffffffffffffffffffffffffffffffffffff1602179055508660049080519060200190620001029291906200028d565b5085600590805190602001906200011b9291906200028d565b508460069080519060200190620001349291906200028d565b5083600790805190602001906200014d9291906200028d565b508260089080519060200190620001669291906200028d565b5081600990805190602001906200017f9291906200028d565b506200019181620001a160201b60201c565b5050505050505050505062000814565b3373ffffffffffffffffffffffffffffffffffffffff16620001c86200026460201b60201c565b73ffffffffffffffffffffffffffffffffffffffff161462000221576040517f08c379a000000000000000000000000000000000000000000000000000000000815260040162000218906200078e565b60405180910390fd5b806000806101000a81548173ffffffffffffffffffffffffffffffffffffffff021916908373ffffffffffffffffffffffffffffffffffffffff16021790555050565b60008060009054906101000a900473ffffffffffffffffffffffffffffffffffffffff16905090565b8280546200029b90620007df565b90600052602060002090601f016020900481019282620002bf57600085556200030b565b82601f10620002da57805160ff19168380011785556200030b565b828001600101855582156200030b579182015b828111156200030a578251825591602001919060010190620002ed565b5b5090506200031a91906200031e565b5090565b5b80821115620003395760008160009055506001016200031f565b5090565b6000604051905090565b600080fd5b600080fd5b600080fd5b600080fd5b6000601f19601f8301169050919050565b7f4e487b7100000000000000000000000000000000000000000000000000000000600052604160045260246000fd5b620003a6826200035b565b810181811067ffffffffffffffff82111715620003c857620003c76200036c565b5b80604052505050565b6000620003dd6200033d565b9050620003eb82826200039b565b919050565b600067ffffffffffffffff8211156200040e576200040d6200036c565b5b62000419826200035b565b9050602081019050919050565b60005b838110156200044657808201518184015260208101905062000429565b8381111562000456576000848401525b50505050565b6000620004736200046d84620003f0565b620003d1565b90508281526020810184848401111562000492576200049162000356565b5b6200049f84828562000426565b509392505050565b600082601f830112620004bf57620004be62000351565b5b8151620004d18482602086016200045c565b91505092915050565b600073ffffffffffffffffffffffffffffffffffffffff82169050919050565b60006200050782620004da565b9050919050565b6200051981620004fa565b81146200052557600080fd5b50565b60008151905062000539816200050e565b92915050565b6000806000806000806000806000806101408b8d03121562000566576200056562000347565b5b60008b015167ffffffffffffffff8111156200058757620005866200034c565b5b620005958d828e01620004a7565b9a505060208b015167ffffffffffffffff811115620005b957620005b86200034c565b5b620005c78d828e01620004a7565b9950506040620005da8d828e0162000528565b98505060608b015167ffffffffffffffff811115620005fe57620005fd6200034c565b5b6200060c8d828e01620004a7565b97505060808b015167ffffffffffffffff81111562000630576200062f6200034c565b5b6200063e8d828e01620004a7565b96505060a08b015167ffffffffffffffff8111156200066257620006616200034c565b5b620006708d828e01620004a7565b95505060c08b015167ffffffffffffffff8111156200069457620006936200034c565b5b620006a28d828e01620004a7565b94505060e08b015167ffffffffffffffff811115620006c657620006c56200034c565b5b620006d48d828e01620004a7565b9350506101008b015167ffffffffffffffff811115620006f957620006f86200034c565b5b620007078d828e01620004a7565b9250506101206200071b8d828e0162000528565b9150509295989b9194979a5092959850565b600082825260208201905092915050565b7f746865206775657374206e6f7420616c6c6f7765642e00000000000000000000600082015250565b6000620007766016836200072d565b915062000783826200073e565b602082019050919050565b60006020820190508181036000830152620007a98162000767565b9050919050565b7f4e487b7100000000000000000000000000000000000000000000000000000000600052602260045260246000fd5b60006002820490506001821680620007f857607f821691505b6020821081036200080e576200080d620007b0565b5b50919050565b6118a980620008246000396000f3fe608060405234801561001057600080fd5b50600436106101005760003560e01c8063a6c3e6b911610097578063c2bb515f11610066578063c2bb515f14610269578063d29d44ee14610289578063db74db41146102a5578063e7d931e4146102d557610100565b8063a6c3e6b9146101f3578063b46f0af214610211578063b6f3f14d1461022d578063b9e3e2db1461024b57610100565b80637284e416116100d35780637284e4161461017b5780638c72c54e146101995780638da5cb5b146101b757806397781f02146101d557610100565b806340078519146101055780634a79d50c14610121578063542a233f1461013f5780636929b85d1461015d575b600080fd5b61011f600480360381019061011a919061129c565b6102f3565b005b6101296104eb565b604051610136919061136d565b60405180910390f35b610147610579565b60405161015491906113d0565b60405180910390f35b61016561059f565b604051610172919061136d565b60405180910390f35b61018361062d565b604051610190919061136d565b60405180910390f35b6101a16106bb565b6040516101ae919061136d565b60405180910390f35b6101bf610749565b6040516101cc91906113d0565b60405180910390f35b6101dd610772565b6040516101ea9190611406565b60405180910390f35b6101fb6107ce565b604051610208919061136d565b60405180910390f35b61022b6004803603810190610226919061129c565b61085c565b005b610235610ac9565b604051610242919061136d565b60405180910390f35b610253610bd0565b604051610260919061136d565b60405180910390f35b610271610c5e565b60405161028093929190611421565b60405180910390f35b6102a3600480360381019061029e9190611492565b610ebc565b005b6102bf60048036038101906102ba9190611492565b610f74565b6040516102cc9190611406565b60405180910390f35b6102dd610fd1565b6040516102ea919061136d565b60405180910390f35b3373ffffffffffffffffffffffffffffffffffffffff16610312610749565b73ffffffffffffffffffffffffffffffffffffffff1614610368576040517f08c379a000000000000000000000000000000000000000000000000000000000815260040161035f9061150b565b60405180910390fd5b600073ffffffffffffffffffffffffffffffffffffffff16600a60000160009054906101000a900473ffffffffffffffffffffffffffffffffffffffff1673ffffffffffffffffffffffffffffffffffffffff16036103fc576040517f08c379a00000000000000000000000000000000000000000000000000000000081526004016103f390611577565b60405180910390fd5b806009908051906020019061041292919061105f565b50610441600a60000160009054906101000a900473ffffffffffffffffffffffffffffffffffffffff16610ebc565b7f05ed72fb067c347f6105353bae5a89a2a6007f55cc0cca8d3ae682196e55344433600a60000160009054906101000a900473ffffffffffffffffffffffffffffffffffffffff1660014260405161049c94939291906116a5565b60405180910390a1600a600080820160006101000a81549073ffffffffffffffffffffffffffffffffffffffff02191690556001820160006104de91906110e5565b6002820160009055505050565b600180546104f8906115c6565b80601f0160208091040260200160405190810160405280929190818152602001828054610524906115c6565b80156105715780601f1061054657610100808354040283529160200191610571565b820191906000526020600020905b81548152906001019060200180831161055457829003601f168201915b505050505081565b600360009054906101000a900473ffffffffffffffffffffffffffffffffffffffff1681565b600680546105ac906115c6565b80601f01602080910402602001604051908101604052809291908181526020018280546105d8906115c6565b80156106255780601f106105fa57610100808354040283529160200191610625565b820191906000526020600020905b81548152906001019060200180831161060857829003601f168201915b505050505081565b6008805461063a906115c6565b80601f0160208091040260200160405190810160405280929190818152602001828054610666906115c6565b80156106b35780601f10610688576101008083540402835291602001916106b3565b820191906000526020600020905b81548152906001019060200180831161069657829003601f168201915b505050505081565b600480546106c8906115c6565b80601f01602080910402602001604051908101604052809291908181526020018280546106f4906115c6565b80156107415780601f1061071657610100808354040283529160200191610741565b820191906000526020600020905b81548152906001019060200180831161072457829003601f168201915b505050505081565b60008060009054906101000a900473ffffffffffffffffffffffffffffffffffffffff16905090565b60008073ffffffffffffffffffffffffffffffffffffffff16600a60000160009054906101000a900473ffffffffffffffffffffffffffffffffffffffff1673ffffffffffffffffffffffffffffffffffffffff161415905090565b600280546107db906115c6565b80601f0160208091040260200160405190810160405280929190818152602001828054610807906115c6565b80156108545780601f1061082957610100808354040283529160200191610854565b820191906000526020600020905b81548152906001019060200180831161083757829003601f168201915b505050505081565b3373ffffffffffffffffffffffffffffffffffffffff1661087b610749565b73ffffffffffffffffffffffffffffffffffffffff16036108d1576040517f08c379a00000000000000000000000000000000000000000000000000000000081526004016108c89061173d565b60405180910390fd5b3373ffffffffffffffffffffffffffffffffffffffff16600a60000160009054906101000a900473ffffffffffffffffffffffffffffffffffffffff1673ffffffffffffffffffffffffffffffffffffffff1603610964576040517f08c379a000000000000000000000000000000000000000000000000000000000815260040161095b906117a9565b60405180910390fd5b600073ffffffffffffffffffffffffffffffffffffffff16600a60000160009054906101000a900473ffffffffffffffffffffffffffffffffffffffff1673ffffffffffffffffffffffffffffffffffffffff16146109f8576040517f08c379a00000000000000000000000000000000000000000000000000000000081526004016109ef90611815565b60405180910390fd5b33600a60000160006101000a81548173ffffffffffffffffffffffffffffffffffffffff021916908373ffffffffffffffffffffffffffffffffffffffff16021790555080600a6001019080519060200190610a5592919061105f565b5042600a600201819055507f129f67783f1fc54762392a484603d038c3007571edd583280de130581c11f1c2600a60000160009054906101000a900473ffffffffffffffffffffffffffffffffffffffff166001600a60020154604051610abe93929190611835565b60405180910390a150565b60603373ffffffffffffffffffffffffffffffffffffffff16610aea610749565b73ffffffffffffffffffffffffffffffffffffffff1614610b40576040517f08c379a0000000000000000000000000000000000000000000000000000000008152600401610b379061150b565b60405180910390fd5b60098054610b4d906115c6565b80601f0160208091040260200160405190810160405280929190818152602001828054610b79906115c6565b8015610bc65780601f10610b9b57610100808354040283529160200191610bc6565b820191906000526020600020905b815481529060010190602001808311610ba957829003601f168201915b5050505050905090565b60058054610bdd906115c6565b80601f0160208091040260200160405190810160405280929190818152602001828054610c09906115c6565b8015610c565780601f10610c2b57610100808354040283529160200191610c56565b820191906000526020600020905b815481529060010190602001808311610c3957829003601f168201915b505050505081565b60006060803373ffffffffffffffffffffffffffffffffffffffff16610c82610749565b73ffffffffffffffffffffffffffffffffffffffff1614610cd8576040517f08c379a0000000000000000000000000000000000000000000000000000000008152600401610ccf9061150b565b60405180910390fd5b600073ffffffffffffffffffffffffffffffffffffffff16600a60000160009054906101000a900473ffffffffffffffffffffffffffffffffffffffff1673ffffffffffffffffffffffffffffffffffffffff1603610d6c576040517f08c379a0000000000000000000000000000000000000000000000000000000008152600401610d6390611577565b60405180910390fd5b600a60000160009054906101000a900473ffffffffffffffffffffffffffffffffffffffff16600a6001016009818054610da5906115c6565b80601f0160208091040260200160405190810160405280929190818152602001828054610dd1906115c6565b8015610e1e5780601f10610df357610100808354040283529160200191610e1e565b820191906000526020600020905b815481529060010190602001808311610e0157829003601f168201915b50505050509150808054610e31906115c6565b80601f0160208091040260200160405190810160405280929190818152602001828054610e5d906115c6565b8015610eaa5780601f10610e7f57610100808354040283529160200191610eaa565b820191906000526020600020905b815481529060010190602001808311610e8d57829003601f168201915b50505050509050925092509250909192565b3373ffffffffffffffffffffffffffffffffffffffff16610edb610749565b73ffffffffffffffffffffffffffffffffffffffff1614610f31576040517f08c379a0000000000000000000000000000000000000000000000000000000008152600401610f289061150b565b60405180910390fd5b806000806101000a81548173ffffffffffffffffffffffffffffffffffffffff021916908373ffffffffffffffffffffffffffffffffffffffff16021790555050565b60008173ffffffffffffffffffffffffffffffffffffffff16600a60000160009054906101000a900473ffffffffffffffffffffffffffffffffffffffff1673ffffffffffffffffffffffffffffffffffffffff16149050919050565b60078054610fde906115c6565b80601f016020809104026020016040519081016040528092919081815260200182805461100a906115c6565b80156110575780601f1061102c57610100808354040283529160200191611057565b820191906000526020600020905b81548152906001019060200180831161103a57829003601f168201915b505050505081565b82805461106b906115c6565b90600052602060002090601f01602090048101928261108d57600085556110d4565b82601f106110a657805160ff19168380011785556110d4565b828001600101855582156110d4579182015b828111156110d35782518255916020019190600101906110b8565b5b5090506110e19190611125565b5090565b5080546110f1906115c6565b6000825580601f106111035750611122565b601f0160209004906000526020600020908101906111219190611125565b5b50565b5b8082111561113e576000816000905550600101611126565b5090565b6000604051905090565b600080fd5b600080fd5b600080fd5b600080fd5b6000601f19601f8301169050919050565b7f4e487b7100000000000000000000000000000000000000000000000000000000600052604160045260246000fd5b6111a982611160565b810181811067ffffffffffffffff821117156111c8576111c7611171565b5b80604052505050565b60006111db611142565b90506111e782826111a0565b919050565b600067ffffffffffffffff82111561120757611206611171565b5b61121082611160565b9050602081019050919050565b82818337600083830152505050565b600061123f61123a846111ec565b6111d1565b90508281526020810184848401111561125b5761125a61115b565b5b61126684828561121d565b509392505050565b600082601f83011261128357611282611156565b5b813561129384826020860161122c565b91505092915050565b6000602082840312156112b2576112b161114c565b5b600082013567ffffffffffffffff8111156112d0576112cf611151565b5b6112dc8482850161126e565b91505092915050565b600081519050919050565b600082825260208201905092915050565b60005b8381101561131f578082015181840152602081019050611304565b8381111561132e576000848401525b50505050565b600061133f826112e5565b61134981856112f0565b9350611359818560208601611301565b61136281611160565b840191505092915050565b600060208201905081810360008301526113878184611334565b905092915050565b600073ffffffffffffffffffffffffffffffffffffffff82169050919050565b60006113ba8261138f565b9050919050565b6113ca816113af565b82525050565b60006020820190506113e560008301846113c1565b92915050565b60008115159050919050565b611400816113eb565b82525050565b600060208201905061141b60008301846113f7565b92915050565b600060608201905061143660008301866113c1565b81810360208301526114488185611334565b9050818103604083015261145c8184611334565b9050949350505050565b61146f816113af565b811461147a57600080fd5b50565b60008135905061148c81611466565b92915050565b6000602082840312156114a8576114a761114c565b5b60006114b68482850161147d565b91505092915050565b7f746865206775657374206e6f7420616c6c6f7765642e00000000000000000000600082015250565b60006114f56016836112f0565b9150611500826114bf565b602082019050919050565b60006020820190508181036000830152611524816114e8565b9050919050565b7f7468652072657175657374206973206e6f7420617661696c61626c6500000000600082015250565b6000611561601c836112f0565b915061156c8261152b565b602082019050919050565b6000602082019050818103600083015261159081611554565b9050919050565b7f4e487b7100000000000000000000000000000000000000000000000000000000600052602260045260246000fd5b600060028204905060018216806115de57607f821691505b6020821081036115f1576115f0611597565b5b50919050565b60008190508160005260206000209050919050565b60008154611619816115c6565b61162381866112f0565b9450600182166000811461163e576001811461165057611683565b60ff1983168652602086019350611683565b611659856115f7565b60005b8381101561167b5781548189015260018201915060208101905061165c565b808801955050505b50505092915050565b6000819050919050565b61169f8161168c565b82525050565b60006080820190506116ba60008301876113c1565b6116c760208301866113c1565b81810360408301526116d9818561160c565b90506116e86060830184611696565b95945050505050565b7f746865206f776e6572206e6f7420616c6c6f7765640000000000000000000000600082015250565b60006117276015836112f0565b9150611732826116f1565b602082019050919050565b600060208201905081810360008301526117568161171a565b9050919050565b7f796f752072657175657374656400000000000000000000000000000000000000600082015250565b6000611793600d836112f0565b915061179e8261175d565b602082019050919050565b600060208201905081810360008301526117c281611786565b9050919050565b7f74686520626f6f6b207265717565737465640000000000000000000000000000600082015250565b60006117ff6012836112f0565b915061180a826117c9565b602082019050919050565b6000602082019050818103600083015261182e816117f2565b9050919050565b600060608201905061184a60008301866113c1565b818103602083015261185c818561160c565b905061186b6040830184611696565b94935050505056fea2646970667358221220634afb5cc20123a5c62cbd7b0f3d77e19e248eda220a2b67526425b7f9eea9bb64736f6c634300080e0033",
  "immutableReferences": {},
  "source": "// SPDX-License-Identifier: MIT\npragma solidity >=0.8.0 <0.9.0;\n\nimport \"./Ownable.sol\";\n\ncontract Book is Ownable {\n    string public title;\n    string public author;\n    address public author_account;\n    string public publisher;\n    string public releaseDate;\n    string public isbn;\n    string public cover;\n    string public description;\n    string private documentHash;\n\n    //customer struct\n    struct Requester {\n        address customer;\n        string publicKey;\n        uint256 date;\n    }\n\n    Requester private _requester;\n\n    event Requested(address customer, string title, uint256 date);\n    event RequestAccepted(address from, address to, string title, uint256 date);\n\n    constructor(\n        string memory _title,\n        string memory _author,\n        address _author_account,\n        string memory _publisher,\n        string memory _releaseDate,\n        string memory _isbn,\n        string memory _cover,\n        string memory _description,\n        string memory _hashDocument,\n        address _owner\n    ) {\n        title = _title;\n        author = _author;\n        author_account = _author_account;\n        publisher = _publisher;\n        releaseDate = _releaseDate;\n        isbn = _isbn;\n        cover = _cover;\n        description = _description;\n        documentHash = _hashDocument;\n\n        //transfer ownership to specific account\n        _transferOwnership(_owner);\n    }\n\n    function getDocument() external view onlyOwner returns (string memory) {\n        return documentHash;\n    }\n\n    function requestOwner(string memory _customerPublicKey) external nonOwner {\n        require(_requester.customer != msg.sender, \"you requested\");\n        require(_requester.customer == address(0x0), \"the book requested\");\n\n        _requester.customer = msg.sender;\n        _requester.publicKey = _customerPublicKey;\n        _requester.date = block.timestamp;\n\n        //emit event\n        emit Requested(_requester.customer, title, _requester.date);\n    }\n\n    function getRequest()\n        external\n        view\n        onlyOwner\n        returns (\n            address,\n            string memory,\n            string memory\n        )\n    {\n        require(\n            _requester.customer != address(0x0),\n            \"the request is not available\"\n        );\n        return (_requester.customer, _requester.publicKey, documentHash);\n    }\n\n    function isMyRequest(address customer) public view returns (bool) {\n        return _requester.customer == customer;\n    }\n\n    function isRequested() public view returns (bool) {\n        return _requester.customer != address(0x00);\n    }\n\n    function acceptRequest(string memory _documentHash) external onlyOwner {\n        require(\n            _requester.customer != address(0x0),\n            \"the request is not available\"\n        );\n\n        documentHash = _documentHash;\n        _transferOwnership(_requester.customer);\n\n        emit RequestAccepted(\n            msg.sender,\n            _requester.customer,\n            title,\n            block.timestamp\n        );\n\n        delete _requester;\n    }\n}\n",
  "sourcePath": "/Users/jee/Studies/projects/blockchain/drmchain-dapp/application/truffle/contracts/Book.sol",
  "compiler": {
    "name": "solc",
    "version": "0.8.14+commit.80d49f37.Emscripten.clang"
  },
  "schemaVersion": "3.4.10",
  "updatedAt": "2023-01-10T02:26:14.781Z",
  "devdoc": {
    "kind": "dev",
    "methods": {},
    "version": 1
  },
  "userdoc": {
    "kind": "user",
    "methods": {},
    "version": 1
  }
}