{
  "contractName": "BookFactory",
  "abi": [
    {
      "anonymous": false,
      "inputs": [
        {
          "indexed": false,
          "internalType": "string",
          "name": "title",
          "type": "string"
        },
        {
          "indexed": false,
          "internalType": "address",
          "name": "owner",
          "type": "address"
        },
        {
          "indexed": false,
          "internalType": "uint256",
          "name": "date",
          "type": "uint256"
        }
      ],
      "name": "BookCreated",
      "type": "event"
    },
    {
      "inputs": [
        {
          "internalType": "string",
          "name": "_title",
          "type": "string"
        },
        {
          "internalType": "string",
          "name": "_author",
          "type": "string"
        },
        {
          "internalType": "address",
          "name": "_author_account",
          "type": "address"
        },
        {
          "internalType": "string",
          "name": "_publisher",
          "type": "string"
        },
        {
          "internalType": "string",
          "name": "_releaseDate",
          "type": "string"
        },
        {
          "internalType": "string",
          "name": "_isbn",
          "type": "string"
        },
        {
          "internalType": "string",
          "name": "_cover",
          "type": "string"
        },
        {
          "internalType": "string",
          "name": "_description",
          "type": "string"
        },
        {
          "internalType": "string",
          "name": "_documentHash",
          "type": "string"
        }
      ],
      "name": "createBook",
      "outputs": [],
      "stateMutability": "nonpayable",
      "type": "function"
    },
    {
      "inputs": [],
      "name": "bookCount",
      "outputs": [
        {
          "internalType": "uint256",
          "name": "",
          "type": "uint256"
        }
      ],
      "stateMutability": "view",
      "type": "function",
      "constant": true
    },
    {
      "inputs": [
        {
          "internalType": "uint256",
          "name": "_limit",
          "type": "uint256"
        },
        {
          "internalType": "uint256",
          "name": "_offset",
          "type": "uint256"
        }
      ],
      "name": "books",
      "outputs": [
        {
          "internalType": "contract Book[]",
          "name": "collections",
          "type": "address[]"
        }
      ],
      "stateMutability": "view",
      "type": "function",
      "constant": true
    },
    {
      "inputs": [],
      "name": "myBooks",
      "outputs": [
        {
          "internalType": "contract Book[]",
          "name": "collections",
          "type": "address[]"
        }
      ],
      "stateMutability": "view",
      "type": "function",
      "constant": true
    },
    {
      "inputs": [],
      "name": "myRequests",
      "outputs": [
        {
          "internalType": "contract Book[]",
          "name": "collections",
          "type": "address[]"
        }
      ],
      "stateMutability": "view",
      "type": "function",
      "constant": true
    },
    {
      "inputs": [],
      "name": "myRequestedBooks",
      "outputs": [
        {
          "internalType": "contract Book[]",
          "name": "collections",
          "type": "address[]"
        }
      ],
      "stateMutability": "view",
      "type": "function",
      "constant": true
    }
  ],
  "bytecode": "0x608060405234801561001057600080fd5b50613903806100206000396000f3fe60806040523480156200001157600080fd5b50600436106200006a5760003560e01c8063071f14d1146200006f5780632c76994c146200008f5780639777b72c14620000b1578063b905ad7814620000d3578063c2eddbbb14620000f5578063c823dbb51462000117575b600080fd5b6200008d600480360381019062000087919062000fac565b6200014d565b005b62000099620002b9565b604051620000a89190620012ab565b60405180910390f35b620000bb62000690565b604051620000ca9190620012ab565b60405180910390f35b620000dd6200092f565b604051620000ec9190620012ea565b60405180910390f35b620000ff6200093b565b6040516200010e9190620012ab565b60405180910390f35b6200013560048036038101906200012f919062001338565b62000c1a565b604051620001449190620012ab565b60405180910390f35b600089898989898989898933604051620001679062000dc3565b6200017c9a9998979695949392919062001423565b604051809103906000f08015801562000199573d6000803e3d6000fd5b5090506000819080600181540180825580915050600190039060005260206000200160009091909190916101000a81548173ffffffffffffffffffffffffffffffffffffffff021916908373ffffffffffffffffffffffffffffffffffffffff1602179055507f2c3d8654c722907d677c4b23bb45791dd5537752c42883afd760f076d69436b48a8273ffffffffffffffffffffffffffffffffffffffff16638da5cb5b6040518163ffffffff1660e01b8152600401602060405180830381865afa1580156200026d573d6000803e3d6000fd5b505050506040513d601f19601f8201168201806040525081019062000293919062001522565b42604051620002a59392919062001554565b60405180910390a150505050505050505050565b60606000805b6000805490508110156200045b576000808281548110620002e557620002e462001598565b5b9060005260206000200160009054906101000a900473ffffffffffffffffffffffffffffffffffffffff1690503373ffffffffffffffffffffffffffffffffffffffff168173ffffffffffffffffffffffffffffffffffffffff16638da5cb5b6040518163ffffffff1660e01b8152600401602060405180830381865afa15801562000375573d6000803e3d6000fd5b505050506040513d601f19601f820116820180604052508101906200039b919062001522565b73ffffffffffffffffffffffffffffffffffffffff161480156200042d57508073ffffffffffffffffffffffffffffffffffffffff166397781f026040518163ffffffff1660e01b8152600401602060405180830381865afa15801562000406573d6000803e3d6000fd5b505050506040513d601f19601f820116820180604052508101906200042c919062001604565b5b1562000444578280620004409062001665565b9350505b508080620004529062001665565b915050620002bf565b508067ffffffffffffffff81111562000479576200047862000e00565b5b604051908082528060200260200182016040528015620004a85781602001602082028036833780820191505090505b50915060005b6000805490508110156200068b576000808281548110620004d457620004d362001598565b5b9060005260206000200160009054906101000a900473ffffffffffffffffffffffffffffffffffffffff1690503373ffffffffffffffffffffffffffffffffffffffff168173ffffffffffffffffffffffffffffffffffffffff16638da5cb5b6040518163ffffffff1660e01b8152600401602060405180830381865afa15801562000564573d6000803e3d6000fd5b505050506040513d601f19601f820116820180604052508101906200058a919062001522565b73ffffffffffffffffffffffffffffffffffffffff161480156200061c57508073ffffffffffffffffffffffffffffffffffffffff166397781f026040518163ffffffff1660e01b8152600401602060405180830381865afa158015620005f5573d6000803e3d6000fd5b505050506040513d601f19601f820116820180604052508101906200061b919062001604565b5b1562000674578084838151811062000639576200063862001598565b5b602002602001019073ffffffffffffffffffffffffffffffffffffffff16908173ffffffffffffffffffffffffffffffffffffffff16815250505b508080620006829062001665565b915050620004ae565b505090565b60606000805b60008054905081101562000796576000808281548110620006bc57620006bb62001598565b5b9060005260206000200160009054906101000a900473ffffffffffffffffffffffffffffffffffffffff1690508073ffffffffffffffffffffffffffffffffffffffff1663db74db41336040518263ffffffff1660e01b8152600401620007249190620016b2565b602060405180830381865afa15801562000742573d6000803e3d6000fd5b505050506040513d601f19601f8201168201806040525081019062000768919062001604565b156200077f5782806200077b9062001665565b9350505b5080806200078d9062001665565b91505062000696565b508067ffffffffffffffff811115620007b457620007b362000e00565b5b604051908082528060200260200182016040528015620007e35781602001602082028036833780820191505090505b50915060005b6000805490508110156200092a5760008082815481106200080f576200080e62001598565b5b9060005260206000200160009054906101000a900473ffffffffffffffffffffffffffffffffffffffff1690508073ffffffffffffffffffffffffffffffffffffffff1663db74db41336040518263ffffffff1660e01b8152600401620008779190620016b2565b602060405180830381865afa15801562000895573d6000803e3d6000fd5b505050506040513d601f19601f82011682018060405250810190620008bb919062001604565b15620009135780848381518110620008d857620008d762001598565b5b602002602001019073ffffffffffffffffffffffffffffffffffffffff16908173ffffffffffffffffffffffffffffffffffffffff16815250505b508080620009219062001665565b915050620007e9565b505090565b60008080549050905090565b60606000805b60008054905081101562000a6157600080828154811062000967576200096662001598565b5b9060005260206000200160009054906101000a900473ffffffffffffffffffffffffffffffffffffffff1690503373ffffffffffffffffffffffffffffffffffffffff168173ffffffffffffffffffffffffffffffffffffffff16638da5cb5b6040518163ffffffff1660e01b8152600401602060405180830381865afa158015620009f7573d6000803e3d6000fd5b505050506040513d601f19601f8201168201806040525081019062000a1d919062001522565b73ffffffffffffffffffffffffffffffffffffffff160362000a4a57828062000a469062001665565b9350505b50808062000a589062001665565b91505062000941565b508067ffffffffffffffff81111562000a7f5762000a7e62000e00565b5b60405190808252806020026020018201604052801562000aae5781602001602082028036833780820191505090505b50915060005b60008054905081101562000c1557600080828154811062000ada5762000ad962001598565b5b9060005260206000200160009054906101000a900473ffffffffffffffffffffffffffffffffffffffff1690503373ffffffffffffffffffffffffffffffffffffffff168173ffffffffffffffffffffffffffffffffffffffff16638da5cb5b6040518163ffffffff1660e01b8152600401602060405180830381865afa15801562000b6a573d6000803e3d6000fd5b505050506040513d601f19601f8201168201806040525081019062000b90919062001522565b73ffffffffffffffffffffffffffffffffffffffff160362000bfe578084838151811062000bc35762000bc262001598565b5b602002602001019073ffffffffffffffffffffffffffffffffffffffff16908173ffffffffffffffffffffffffffffffffffffffff16815250505b50808062000c0c9062001665565b91505062000ab4565b505090565b606060008054905082111562000c67576040517f08c379a000000000000000000000000000000000000000000000000000000000815260040162000c5e906200171f565b60405180910390fd5b60006014905060008360008054905062000c82919062001741565b905084811062000c93578462000c95565b805b905081811062000ca6578162000ca8565b805b90508067ffffffffffffffff81111562000cc75762000cc662000e00565b5b60405190808252806020026020018201604052801562000cf65781602001602082028036833780820191505090505b50925060005b8181101562000dba576000818662000d1591906200177c565b8154811062000d295762000d2862001598565b5b9060005260206000200160009054906101000a900473ffffffffffffffffffffffffffffffffffffffff1684828151811062000d6a5762000d6962001598565b5b602002602001019073ffffffffffffffffffffffffffffffffffffffff16908173ffffffffffffffffffffffffffffffffffffffff1681525050808062000db19062001665565b91505062000cfc565b50505092915050565b6120f480620017da83390190565b6000604051905090565b600080fd5b600080fd5b600080fd5b600080fd5b6000601f19601f8301169050919050565b7f4e487b7100000000000000000000000000000000000000000000000000000000600052604160045260246000fd5b62000e3a8262000def565b810181811067ffffffffffffffff8211171562000e5c5762000e5b62000e00565b5b80604052505050565b600062000e7162000dd1565b905062000e7f828262000e2f565b919050565b600067ffffffffffffffff82111562000ea25762000ea162000e00565b5b62000ead8262000def565b9050602081019050919050565b82818337600083830152505050565b600062000ee062000eda8462000e84565b62000e65565b90508281526020810184848401111562000eff5762000efe62000dea565b5b62000f0c84828562000eba565b509392505050565b600082601f83011262000f2c5762000f2b62000de5565b5b813562000f3e84826020860162000ec9565b91505092915050565b600073ffffffffffffffffffffffffffffffffffffffff82169050919050565b600062000f748262000f47565b9050919050565b62000f868162000f67565b811462000f9257600080fd5b50565b60008135905062000fa68162000f7b565b92915050565b60008060008060008060008060006101208a8c03121562000fd25762000fd162000ddb565b5b60008a013567ffffffffffffffff81111562000ff35762000ff262000de0565b5b620010018c828d0162000f14565b99505060208a013567ffffffffffffffff81111562001025576200102462000de0565b5b620010338c828d0162000f14565b9850506040620010468c828d0162000f95565b97505060608a013567ffffffffffffffff8111156200106a576200106962000de0565b5b620010788c828d0162000f14565b96505060808a013567ffffffffffffffff8111156200109c576200109b62000de0565b5b620010aa8c828d0162000f14565b95505060a08a013567ffffffffffffffff811115620010ce57620010cd62000de0565b5b620010dc8c828d0162000f14565b94505060c08a013567ffffffffffffffff8111156200110057620010ff62000de0565b5b6200110e8c828d0162000f14565b93505060e08a013567ffffffffffffffff81111562001132576200113162000de0565b5b620011408c828d0162000f14565b9250506101008a013567ffffffffffffffff81111562001165576200116462000de0565b5b620011738c828d0162000f14565b9150509295985092959850929598565b600081519050919050565b600082825260208201905092915050565b6000819050602082019050919050565b6000819050919050565b6000620011da620011d4620011ce8462000f47565b620011af565b62000f47565b9050919050565b6000620011ee82620011b9565b9050919050565b60006200120282620011e1565b9050919050565b6200121481620011f5565b82525050565b600062001228838362001209565b60208301905092915050565b6000602082019050919050565b60006200124e8262001183565b6200125a81856200118e565b935062001267836200119f565b8060005b838110156200129e5781516200128288826200121a565b97506200128f8362001234565b9250506001810190506200126b565b5085935050505092915050565b60006020820190508181036000830152620012c7818462001241565b905092915050565b6000819050919050565b620012e481620012cf565b82525050565b6000602082019050620013016000830184620012d9565b92915050565b6200131281620012cf565b81146200131e57600080fd5b50565b600081359050620013328162001307565b92915050565b6000806040838503121562001352576200135162000ddb565b5b6000620013628582860162001321565b9250506020620013758582860162001321565b9150509250929050565b600081519050919050565b600082825260208201905092915050565b60005b83811015620013bb5780820151818401526020810190506200139e565b83811115620013cb576000848401525b50505050565b6000620013de826200137f565b620013ea81856200138a565b9350620013fc8185602086016200139b565b620014078162000def565b840191505092915050565b6200141d8162000f67565b82525050565b600061014082019050818103600083015262001440818d620013d1565b9050818103602083015262001456818c620013d1565b905062001467604083018b62001412565b81810360608301526200147b818a620013d1565b90508181036080830152620014918189620013d1565b905081810360a0830152620014a78188620013d1565b905081810360c0830152620014bd8187620013d1565b905081810360e0830152620014d38186620013d1565b9050818103610100830152620014ea8185620013d1565b9050620014fc61012083018462001412565b9b9a5050505050505050505050565b6000815190506200151c8162000f7b565b92915050565b6000602082840312156200153b576200153a62000ddb565b5b60006200154b848285016200150b565b91505092915050565b60006060820190508181036000830152620015708186620013d1565b905062001581602083018562001412565b620015906040830184620012d9565b949350505050565b7f4e487b7100000000000000000000000000000000000000000000000000000000600052603260045260246000fd5b60008115159050919050565b620015de81620015c7565b8114620015ea57600080fd5b50565b600081519050620015fe81620015d3565b92915050565b6000602082840312156200161d576200161c62000ddb565b5b60006200162d84828501620015ed565b91505092915050565b7f4e487b7100000000000000000000000000000000000000000000000000000000600052601160045260246000fd5b60006200167282620012cf565b91507fffffffffffffffffffffffffffffffffffffffffffffffffffffffffffffffff8203620016a757620016a662001636565b5b600182019050919050565b6000602082019050620016c9600083018462001412565b92915050565b7f6f6666736574206f7574206f6620626f756e6473000000000000000000000000600082015250565b6000620017076014836200138a565b91506200171482620016cf565b602082019050919050565b600060208201905081810360008301526200173a81620016f8565b9050919050565b60006200174e82620012cf565b91506200175b83620012cf565b92508282101562001771576200177062001636565b5b828203905092915050565b60006200178982620012cf565b91506200179683620012cf565b9250827fffffffffffffffffffffffffffffffffffffffffffffffffffffffffffffffff03821115620017ce57620017cd62001636565b5b82820190509291505056fe60806040523480156200001157600080fd5b50604051620020f4380380620020f483398181016040528101906200003791906200053f565b336000806101000a81548173ffffffffffffffffffffffffffffffffffffffff021916908373ffffffffffffffffffffffffffffffffffffffff16021790555089600190805190602001906200008f9291906200028d565b508860029080519060200190620000a89291906200028d565b5087600360006101000a81548173ffffffffffffffffffffffffffffffffffffffff021916908373ffffffffffffffffffffffffffffffffffffffff1602179055508660049080519060200190620001029291906200028d565b5085600590805190602001906200011b9291906200028d565b508460069080519060200190620001349291906200028d565b5083600790805190602001906200014d9291906200028d565b508260089080519060200190620001669291906200028d565b5081600990805190602001906200017f9291906200028d565b506200019181620001a160201b60201c565b5050505050505050505062000814565b3373ffffffffffffffffffffffffffffffffffffffff16620001c86200026460201b60201c565b73ffffffffffffffffffffffffffffffffffffffff161462000221576040517f08c379a000000000000000000000000000000000000000000000000000000000815260040162000218906200078e565b60405180910390fd5b806000806101000a81548173ffffffffffffffffffffffffffffffffffffffff021916908373ffffffffffffffffffffffffffffffffffffffff16021790555050565b60008060009054906101000a900473ffffffffffffffffffffffffffffffffffffffff16905090565b8280546200029b90620007df565b90600052602060002090601f016020900481019282620002bf57600085556200030b565b82601f10620002da57805160ff19168380011785556200030b565b828001600101855582156200030b579182015b828111156200030a578251825591602001919060010190620002ed565b5b5090506200031a91906200031e565b5090565b5b80821115620003395760008160009055506001016200031f565b5090565b6000604051905090565b600080fd5b600080fd5b600080fd5b600080fd5b6000601f19601f8301169050919050565b7f4e487b7100000000000000000000000000000000000000000000000000000000600052604160045260246000fd5b620003a6826200035b565b810181811067ffffffffffffffff82111715620003c857620003c76200036c565b5b80604052505050565b6000620003dd6200033d565b9050620003eb82826200039b565b919050565b600067ffffffffffffffff8211156200040e576200040d6200036c565b5b62000419826200035b565b9050602081019050919050565b60005b838110156200044657808201518184015260208101905062000429565b8381111562000456576000848401525b50505050565b6000620004736200046d84620003f0565b620003d1565b90508281526020810184848401111562000492576200049162000356565b5b6200049f84828562000426565b509392505050565b600082601f830112620004bf57620004be62000351565b5b8151620004d18482602086016200045c565b91505092915050565b600073ffffffffffffffffffffffffffffffffffffffff82169050919050565b60006200050782620004da565b9050919050565b6200051981620004fa565b81146200052557600080fd5b50565b60008151905062000539816200050e565b92915050565b6000806000806000806000806000806101408b8d03121562000566576200056562000347565b5b60008b015167ffffffffffffffff8111156200058757620005866200034c565b5b620005958d828e01620004a7565b9a505060208b015167ffffffffffffffff811115620005b957620005b86200034c565b5b620005c78d828e01620004a7565b9950506040620005da8d828e0162000528565b98505060608b015167ffffffffffffffff811115620005fe57620005fd6200034c565b5b6200060c8d828e01620004a7565b97505060808b015167ffffffffffffffff81111562000630576200062f6200034c565b5b6200063e8d828e01620004a7565b96505060a08b015167ffffffffffffffff8111156200066257620006616200034c565b5b620006708d828e01620004a7565b95505060c08b015167ffffffffffffffff8111156200069457620006936200034c565b5b620006a28d828e01620004a7565b94505060e08b015167ffffffffffffffff811115620006c657620006c56200034c565b5b620006d48d828e01620004a7565b9350506101008b015167ffffffffffffffff811115620006f957620006f86200034c565b5b620007078d828e01620004a7565b9250506101206200071b8d828e0162000528565b9150509295989b9194979a5092959850565b600082825260208201905092915050565b7f746865206775657374206e6f7420616c6c6f7765642e00000000000000000000600082015250565b6000620007766016836200072d565b915062000783826200073e565b602082019050919050565b60006020820190508181036000830152620007a98162000767565b9050919050565b7f4e487b7100000000000000000000000000000000000000000000000000000000600052602260045260246000fd5b60006002820490506001821680620007f857607f821691505b6020821081036200080e576200080d620007b0565b5b50919050565b6118d080620008246000396000f3fe608060405234801561001057600080fd5b50600436106101005760003560e01c8063a6c3e6b911610097578063c2bb515f11610066578063c2bb515f14610269578063d29d44ee14610289578063db74db41146102a5578063e7d931e4146102d557610100565b8063a6c3e6b9146101f3578063b46f0af214610211578063b6f3f14d1461022d578063b9e3e2db1461024b57610100565b80637284e416116100d35780637284e4161461017b5780638c72c54e146101995780638da5cb5b146101b757806397781f02146101d557610100565b806340078519146101055780634a79d50c14610121578063542a233f1461013f5780636929b85d1461015d575b600080fd5b61011f600480360381019061011a919061130f565b6102f3565b005b6101296104e9565b60405161013691906113e0565b60405180910390f35b610147610577565b6040516101549190611443565b60405180910390f35b61016561059d565b60405161017291906113e0565b60405180910390f35b61018361062b565b60405161019091906113e0565b60405180910390f35b6101a16106b9565b6040516101ae91906113e0565b60405180910390f35b6101bf610747565b6040516101cc9190611443565b60405180910390f35b6101dd610770565b6040516101ea9190611479565b60405180910390f35b6101fb6107cc565b60405161020891906113e0565b60405180910390f35b61022b6004803603810190610226919061130f565b61085a565b005b610235610ac7565b60405161024291906113e0565b60405180910390f35b610253610bce565b60405161026091906113e0565b60405180910390f35b610271610c5c565b60405161028093929190611494565b60405180910390f35b6102a3600480360381019061029e9190611505565b610eba565b005b6102bf60048036038101906102ba9190611505565b610f72565b6040516102cc9190611479565b60405180910390f35b6102dd611044565b6040516102ea91906113e0565b60405180910390f35b3373ffffffffffffffffffffffffffffffffffffffff16610312610747565b73ffffffffffffffffffffffffffffffffffffffff1614610368576040517f08c379a000000000000000000000000000000000000000000000000000000000815260040161035f9061157e565b60405180910390fd5b600073ffffffffffffffffffffffffffffffffffffffff16600a60000160009054906101000a900473ffffffffffffffffffffffffffffffffffffffff1673ffffffffffffffffffffffffffffffffffffffff16036103fc576040517f08c379a00000000000000000000000000000000000000000000000000000000081526004016103f3906115ea565b60405180910390fd5b80600990805190602001906104129291906110d2565b50610441600a60000160009054906101000a900473ffffffffffffffffffffffffffffffffffffffff16610eba565b7feac7352a6c43aae51b89275a053c14ef2cf07f1856943c50a5f55fb28f4a36c0600a60000160009054906101000a900473ffffffffffffffffffffffffffffffffffffffff1660014260405161049a93929190611718565b60405180910390a1600a600080820160006101000a81549073ffffffffffffffffffffffffffffffffffffffff02191690556001820160006104dc9190611158565b6002820160009055505050565b600180546104f690611639565b80601f016020809104026020016040519081016040528092919081815260200182805461052290611639565b801561056f5780601f106105445761010080835404028352916020019161056f565b820191906000526020600020905b81548152906001019060200180831161055257829003601f168201915b505050505081565b600360009054906101000a900473ffffffffffffffffffffffffffffffffffffffff1681565b600680546105aa90611639565b80601f01602080910402602001604051908101604052809291908181526020018280546105d690611639565b80156106235780601f106105f857610100808354040283529160200191610623565b820191906000526020600020905b81548152906001019060200180831161060657829003601f168201915b505050505081565b6008805461063890611639565b80601f016020809104026020016040519081016040528092919081815260200182805461066490611639565b80156106b15780601f10610686576101008083540402835291602001916106b1565b820191906000526020600020905b81548152906001019060200180831161069457829003601f168201915b505050505081565b600480546106c690611639565b80601f01602080910402602001604051908101604052809291908181526020018280546106f290611639565b801561073f5780601f106107145761010080835404028352916020019161073f565b820191906000526020600020905b81548152906001019060200180831161072257829003601f168201915b505050505081565b60008060009054906101000a900473ffffffffffffffffffffffffffffffffffffffff16905090565b60008073ffffffffffffffffffffffffffffffffffffffff16600a60000160009054906101000a900473ffffffffffffffffffffffffffffffffffffffff1673ffffffffffffffffffffffffffffffffffffffff161415905090565b600280546107d990611639565b80601f016020809104026020016040519081016040528092919081815260200182805461080590611639565b80156108525780601f1061082757610100808354040283529160200191610852565b820191906000526020600020905b81548152906001019060200180831161083557829003601f168201915b505050505081565b3373ffffffffffffffffffffffffffffffffffffffff16610879610747565b73ffffffffffffffffffffffffffffffffffffffff16036108cf576040517f08c379a00000000000000000000000000000000000000000000000000000000081526004016108c6906117a2565b60405180910390fd5b3373ffffffffffffffffffffffffffffffffffffffff16600a60000160009054906101000a900473ffffffffffffffffffffffffffffffffffffffff1673ffffffffffffffffffffffffffffffffffffffff1603610962576040517f08c379a00000000000000000000000000000000000000000000000000000000081526004016109599061180e565b60405180910390fd5b600073ffffffffffffffffffffffffffffffffffffffff16600a60000160009054906101000a900473ffffffffffffffffffffffffffffffffffffffff1673ffffffffffffffffffffffffffffffffffffffff16146109f6576040517f08c379a00000000000000000000000000000000000000000000000000000000081526004016109ed9061187a565b60405180910390fd5b33600a60000160006101000a81548173ffffffffffffffffffffffffffffffffffffffff021916908373ffffffffffffffffffffffffffffffffffffffff16021790555080600a6001019080519060200190610a539291906110d2565b5042600a600201819055507f129f67783f1fc54762392a484603d038c3007571edd583280de130581c11f1c2600a60000160009054906101000a900473ffffffffffffffffffffffffffffffffffffffff166001600a60020154604051610abc93929190611718565b60405180910390a150565b60603373ffffffffffffffffffffffffffffffffffffffff16610ae8610747565b73ffffffffffffffffffffffffffffffffffffffff1614610b3e576040517f08c379a0000000000000000000000000000000000000000000000000000000008152600401610b359061157e565b60405180910390fd5b60098054610b4b90611639565b80601f0160208091040260200160405190810160405280929190818152602001828054610b7790611639565b8015610bc45780601f10610b9957610100808354040283529160200191610bc4565b820191906000526020600020905b815481529060010190602001808311610ba757829003601f168201915b5050505050905090565b60058054610bdb90611639565b80601f0160208091040260200160405190810160405280929190818152602001828054610c0790611639565b8015610c545780601f10610c2957610100808354040283529160200191610c54565b820191906000526020600020905b815481529060010190602001808311610c3757829003601f168201915b505050505081565b60006060803373ffffffffffffffffffffffffffffffffffffffff16610c80610747565b73ffffffffffffffffffffffffffffffffffffffff1614610cd6576040517f08c379a0000000000000000000000000000000000000000000000000000000008152600401610ccd9061157e565b60405180910390fd5b600073ffffffffffffffffffffffffffffffffffffffff16600a60000160009054906101000a900473ffffffffffffffffffffffffffffffffffffffff1673ffffffffffffffffffffffffffffffffffffffff1603610d6a576040517f08c379a0000000000000000000000000000000000000000000000000000000008152600401610d61906115ea565b60405180910390fd5b600a60000160009054906101000a900473ffffffffffffffffffffffffffffffffffffffff16600a6001016009818054610da390611639565b80601f0160208091040260200160405190810160405280929190818152602001828054610dcf90611639565b8015610e1c5780601f10610df157610100808354040283529160200191610e1c565b820191906000526020600020905b815481529060010190602001808311610dff57829003601f168201915b50505050509150808054610e2f90611639565b80601f0160208091040260200160405190810160405280929190818152602001828054610e5b90611639565b8015610ea85780601f10610e7d57610100808354040283529160200191610ea8565b820191906000526020600020905b815481529060010190602001808311610e8b57829003601f168201915b50505050509050925092509250909192565b3373ffffffffffffffffffffffffffffffffffffffff16610ed9610747565b73ffffffffffffffffffffffffffffffffffffffff1614610f2f576040517f08c379a0000000000000000000000000000000000000000000000000000000008152600401610f269061157e565b60405180910390fd5b806000806101000a81548173ffffffffffffffffffffffffffffffffffffffff021916908373ffffffffffffffffffffffffffffffffffffffff16021790555050565b60003373ffffffffffffffffffffffffffffffffffffffff16610f93610747565b73ffffffffffffffffffffffffffffffffffffffff1603610fe9576040517f08c379a0000000000000000000000000000000000000000000000000000000008152600401610fe0906117a2565b60405180910390fd5b8173ffffffffffffffffffffffffffffffffffffffff16600a60000160009054906101000a900473ffffffffffffffffffffffffffffffffffffffff1673ffffffffffffffffffffffffffffffffffffffff16149050919050565b6007805461105190611639565b80601f016020809104026020016040519081016040528092919081815260200182805461107d90611639565b80156110ca5780601f1061109f576101008083540402835291602001916110ca565b820191906000526020600020905b8154815290600101906020018083116110ad57829003601f168201915b505050505081565b8280546110de90611639565b90600052602060002090601f0160209004810192826111005760008555611147565b82601f1061111957805160ff1916838001178555611147565b82800160010185558215611147579182015b8281111561114657825182559160200191906001019061112b565b5b5090506111549190611198565b5090565b50805461116490611639565b6000825580601f106111765750611195565b601f0160209004906000526020600020908101906111949190611198565b5b50565b5b808211156111b1576000816000905550600101611199565b5090565b6000604051905090565b600080fd5b600080fd5b600080fd5b600080fd5b6000601f19601f8301169050919050565b7f4e487b7100000000000000000000000000000000000000000000000000000000600052604160045260246000fd5b61121c826111d3565b810181811067ffffffffffffffff8211171561123b5761123a6111e4565b5b80604052505050565b600061124e6111b5565b905061125a8282611213565b919050565b600067ffffffffffffffff82111561127a576112796111e4565b5b611283826111d3565b9050602081019050919050565b82818337600083830152505050565b60006112b26112ad8461125f565b611244565b9050828152602081018484840111156112ce576112cd6111ce565b5b6112d9848285611290565b509392505050565b600082601f8301126112f6576112f56111c9565b5b813561130684826020860161129f565b91505092915050565b600060208284031215611325576113246111bf565b5b600082013567ffffffffffffffff811115611343576113426111c4565b5b61134f848285016112e1565b91505092915050565b600081519050919050565b600082825260208201905092915050565b60005b83811015611392578082015181840152602081019050611377565b838111156113a1576000848401525b50505050565b60006113b282611358565b6113bc8185611363565b93506113cc818560208601611374565b6113d5816111d3565b840191505092915050565b600060208201905081810360008301526113fa81846113a7565b905092915050565b600073ffffffffffffffffffffffffffffffffffffffff82169050919050565b600061142d82611402565b9050919050565b61143d81611422565b82525050565b60006020820190506114586000830184611434565b92915050565b60008115159050919050565b6114738161145e565b82525050565b600060208201905061148e600083018461146a565b92915050565b60006060820190506114a96000830186611434565b81810360208301526114bb81856113a7565b905081810360408301526114cf81846113a7565b9050949350505050565b6114e281611422565b81146114ed57600080fd5b50565b6000813590506114ff816114d9565b92915050565b60006020828403121561151b5761151a6111bf565b5b6000611529848285016114f0565b91505092915050565b7f746865206775657374206e6f7420616c6c6f7765642e00000000000000000000600082015250565b6000611568601683611363565b915061157382611532565b602082019050919050565b600060208201905081810360008301526115978161155b565b9050919050565b7f7468652072657175657374206973206e6f7420617661696c61626c6500000000600082015250565b60006115d4601c83611363565b91506115df8261159e565b602082019050919050565b60006020820190508181036000830152611603816115c7565b9050919050565b7f4e487b7100000000000000000000000000000000000000000000000000000000600052602260045260246000fd5b6000600282049050600182168061165157607f821691505b6020821081036116645761166361160a565b5b50919050565b60008190508160005260206000209050919050565b6000815461168c81611639565b6116968186611363565b945060018216600081146116b157600181146116c3576116f6565b60ff19831686526020860193506116f6565b6116cc8561166a565b60005b838110156116ee578154818901526001820191506020810190506116cf565b808801955050505b50505092915050565b6000819050919050565b611712816116ff565b82525050565b600060608201905061172d6000830186611434565b818103602083015261173f818561167f565b905061174e6040830184611709565b949350505050565b7f746865206f776e6572206e6f7420616c6c6f7765640000000000000000000000600082015250565b600061178c601583611363565b915061179782611756565b602082019050919050565b600060208201905081810360008301526117bb8161177f565b9050919050565b7f796f752072657175657374656400000000000000000000000000000000000000600082015250565b60006117f8600d83611363565b9150611803826117c2565b602082019050919050565b60006020820190508181036000830152611827816117eb565b9050919050565b7f74686520626f6f6b207265717565737465640000000000000000000000000000600082015250565b6000611864601283611363565b915061186f8261182e565b602082019050919050565b6000602082019050818103600083015261189381611857565b905091905056fea2646970667358221220b5a9c4ba8d6c9dd726d240d5ed7331118fb7913a52c7b3089125d94afa148e9464736f6c634300080e0033a26469706673582212201998af70bbbd14bc0d834f302b222592cda1121d1850c1ff0bc697dacfd5f8f164736f6c634300080e0033",
  "immutableReferences": {},
  "source": "// SPDX-License-Identifier: MIT\npragma solidity >=0.8.0 <0.9.0;\n\nimport \"./Book.sol\";\n\ncontract BookFactory {\n    //for public info\n    Book[] private _books;\n\n    event BookCreated(string title, address owner, uint256 date);\n\n    function createBook(\n        string memory _title,\n        string memory _author,\n        address _author_account,\n        string memory _publisher,\n        string memory _releaseDate,\n        string memory _isbn,\n        string memory _cover,\n        string memory _description,\n        string memory _documentHash\n    ) public {\n        Book book = new Book(\n            _title,\n            _author,\n            _author_account,\n            _publisher,\n            _releaseDate,\n            _isbn,\n            _cover,\n            _description,\n            _documentHash,\n            msg.sender\n        );\n\n        _books.push(book);\n\n        emit BookCreated(_title, book.owner(), block.timestamp);\n    }\n\n    function bookCount() external view returns (uint256) {\n        return _books.length;\n    }\n\n    function books(uint256 _limit, uint256 _offset)\n        public\n        view\n        returns (Book[] memory collections)\n    {\n        require(_offset <= _books.length, \"offset out of bounds\");\n        uint256 maxlimit = 20;\n        uint256 size = _books.length - _offset;\n        size = size < _limit ? size : _limit;\n        size = size < maxlimit ? size : maxlimit;\n\n        collections = new Book[](size);\n\n        for (uint256 i = 0; i < size; i++) {\n            collections[i] = _books[_offset + i];\n        }\n\n        return collections;\n    }\n\n    function myBooks() external view returns (Book[] memory collections) {\n        uint256 size = 0;\n        for (uint256 i = 0; i < _books.length; i++) {\n            Book pub = _books[i];\n            if (pub.owner() == msg.sender) size++;\n        }\n\n        collections = new Book[](size);\n        for (uint256 i = 0; i < _books.length; i++) {\n            Book pub = _books[i];\n            if (pub.owner() == msg.sender) collections[i] = pub;\n        }\n\n        return collections;\n    }\n\n    function myRequests() external view returns (Book[] memory collections) {\n        uint256 size = 0;\n        for (uint256 i = 0; i < _books.length; i++) {\n            Book pub = _books[i];\n            if (pub.isMyRequest(msg.sender)) size++;\n        }\n\n        collections = new Book[](size);\n        for (uint256 i = 0; i < _books.length; i++) {\n            Book pub = _books[i];\n            if (pub.isMyRequest(msg.sender)) collections[i] = pub;\n        }\n\n        return collections;\n    }\n\n    function myRequestedBooks()\n        external\n        view\n        returns (Book[] memory collections)\n    {\n        uint256 size = 0;\n        for (uint256 i = 0; i < _books.length; i++) {\n            Book pub = _books[i];\n            if (pub.owner() == msg.sender && pub.isRequested()) size++;\n        }\n\n        collections = new Book[](size);\n        for (uint256 i = 0; i < _books.length; i++) {\n            Book pub = _books[i];\n            if (pub.owner() == msg.sender && pub.isRequested())\n                collections[i] = pub;\n        }\n\n        return collections;\n    }\n}\n",
  "sourcePath": "/Users/jee/Studies/projects/blockchain/drmchain-dapp/application/truffle/contracts/BookFactory.sol",
  "compiler": {
    "name": "solc",
    "version": "0.8.14+commit.80d49f37.Emscripten.clang"
  },
  "schemaVersion": "3.4.10",
  "updatedAt": "2023-01-05T17:54:49.009Z",
  "networkType": "ethereum",
  "devdoc": {
    "kind": "dev",
    "methods": {},
    "version": 1
  },
  "userdoc": {
    "kind": "user",
    "methods": {},
    "version": 1
  }
}