{
  "contractName": "Book",
  "abi": [
    {
      "anonymous": false,
      "inputs": [
        {
          "indexed": false,
          "internalType": "string",
          "name": "title",
          "type": "string"
        },
        {
          "indexed": false,
          "internalType": "address",
          "name": "owner",
          "type": "address"
        },
        {
          "indexed": false,
          "internalType": "uint256",
          "name": "date",
          "type": "uint256"
        }
      ],
      "name": "BookCreated",
      "type": "event"
    },
    {
      "anonymous": false,
      "inputs": [
        {
          "indexed": false,
          "internalType": "address",
          "name": "from",
          "type": "address"
        },
        {
          "indexed": false,
          "internalType": "address",
          "name": "to",
          "type": "address"
        },
        {
          "indexed": false,
          "internalType": "string",
          "name": "title",
          "type": "string"
        },
        {
          "indexed": false,
          "internalType": "uint256",
          "name": "date",
          "type": "uint256"
        }
      ],
      "name": "RequestAccepted",
      "type": "event"
    },
    {
      "anonymous": false,
      "inputs": [
        {
          "indexed": false,
          "internalType": "address",
          "name": "customer",
          "type": "address"
        },
        {
          "indexed": false,
          "internalType": "string",
          "name": "title",
          "type": "string"
        },
        {
          "indexed": false,
          "internalType": "uint256",
          "name": "date",
          "type": "uint256"
        }
      ],
      "name": "Requested",
      "type": "event"
    },
    {
      "inputs": [
        {
          "internalType": "address",
          "name": "newOwner",
          "type": "address"
        }
      ],
      "name": "_transferOwnership",
      "outputs": [],
      "stateMutability": "nonpayable",
      "type": "function"
    },
    {
      "inputs": [],
      "name": "author",
      "outputs": [
        {
          "internalType": "string",
          "name": "",
          "type": "string"
        }
      ],
      "stateMutability": "view",
      "type": "function",
      "constant": true
    },
    {
      "inputs": [],
      "name": "author_account",
      "outputs": [
        {
          "internalType": "address",
          "name": "",
          "type": "address"
        }
      ],
      "stateMutability": "view",
      "type": "function",
      "constant": true
    },
    {
      "inputs": [],
      "name": "cover",
      "outputs": [
        {
          "internalType": "string",
          "name": "",
          "type": "string"
        }
      ],
      "stateMutability": "view",
      "type": "function",
      "constant": true
    },
    {
      "inputs": [],
      "name": "description",
      "outputs": [
        {
          "internalType": "string",
          "name": "",
          "type": "string"
        }
      ],
      "stateMutability": "view",
      "type": "function",
      "constant": true
    },
    {
      "inputs": [],
      "name": "isbn",
      "outputs": [
        {
          "internalType": "string",
          "name": "",
          "type": "string"
        }
      ],
      "stateMutability": "view",
      "type": "function",
      "constant": true
    },
    {
      "inputs": [],
      "name": "owner",
      "outputs": [
        {
          "internalType": "address",
          "name": "",
          "type": "address"
        }
      ],
      "stateMutability": "view",
      "type": "function",
      "constant": true
    },
    {
      "inputs": [],
      "name": "publisher",
      "outputs": [
        {
          "internalType": "string",
          "name": "",
          "type": "string"
        }
      ],
      "stateMutability": "view",
      "type": "function",
      "constant": true
    },
    {
      "inputs": [],
      "name": "releaseDate",
      "outputs": [
        {
          "internalType": "string",
          "name": "",
          "type": "string"
        }
      ],
      "stateMutability": "view",
      "type": "function",
      "constant": true
    },
    {
      "inputs": [],
      "name": "title",
      "outputs": [
        {
          "internalType": "string",
          "name": "",
          "type": "string"
        }
      ],
      "stateMutability": "view",
      "type": "function",
      "constant": true
    },
    {
      "inputs": [
        {
          "internalType": "string",
          "name": "_title",
          "type": "string"
        },
        {
          "internalType": "string",
          "name": "_author",
          "type": "string"
        },
        {
          "internalType": "address",
          "name": "_author_account",
          "type": "address"
        },
        {
          "internalType": "string",
          "name": "_publisher",
          "type": "string"
        },
        {
          "internalType": "string",
          "name": "_releaseDate",
          "type": "string"
        },
        {
          "internalType": "string",
          "name": "_isbn",
          "type": "string"
        },
        {
          "internalType": "string",
          "name": "_cover",
          "type": "string"
        },
        {
          "internalType": "string",
          "name": "_description",
          "type": "string"
        },
        {
          "internalType": "string",
          "name": "_hashDocument",
          "type": "string"
        },
        {
          "internalType": "address",
          "name": "_owner",
          "type": "address"
        }
      ],
      "name": "create",
      "outputs": [],
      "stateMutability": "payable",
      "type": "function",
      "payable": true
    },
    {
      "inputs": [],
      "name": "getDocument",
      "outputs": [
        {
          "internalType": "string",
          "name": "",
          "type": "string"
        }
      ],
      "stateMutability": "view",
      "type": "function",
      "constant": true
    },
    {
      "inputs": [
        {
          "internalType": "string",
          "name": "_customerPublicKey",
          "type": "string"
        }
      ],
      "name": "requestOwner",
      "outputs": [],
      "stateMutability": "payable",
      "type": "function",
      "payable": true
    },
    {
      "inputs": [],
      "name": "getRequest",
      "outputs": [
        {
          "internalType": "address",
          "name": "",
          "type": "address"
        },
        {
          "internalType": "string",
          "name": "",
          "type": "string"
        },
        {
          "internalType": "string",
          "name": "",
          "type": "string"
        }
      ],
      "stateMutability": "view",
      "type": "function",
      "constant": true
    },
    {
      "inputs": [
        {
          "internalType": "address",
          "name": "customer",
          "type": "address"
        }
      ],
      "name": "isMyRequest",
      "outputs": [
        {
          "internalType": "bool",
          "name": "",
          "type": "bool"
        }
      ],
      "stateMutability": "view",
      "type": "function",
      "constant": true
    },
    {
      "inputs": [],
      "name": "isRequested",
      "outputs": [
        {
          "internalType": "bool",
          "name": "",
          "type": "bool"
        }
      ],
      "stateMutability": "view",
      "type": "function",
      "constant": true
    },
    {
      "inputs": [
        {
          "internalType": "string",
          "name": "_documentHash",
          "type": "string"
        }
      ],
      "name": "acceptRequest",
      "outputs": [],
      "stateMutability": "payable",
      "type": "function",
      "payable": true
    }
  ],
  "bytecode": "0x608060405234801561001057600080fd5b50336000806101000a81548173ffffffffffffffffffffffffffffffffffffffff021916908373ffffffffffffffffffffffffffffffffffffffff160217905550611d58806100606000396000f3fe60806040526004361061011b576000357c010000000000000000000000000000000000000000000000000000000090048063a6c3e6b9116100b2578063c2bb515f11610081578063c2bb515f14610306578063d29d44ee14610333578063db74db411461035c578063e145ad7714610399578063e7d931e4146103b55761011b565b8063a6c3e6b914610269578063b46f0af214610294578063b6f3f14d146102b0578063b9e3e2db146102db5761011b565b80637284e416116100ee5780637284e416146101bd5780638c72c54e146101e85780638da5cb5b1461021357806397781f021461023e5761011b565b806340078519146101205780634a79d50c1461013c578063542a233f146101675780636929b85d14610192575b600080fd5b61013a6004803603810190610135919061154e565b6103e0565b005b34801561014857600080fd5b506101516105d8565b60405161015e919061161f565b60405180910390f35b34801561017357600080fd5b5061017c610666565b6040516101899190611682565b60405180910390f35b34801561019e57600080fd5b506101a761068c565b6040516101b4919061161f565b60405180910390f35b3480156101c957600080fd5b506101d261071a565b6040516101df919061161f565b60405180910390f35b3480156101f457600080fd5b506101fd6107a8565b60405161020a919061161f565b60405180910390f35b34801561021f57600080fd5b50610228610836565b6040516102359190611682565b60405180910390f35b34801561024a57600080fd5b5061025361085f565b60405161026091906116b8565b60405180910390f35b34801561027557600080fd5b5061027e6108bb565b60405161028b919061161f565b60405180910390f35b6102ae60048036038101906102a9919061154e565b610949565b005b3480156102bc57600080fd5b506102c5610bb6565b6040516102d2919061161f565b60405180910390f35b3480156102e757600080fd5b506102f0610cbd565b6040516102fd919061161f565b60405180910390f35b34801561031257600080fd5b5061031b610d4b565b60405161032a939291906116d3565b60405180910390f35b34801561033f57600080fd5b5061035a60048036038101906103559190611744565b610fa9565b005b34801561036857600080fd5b50610383600480360381019061037e9190611744565b611061565b60405161039091906116b8565b60405180910390f35b6103b360048036038101906103ae9190611771565b6110be565b005b3480156103c157600080fd5b506103ca611283565b6040516103d7919061161f565b60405180910390f35b3373ffffffffffffffffffffffffffffffffffffffff166103ff610836565b73ffffffffffffffffffffffffffffffffffffffff1614610455576040517f08c379a000000000000000000000000000000000000000000000000000000000815260040161044c9061197c565b60405180910390fd5b600073ffffffffffffffffffffffffffffffffffffffff16600a60000160009054906101000a900473ffffffffffffffffffffffffffffffffffffffff1673ffffffffffffffffffffffffffffffffffffffff16036104e9576040517f08c379a00000000000000000000000000000000000000000000000000000000081526004016104e0906119e8565b60405180910390fd5b80600990805190602001906104ff929190611311565b5061052e600a60000160009054906101000a900473ffffffffffffffffffffffffffffffffffffffff16610fa9565b7f05ed72fb067c347f6105353bae5a89a2a6007f55cc0cca8d3ae682196e55344433600a60000160009054906101000a900473ffffffffffffffffffffffffffffffffffffffff166001426040516105899493929190611b16565b60405180910390a1600a600080820160006101000a81549073ffffffffffffffffffffffffffffffffffffffff02191690556001820160006105cb9190611397565b6002820160009055505050565b600180546105e590611a37565b80601f016020809104026020016040519081016040528092919081815260200182805461061190611a37565b801561065e5780601f106106335761010080835404028352916020019161065e565b820191906000526020600020905b81548152906001019060200180831161064157829003601f168201915b505050505081565b600360009054906101000a900473ffffffffffffffffffffffffffffffffffffffff1681565b6006805461069990611a37565b80601f01602080910402602001604051908101604052809291908181526020018280546106c590611a37565b80156107125780601f106106e757610100808354040283529160200191610712565b820191906000526020600020905b8154815290600101906020018083116106f557829003601f168201915b505050505081565b6008805461072790611a37565b80601f016020809104026020016040519081016040528092919081815260200182805461075390611a37565b80156107a05780601f10610775576101008083540402835291602001916107a0565b820191906000526020600020905b81548152906001019060200180831161078357829003601f168201915b505050505081565b600480546107b590611a37565b80601f01602080910402602001604051908101604052809291908181526020018280546107e190611a37565b801561082e5780601f106108035761010080835404028352916020019161082e565b820191906000526020600020905b81548152906001019060200180831161081157829003601f168201915b505050505081565b60008060009054906101000a900473ffffffffffffffffffffffffffffffffffffffff16905090565b60008073ffffffffffffffffffffffffffffffffffffffff16600a60000160009054906101000a900473ffffffffffffffffffffffffffffffffffffffff1673ffffffffffffffffffffffffffffffffffffffff161415905090565b600280546108c890611a37565b80601f01602080910402602001604051908101604052809291908181526020018280546108f490611a37565b80156109415780601f1061091657610100808354040283529160200191610941565b820191906000526020600020905b81548152906001019060200180831161092457829003601f168201915b505050505081565b3373ffffffffffffffffffffffffffffffffffffffff16610968610836565b73ffffffffffffffffffffffffffffffffffffffff16036109be576040517f08c379a00000000000000000000000000000000000000000000000000000000081526004016109b590611bae565b60405180910390fd5b3373ffffffffffffffffffffffffffffffffffffffff16600a60000160009054906101000a900473ffffffffffffffffffffffffffffffffffffffff1673ffffffffffffffffffffffffffffffffffffffff1603610a51576040517f08c379a0000000000000000000000000000000000000000000000000000000008152600401610a4890611c1a565b60405180910390fd5b600073ffffffffffffffffffffffffffffffffffffffff16600a60000160009054906101000a900473ffffffffffffffffffffffffffffffffffffffff1673ffffffffffffffffffffffffffffffffffffffff1614610ae5576040517f08c379a0000000000000000000000000000000000000000000000000000000008152600401610adc90611c86565b60405180910390fd5b33600a60000160006101000a81548173ffffffffffffffffffffffffffffffffffffffff021916908373ffffffffffffffffffffffffffffffffffffffff16021790555080600a6001019080519060200190610b42929190611311565b5042600a600201819055507f129f67783f1fc54762392a484603d038c3007571edd583280de130581c11f1c2600a60000160009054906101000a900473ffffffffffffffffffffffffffffffffffffffff166001600a60020154604051610bab93929190611ca6565b60405180910390a150565b60603373ffffffffffffffffffffffffffffffffffffffff16610bd7610836565b73ffffffffffffffffffffffffffffffffffffffff1614610c2d576040517f08c379a0000000000000000000000000000000000000000000000000000000008152600401610c249061197c565b60405180910390fd5b60098054610c3a90611a37565b80601f0160208091040260200160405190810160405280929190818152602001828054610c6690611a37565b8015610cb35780601f10610c8857610100808354040283529160200191610cb3565b820191906000526020600020905b815481529060010190602001808311610c9657829003601f168201915b5050505050905090565b60058054610cca90611a37565b80601f0160208091040260200160405190810160405280929190818152602001828054610cf690611a37565b8015610d435780601f10610d1857610100808354040283529160200191610d43565b820191906000526020600020905b815481529060010190602001808311610d2657829003601f168201915b505050505081565b60006060803373ffffffffffffffffffffffffffffffffffffffff16610d6f610836565b73ffffffffffffffffffffffffffffffffffffffff1614610dc5576040517f08c379a0000000000000000000000000000000000000000000000000000000008152600401610dbc9061197c565b60405180910390fd5b600073ffffffffffffffffffffffffffffffffffffffff16600a60000160009054906101000a900473ffffffffffffffffffffffffffffffffffffffff1673ffffffffffffffffffffffffffffffffffffffff1603610e59576040517f08c379a0000000000000000000000000000000000000000000000000000000008152600401610e50906119e8565b60405180910390fd5b600a60000160009054906101000a900473ffffffffffffffffffffffffffffffffffffffff16600a6001016009818054610e9290611a37565b80601f0160208091040260200160405190810160405280929190818152602001828054610ebe90611a37565b8015610f0b5780601f10610ee057610100808354040283529160200191610f0b565b820191906000526020600020905b815481529060010190602001808311610eee57829003601f168201915b50505050509150808054610f1e90611a37565b80601f0160208091040260200160405190810160405280929190818152602001828054610f4a90611a37565b8015610f975780601f10610f6c57610100808354040283529160200191610f97565b820191906000526020600020905b815481529060010190602001808311610f7a57829003601f168201915b50505050509050925092509250909192565b3373ffffffffffffffffffffffffffffffffffffffff16610fc8610836565b73ffffffffffffffffffffffffffffffffffffffff161461101e576040517f08c379a00000000000000000000000000000000000000000000000000000000081526004016110159061197c565b60405180910390fd5b806000806101000a81548173ffffffffffffffffffffffffffffffffffffffff021916908373ffffffffffffffffffffffffffffffffffffffff16021790555050565b60008173ffffffffffffffffffffffffffffffffffffffff16600a60000160009054906101000a900473ffffffffffffffffffffffffffffffffffffffff1673ffffffffffffffffffffffffffffffffffffffff16149050919050565b3373ffffffffffffffffffffffffffffffffffffffff166110dd610836565b73ffffffffffffffffffffffffffffffffffffffff1614611133576040517f08c379a000000000000000000000000000000000000000000000000000000000815260040161112a9061197c565b60405180910390fd5b8960019080519060200190611149929190611311565b508860029080519060200190611160929190611311565b5087600360006101000a81548173ffffffffffffffffffffffffffffffffffffffff021916908373ffffffffffffffffffffffffffffffffffffffff16021790555086600490805190602001906111b8929190611311565b5085600590805190602001906111cf929190611311565b5084600690805190602001906111e6929190611311565b5083600790805190602001906111fd929190611311565b508260089080519060200190611214929190611311565b50816009908051906020019061122b929190611311565b5061123581610fa9565b7f2c3d8654c722907d677c4b23bb45791dd5537752c42883afd760f076d69436b48a61125f610836565b4260405161126f93929190611ce4565b60405180910390a150505050505050505050565b6007805461129090611a37565b80601f01602080910402602001604051908101604052809291908181526020018280546112bc90611a37565b80156113095780601f106112de57610100808354040283529160200191611309565b820191906000526020600020905b8154815290600101906020018083116112ec57829003601f168201915b505050505081565b82805461131d90611a37565b90600052602060002090601f01602090048101928261133f5760008555611386565b82601f1061135857805160ff1916838001178555611386565b82800160010185558215611386579182015b8281111561138557825182559160200191906001019061136a565b5b50905061139391906113d7565b5090565b5080546113a390611a37565b6000825580601f106113b557506113d4565b601f0160209004906000526020600020908101906113d391906113d7565b5b50565b5b808211156113f05760008160009055506001016113d8565b5090565b6000604051905090565b600080fd5b600080fd5b600080fd5b600080fd5b6000601f19601f8301169050919050565b7f4e487b7100000000000000000000000000000000000000000000000000000000600052604160045260246000fd5b61145b82611412565b810181811067ffffffffffffffff8211171561147a57611479611423565b5b80604052505050565b600061148d6113f4565b90506114998282611452565b919050565b600067ffffffffffffffff8211156114b9576114b8611423565b5b6114c282611412565b9050602081019050919050565b82818337600083830152505050565b60006114f16114ec8461149e565b611483565b90508281526020810184848401111561150d5761150c61140d565b5b6115188482856114cf565b509392505050565b600082601f83011261153557611534611408565b5b81356115458482602086016114de565b91505092915050565b600060208284031215611564576115636113fe565b5b600082013567ffffffffffffffff81111561158257611581611403565b5b61158e84828501611520565b91505092915050565b600081519050919050565b600082825260208201905092915050565b60005b838110156115d15780820151818401526020810190506115b6565b838111156115e0576000848401525b50505050565b60006115f182611597565b6115fb81856115a2565b935061160b8185602086016115b3565b61161481611412565b840191505092915050565b6000602082019050818103600083015261163981846115e6565b905092915050565b600073ffffffffffffffffffffffffffffffffffffffff82169050919050565b600061166c82611641565b9050919050565b61167c81611661565b82525050565b60006020820190506116976000830184611673565b92915050565b60008115159050919050565b6116b28161169d565b82525050565b60006020820190506116cd60008301846116a9565b92915050565b60006060820190506116e86000830186611673565b81810360208301526116fa81856115e6565b9050818103604083015261170e81846115e6565b9050949350505050565b61172181611661565b811461172c57600080fd5b50565b60008135905061173e81611718565b92915050565b60006020828403121561175a576117596113fe565b5b60006117688482850161172f565b91505092915050565b6000806000806000806000806000806101408b8d031215611795576117946113fe565b5b60008b013567ffffffffffffffff8111156117b3576117b2611403565b5b6117bf8d828e01611520565b9a505060208b013567ffffffffffffffff8111156117e0576117df611403565b5b6117ec8d828e01611520565b99505060406117fd8d828e0161172f565b98505060608b013567ffffffffffffffff81111561181e5761181d611403565b5b61182a8d828e01611520565b97505060808b013567ffffffffffffffff81111561184b5761184a611403565b5b6118578d828e01611520565b96505060a08b013567ffffffffffffffff81111561187857611877611403565b5b6118848d828e01611520565b95505060c08b013567ffffffffffffffff8111156118a5576118a4611403565b5b6118b18d828e01611520565b94505060e08b013567ffffffffffffffff8111156118d2576118d1611403565b5b6118de8d828e01611520565b9350506101008b013567ffffffffffffffff811115611900576118ff611403565b5b61190c8d828e01611520565b92505061012061191e8d828e0161172f565b9150509295989b9194979a5092959850565b7f746865206775657374206e6f7420616c6c6f7765642e00000000000000000000600082015250565b60006119666016836115a2565b915061197182611930565b602082019050919050565b6000602082019050818103600083015261199581611959565b9050919050565b7f7468652072657175657374206973206e6f7420617661696c61626c6500000000600082015250565b60006119d2601c836115a2565b91506119dd8261199c565b602082019050919050565b60006020820190508181036000830152611a01816119c5565b9050919050565b7f4e487b7100000000000000000000000000000000000000000000000000000000600052602260045260246000fd5b60006002820490506001821680611a4f57607f821691505b602082108103611a6257611a61611a08565b5b50919050565b60008190508160005260206000209050919050565b60008154611a8a81611a37565b611a9481866115a2565b94506001821660008114611aaf5760018114611ac157611af4565b60ff1983168652602086019350611af4565b611aca85611a68565b60005b83811015611aec57815481890152600182019150602081019050611acd565b808801955050505b50505092915050565b6000819050919050565b611b1081611afd565b82525050565b6000608082019050611b2b6000830187611673565b611b386020830186611673565b8181036040830152611b4a8185611a7d565b9050611b596060830184611b07565b95945050505050565b7f746865206f776e6572206e6f7420616c6c6f7765640000000000000000000000600082015250565b6000611b986015836115a2565b9150611ba382611b62565b602082019050919050565b60006020820190508181036000830152611bc781611b8b565b9050919050565b7f796f752072657175657374656400000000000000000000000000000000000000600082015250565b6000611c04600d836115a2565b9150611c0f82611bce565b602082019050919050565b60006020820190508181036000830152611c3381611bf7565b9050919050565b7f74686520626f6f6b207265717565737465640000000000000000000000000000600082015250565b6000611c706012836115a2565b9150611c7b82611c3a565b602082019050919050565b60006020820190508181036000830152611c9f81611c63565b9050919050565b6000606082019050611cbb6000830186611673565b8181036020830152611ccd8185611a7d565b9050611cdc6040830184611b07565b949350505050565b60006060820190508181036000830152611cfe81866115e6565b9050611d0d6020830185611673565b611d1a6040830184611b07565b94935050505056fea264697066735822122045c87b8edba90317200bb1e253a941fb61affcdd0b6036e1975f5884964978af64736f6c634300080e0033",
  "immutableReferences": {},
  "source": "// SPDX-License-Identifier: MIT\npragma solidity >=0.8.0 <0.9.0;\n\nimport \"./Ownable.sol\";\n\ncontract BookFactory {\n    //for public info\n    Book[] private _books;\n\n    function createBook(\n        string memory _title,\n        string memory _author,\n        address _author_account,\n        string memory _publisher,\n        string memory _releaseDate,\n        string memory _isbn,\n        string memory _cover,\n        string memory _description,\n        string memory _documentHash\n    ) public {\n        Book book = new Book();\n        book.create(\n            _title,\n            _author,\n            _author_account,\n            _publisher,\n            _releaseDate,\n            _isbn,\n            _cover,\n            _description,\n            _documentHash,\n            msg.sender\n        );\n\n        _books.push(book);\n    }\n\n    function books(uint256 _limit, uint256 _offset)\n        public\n        view\n        returns (Book[] memory collections)\n    {\n        require(_offset <= _books.length, \"offset out of bounds\");\n        uint256 maxlimit = 20;\n        uint256 size = _books.length - _offset;\n        size = size < _limit ? size : _limit;\n        size = size < maxlimit ? size : maxlimit;\n\n        collections = new Book[](size);\n\n        for (uint256 i = 0; i < size; i++) {\n            collections[i] = _books[_offset + i];\n        }\n\n        return collections;\n    }\n\n    function myBooks() external view returns (Book[] memory collections) {\n        uint256 size = 0;\n        for (uint256 i = 0; i < _books.length; i++) {\n            Book pub = _books[i];\n            if (pub.owner() == msg.sender) size++;\n        }\n\n        if (size > 0) {\n            collections = new Book[](size);\n            uint256 collectIndex = 0;\n            for (uint256 i = 0; i < _books.length; i++) {\n                Book pub = _books[i];\n                if (pub.owner() == msg.sender) {\n                    collections[collectIndex] = pub;\n                    collectIndex++;\n                }\n            }\n        }\n\n        return collections;\n    }\n\n    function myRequests() external view returns (Book[] memory collections) {\n        uint256 size = 0;\n        for (uint256 i = 0; i < _books.length; i++) {\n            Book pub = _books[i];\n            if (pub.isMyRequest(msg.sender)) size++;\n        }\n\n        if (size > 0) {\n            uint256 collectIndex = 0;\n            collections = new Book[](size);\n            for (uint256 i = 0; i < _books.length; i++) {\n                Book pub = _books[i];\n                if (pub.isMyRequest(msg.sender)) {\n                    collections[collectIndex] = pub;\n                    collectIndex++;\n                }\n            }\n        }\n\n        return collections;\n    }\n\n    function myRequestedBooks()\n        external\n        view\n        returns (Book[] memory collections)\n    {\n        uint256 size = 0;\n        for (uint256 i = 0; i < _books.length; i++) {\n            Book pub = _books[i];\n            if (pub.owner() == msg.sender && pub.isRequested()) size++;\n        }\n\n        if (size > 0) {\n            uint256 collectIndex = 0;\n            collections = new Book[](size);\n            for (uint256 i = 0; i < _books.length; i++) {\n                Book pub = _books[i];\n                if (pub.owner() == msg.sender && pub.isRequested()) {\n                    collections[collectIndex] = pub;\n                    collectIndex++;\n                }\n            }\n        }\n\n        return collections;\n    }\n}\n\ncontract Book is Ownable {\n    string public title;\n    string public author;\n    address public author_account;\n    string public publisher;\n    string public releaseDate;\n    string public isbn;\n    string public cover;\n    string public description;\n    string private documentHash;\n\n    //customer struct\n    struct Requester {\n        address customer;\n        string publicKey;\n        uint256 date;\n    }\n\n    Requester private _requester;\n\n    event BookCreated(string title, address owner, uint256 date);\n    event Requested(address customer, string title, uint256 date);\n    event RequestAccepted(address from, address to, string title, uint256 date);\n\n    function create(\n        string memory _title,\n        string memory _author,\n        address _author_account,\n        string memory _publisher,\n        string memory _releaseDate,\n        string memory _isbn,\n        string memory _cover,\n        string memory _description,\n        string memory _hashDocument,\n        address _owner\n    ) public payable onlyOwner {\n        title = _title;\n        author = _author;\n        author_account = _author_account;\n        publisher = _publisher;\n        releaseDate = _releaseDate;\n        isbn = _isbn;\n        cover = _cover;\n        description = _description;\n        documentHash = _hashDocument;\n\n        _transferOwnership(_owner);\n\n        emit BookCreated(_title, owner(), block.timestamp);\n    }\n\n    function getDocument() external view onlyOwner returns (string memory) {\n        return documentHash;\n    }\n\n    function requestOwner(string memory _customerPublicKey)\n        external\n        payable\n        nonOwner\n    {\n        require(_requester.customer != msg.sender, \"you requested\");\n        require(_requester.customer == address(0x0), \"the book requested\");\n\n        _requester.customer = msg.sender;\n        _requester.publicKey = _customerPublicKey;\n        _requester.date = block.timestamp;\n\n        //emit event\n        emit Requested(_requester.customer, title, _requester.date);\n    }\n\n    function getRequest()\n        external\n        view\n        onlyOwner\n        returns (\n            address,\n            string memory,\n            string memory\n        )\n    {\n        require(\n            _requester.customer != address(0x0),\n            \"the request is not available\"\n        );\n        return (_requester.customer, _requester.publicKey, documentHash);\n    }\n\n    function isMyRequest(address customer) public view returns (bool) {\n        return _requester.customer == customer;\n    }\n\n    function isRequested() public view returns (bool) {\n        return _requester.customer != address(0x00);\n    }\n\n    function acceptRequest(string memory _documentHash)\n        external\n        payable\n        onlyOwner\n    {\n        require(\n            _requester.customer != address(0x0),\n            \"the request is not available\"\n        );\n\n        documentHash = _documentHash;\n        _transferOwnership(_requester.customer);\n\n        emit RequestAccepted(\n            msg.sender,\n            _requester.customer,\n            title,\n            block.timestamp\n        );\n\n        delete _requester;\n    }\n}\n",
  "sourcePath": "/Users/jee/Studies/projects/blockchain/drmchain-dapp/application/truffle/contracts/BookFactory.sol",
  "compiler": {
    "name": "solc",
    "version": "0.8.14+commit.80d49f37.Emscripten.clang"
  },
  "schemaVersion": "3.4.10",
  "updatedAt": "2023-01-10T15:30:26.345Z",
  "networkType": "ethereum",
  "devdoc": {
    "kind": "dev",
    "methods": {},
    "version": 1
  },
  "userdoc": {
    "kind": "user",
    "methods": {},
    "version": 1
  }
}