{
  "contractName": "BookFactory",
  "abi": [
    {
      "anonymous": false,
      "inputs": [
        {
          "indexed": false,
          "internalType": "string",
          "name": "title",
          "type": "string"
        },
        {
          "indexed": false,
          "internalType": "address",
          "name": "owner",
          "type": "address"
        },
        {
          "indexed": false,
          "internalType": "uint256",
          "name": "date",
          "type": "uint256"
        }
      ],
      "name": "BookCreated",
      "type": "event"
    },
    {
      "inputs": [
        {
          "internalType": "string",
          "name": "_title",
          "type": "string"
        },
        {
          "internalType": "string",
          "name": "_author",
          "type": "string"
        },
        {
          "internalType": "address",
          "name": "_author_account",
          "type": "address"
        },
        {
          "internalType": "string",
          "name": "_publisher",
          "type": "string"
        },
        {
          "internalType": "string",
          "name": "_releaseDate",
          "type": "string"
        },
        {
          "internalType": "string",
          "name": "_isbn",
          "type": "string"
        },
        {
          "internalType": "string",
          "name": "_cover",
          "type": "string"
        },
        {
          "internalType": "string",
          "name": "_description",
          "type": "string"
        },
        {
          "internalType": "string",
          "name": "_documentHash",
          "type": "string"
        }
      ],
      "name": "createBook",
      "outputs": [],
      "stateMutability": "nonpayable",
      "type": "function"
    },
    {
      "inputs": [],
      "name": "bookCount",
      "outputs": [
        {
          "internalType": "uint256",
          "name": "",
          "type": "uint256"
        }
      ],
      "stateMutability": "view",
      "type": "function",
      "constant": true
    },
    {
      "inputs": [
        {
          "internalType": "uint256",
          "name": "_limit",
          "type": "uint256"
        },
        {
          "internalType": "uint256",
          "name": "_offset",
          "type": "uint256"
        }
      ],
      "name": "books",
      "outputs": [
        {
          "internalType": "contract Book[]",
          "name": "collections",
          "type": "address[]"
        }
      ],
      "stateMutability": "view",
      "type": "function",
      "constant": true
    },
    {
      "inputs": [],
      "name": "myBooks",
      "outputs": [
        {
          "internalType": "contract Book[]",
          "name": "collections",
          "type": "address[]"
        }
      ],
      "stateMutability": "view",
      "type": "function",
      "constant": true
    },
    {
      "inputs": [],
      "name": "myRequests",
      "outputs": [
        {
          "internalType": "contract Book[]",
          "name": "collections",
          "type": "address[]"
        }
      ],
      "stateMutability": "view",
      "type": "function",
      "constant": true
    }
  ],
  "bytecode": "0x608060405234801561001057600080fd5b50613479806100206000396000f3fe60806040523480156200001157600080fd5b50600436106200005e5760003560e01c8063071f14d114620000635780639777b72c1462000083578063b905ad7814620000a5578063c2eddbbb14620000c7578063c823dbb514620000e9575b600080fd5b6200008160048036038101906200007b919062000ba7565b6200011f565b005b6200008d6200028b565b6040516200009c919062000ea6565b60405180910390f35b620000af6200052a565b604051620000be919062000ee5565b60405180910390f35b620000d162000536565b604051620000e0919062000ea6565b60405180910390f35b62000107600480360381019062000101919062000f33565b62000815565b60405162000116919062000ea6565b60405180910390f35b6000898989898989898989336040516200013990620009be565b6200014e9a999897969594939291906200101e565b604051809103906000f0801580156200016b573d6000803e3d6000fd5b5090506000819080600181540180825580915050600190039060005260206000200160009091909190916101000a81548173ffffffffffffffffffffffffffffffffffffffff021916908373ffffffffffffffffffffffffffffffffffffffff1602179055507f2c3d8654c722907d677c4b23bb45791dd5537752c42883afd760f076d69436b48a8273ffffffffffffffffffffffffffffffffffffffff16638da5cb5b6040518163ffffffff1660e01b8152600401602060405180830381865afa1580156200023f573d6000803e3d6000fd5b505050506040513d601f19601f820116820180604052508101906200026591906200111d565b4260405162000277939291906200114f565b60405180910390a150505050505050505050565b60606000805b60008054905081101562000391576000808281548110620002b757620002b662001193565b5b9060005260206000200160009054906101000a900473ffffffffffffffffffffffffffffffffffffffff1690508073ffffffffffffffffffffffffffffffffffffffff1663db74db41336040518263ffffffff1660e01b81526004016200031f9190620011c2565b602060405180830381865afa1580156200033d573d6000803e3d6000fd5b505050506040513d601f19601f820116820180604052508101906200036391906200121c565b156200037a57828062000376906200127d565b9350505b50808062000388906200127d565b91505062000291565b508067ffffffffffffffff811115620003af57620003ae620009fb565b5b604051908082528060200260200182016040528015620003de5781602001602082028036833780820191505090505b50915060005b600080549050811015620005255760008082815481106200040a576200040962001193565b5b9060005260206000200160009054906101000a900473ffffffffffffffffffffffffffffffffffffffff1690508073ffffffffffffffffffffffffffffffffffffffff1663db74db41336040518263ffffffff1660e01b8152600401620004729190620011c2565b602060405180830381865afa15801562000490573d6000803e3d6000fd5b505050506040513d601f19601f82011682018060405250810190620004b691906200121c565b156200050e5780848381518110620004d357620004d262001193565b5b602002602001019073ffffffffffffffffffffffffffffffffffffffff16908173ffffffffffffffffffffffffffffffffffffffff16815250505b5080806200051c906200127d565b915050620003e4565b505090565b60008080549050905090565b60606000805b6000805490508110156200065c57600080828154811062000562576200056162001193565b5b9060005260206000200160009054906101000a900473ffffffffffffffffffffffffffffffffffffffff1690503373ffffffffffffffffffffffffffffffffffffffff168173ffffffffffffffffffffffffffffffffffffffff16638da5cb5b6040518163ffffffff1660e01b8152600401602060405180830381865afa158015620005f2573d6000803e3d6000fd5b505050506040513d601f19601f820116820180604052508101906200061891906200111d565b73ffffffffffffffffffffffffffffffffffffffff16036200064557828062000641906200127d565b9350505b50808062000653906200127d565b9150506200053c565b508067ffffffffffffffff8111156200067a5762000679620009fb565b5b604051908082528060200260200182016040528015620006a95781602001602082028036833780820191505090505b50915060005b60008054905081101562000810576000808281548110620006d557620006d462001193565b5b9060005260206000200160009054906101000a900473ffffffffffffffffffffffffffffffffffffffff1690503373ffffffffffffffffffffffffffffffffffffffff168173ffffffffffffffffffffffffffffffffffffffff16638da5cb5b6040518163ffffffff1660e01b8152600401602060405180830381865afa15801562000765573d6000803e3d6000fd5b505050506040513d601f19601f820116820180604052508101906200078b91906200111d565b73ffffffffffffffffffffffffffffffffffffffff1603620007f95780848381518110620007be57620007bd62001193565b5b602002602001019073ffffffffffffffffffffffffffffffffffffffff16908173ffffffffffffffffffffffffffffffffffffffff16815250505b50808062000807906200127d565b915050620006af565b505090565b606060008054905082111562000862576040517f08c379a000000000000000000000000000000000000000000000000000000000815260040162000859906200131a565b60405180910390fd5b6000601490506000836000805490506200087d91906200133c565b90508481106200088e578462000890565b805b9050818110620008a15781620008a3565b805b90508067ffffffffffffffff811115620008c257620008c1620009fb565b5b604051908082528060200260200182016040528015620008f15781602001602082028036833780820191505090505b50925060005b81811015620009b5576000818662000910919062001377565b8154811062000924576200092362001193565b5b9060005260206000200160009054906101000a900473ffffffffffffffffffffffffffffffffffffffff1684828151811062000965576200096462001193565b5b602002602001019073ffffffffffffffffffffffffffffffffffffffff16908173ffffffffffffffffffffffffffffffffffffffff16815250508080620009ac906200127d565b915050620008f7565b50505092915050565b61206f80620013d583390190565b6000604051905090565b600080fd5b600080fd5b600080fd5b600080fd5b6000601f19601f8301169050919050565b7f4e487b7100000000000000000000000000000000000000000000000000000000600052604160045260246000fd5b62000a3582620009ea565b810181811067ffffffffffffffff8211171562000a575762000a56620009fb565b5b80604052505050565b600062000a6c620009cc565b905062000a7a828262000a2a565b919050565b600067ffffffffffffffff82111562000a9d5762000a9c620009fb565b5b62000aa882620009ea565b9050602081019050919050565b82818337600083830152505050565b600062000adb62000ad58462000a7f565b62000a60565b90508281526020810184848401111562000afa5762000af9620009e5565b5b62000b0784828562000ab5565b509392505050565b600082601f83011262000b275762000b26620009e0565b5b813562000b3984826020860162000ac4565b91505092915050565b600073ffffffffffffffffffffffffffffffffffffffff82169050919050565b600062000b6f8262000b42565b9050919050565b62000b818162000b62565b811462000b8d57600080fd5b50565b60008135905062000ba18162000b76565b92915050565b60008060008060008060008060006101208a8c03121562000bcd5762000bcc620009d6565b5b60008a013567ffffffffffffffff81111562000bee5762000bed620009db565b5b62000bfc8c828d0162000b0f565b99505060208a013567ffffffffffffffff81111562000c205762000c1f620009db565b5b62000c2e8c828d0162000b0f565b985050604062000c418c828d0162000b90565b97505060608a013567ffffffffffffffff81111562000c655762000c64620009db565b5b62000c738c828d0162000b0f565b96505060808a013567ffffffffffffffff81111562000c975762000c96620009db565b5b62000ca58c828d0162000b0f565b95505060a08a013567ffffffffffffffff81111562000cc95762000cc8620009db565b5b62000cd78c828d0162000b0f565b94505060c08a013567ffffffffffffffff81111562000cfb5762000cfa620009db565b5b62000d098c828d0162000b0f565b93505060e08a013567ffffffffffffffff81111562000d2d5762000d2c620009db565b5b62000d3b8c828d0162000b0f565b9250506101008a013567ffffffffffffffff81111562000d605762000d5f620009db565b5b62000d6e8c828d0162000b0f565b9150509295985092959850929598565b600081519050919050565b600082825260208201905092915050565b6000819050602082019050919050565b6000819050919050565b600062000dd562000dcf62000dc98462000b42565b62000daa565b62000b42565b9050919050565b600062000de98262000db4565b9050919050565b600062000dfd8262000ddc565b9050919050565b62000e0f8162000df0565b82525050565b600062000e23838362000e04565b60208301905092915050565b6000602082019050919050565b600062000e498262000d7e565b62000e55818562000d89565b935062000e628362000d9a565b8060005b8381101562000e9957815162000e7d888262000e15565b975062000e8a8362000e2f565b92505060018101905062000e66565b5085935050505092915050565b6000602082019050818103600083015262000ec2818462000e3c565b905092915050565b6000819050919050565b62000edf8162000eca565b82525050565b600060208201905062000efc600083018462000ed4565b92915050565b62000f0d8162000eca565b811462000f1957600080fd5b50565b60008135905062000f2d8162000f02565b92915050565b6000806040838503121562000f4d5762000f4c620009d6565b5b600062000f5d8582860162000f1c565b925050602062000f708582860162000f1c565b9150509250929050565b600081519050919050565b600082825260208201905092915050565b60005b8381101562000fb657808201518184015260208101905062000f99565b8381111562000fc6576000848401525b50505050565b600062000fd98262000f7a565b62000fe5818562000f85565b935062000ff781856020860162000f96565b6200100281620009ea565b840191505092915050565b620010188162000b62565b82525050565b60006101408201905081810360008301526200103b818d62000fcc565b9050818103602083015262001051818c62000fcc565b905062001062604083018b6200100d565b818103606083015262001076818a62000fcc565b905081810360808301526200108c818962000fcc565b905081810360a0830152620010a2818862000fcc565b905081810360c0830152620010b8818762000fcc565b905081810360e0830152620010ce818662000fcc565b9050818103610100830152620010e5818562000fcc565b9050620010f76101208301846200100d565b9b9a5050505050505050505050565b600081519050620011178162000b76565b92915050565b600060208284031215620011365762001135620009d6565b5b6000620011468482850162001106565b91505092915050565b600060608201905081810360008301526200116b818662000fcc565b90506200117c60208301856200100d565b6200118b604083018462000ed4565b949350505050565b7f4e487b7100000000000000000000000000000000000000000000000000000000600052603260045260246000fd5b6000602082019050620011d960008301846200100d565b92915050565b60008115159050919050565b620011f681620011df565b81146200120257600080fd5b50565b6000815190506200121681620011eb565b92915050565b600060208284031215620012355762001234620009d6565b5b6000620012458482850162001205565b91505092915050565b7f4e487b7100000000000000000000000000000000000000000000000000000000600052601160045260246000fd5b60006200128a8262000eca565b91507fffffffffffffffffffffffffffffffffffffffffffffffffffffffffffffffff8203620012bf57620012be6200124e565b5b600182019050919050565b7f6f6666736574206f7574206f6620626f756e6473000000000000000000000000600082015250565b60006200130260148362000f85565b91506200130f82620012ca565b602082019050919050565b600060208201905081810360008301526200133581620012f3565b9050919050565b6000620013498262000eca565b9150620013568362000eca565b9250828210156200136c576200136b6200124e565b5b828203905092915050565b6000620013848262000eca565b9150620013918362000eca565b9250827fffffffffffffffffffffffffffffffffffffffffffffffffffffffffffffffff03821115620013c957620013c86200124e565b5b82820190509291505056fe60806040523480156200001157600080fd5b506040516200206f3803806200206f83398181016040528101906200003791906200053f565b336000806101000a81548173ffffffffffffffffffffffffffffffffffffffff021916908373ffffffffffffffffffffffffffffffffffffffff16021790555089600190805190602001906200008f9291906200028d565b508860029080519060200190620000a89291906200028d565b5087600360006101000a81548173ffffffffffffffffffffffffffffffffffffffff021916908373ffffffffffffffffffffffffffffffffffffffff1602179055508660049080519060200190620001029291906200028d565b5085600590805190602001906200011b9291906200028d565b508460069080519060200190620001349291906200028d565b5083600790805190602001906200014d9291906200028d565b508260089080519060200190620001669291906200028d565b5081600990805190602001906200017f9291906200028d565b506200019181620001a160201b60201c565b5050505050505050505062000814565b3373ffffffffffffffffffffffffffffffffffffffff16620001c86200026460201b60201c565b73ffffffffffffffffffffffffffffffffffffffff161462000221576040517f08c379a000000000000000000000000000000000000000000000000000000000815260040162000218906200078e565b60405180910390fd5b806000806101000a81548173ffffffffffffffffffffffffffffffffffffffff021916908373ffffffffffffffffffffffffffffffffffffffff16021790555050565b60008060009054906101000a900473ffffffffffffffffffffffffffffffffffffffff16905090565b8280546200029b90620007df565b90600052602060002090601f016020900481019282620002bf57600085556200030b565b82601f10620002da57805160ff19168380011785556200030b565b828001600101855582156200030b579182015b828111156200030a578251825591602001919060010190620002ed565b5b5090506200031a91906200031e565b5090565b5b80821115620003395760008160009055506001016200031f565b5090565b6000604051905090565b600080fd5b600080fd5b600080fd5b600080fd5b6000601f19601f8301169050919050565b7f4e487b7100000000000000000000000000000000000000000000000000000000600052604160045260246000fd5b620003a6826200035b565b810181811067ffffffffffffffff82111715620003c857620003c76200036c565b5b80604052505050565b6000620003dd6200033d565b9050620003eb82826200039b565b919050565b600067ffffffffffffffff8211156200040e576200040d6200036c565b5b62000419826200035b565b9050602081019050919050565b60005b838110156200044657808201518184015260208101905062000429565b8381111562000456576000848401525b50505050565b6000620004736200046d84620003f0565b620003d1565b90508281526020810184848401111562000492576200049162000356565b5b6200049f84828562000426565b509392505050565b600082601f830112620004bf57620004be62000351565b5b8151620004d18482602086016200045c565b91505092915050565b600073ffffffffffffffffffffffffffffffffffffffff82169050919050565b60006200050782620004da565b9050919050565b6200051981620004fa565b81146200052557600080fd5b50565b60008151905062000539816200050e565b92915050565b6000806000806000806000806000806101408b8d03121562000566576200056562000347565b5b60008b015167ffffffffffffffff8111156200058757620005866200034c565b5b620005958d828e01620004a7565b9a505060208b015167ffffffffffffffff811115620005b957620005b86200034c565b5b620005c78d828e01620004a7565b9950506040620005da8d828e0162000528565b98505060608b015167ffffffffffffffff811115620005fe57620005fd6200034c565b5b6200060c8d828e01620004a7565b97505060808b015167ffffffffffffffff81111562000630576200062f6200034c565b5b6200063e8d828e01620004a7565b96505060a08b015167ffffffffffffffff8111156200066257620006616200034c565b5b620006708d828e01620004a7565b95505060c08b015167ffffffffffffffff8111156200069457620006936200034c565b5b620006a28d828e01620004a7565b94505060e08b015167ffffffffffffffff811115620006c657620006c56200034c565b5b620006d48d828e01620004a7565b9350506101008b015167ffffffffffffffff811115620006f957620006f86200034c565b5b620007078d828e01620004a7565b9250506101206200071b8d828e0162000528565b9150509295989b9194979a5092959850565b600082825260208201905092915050565b7f746865206775657374206e6f7420616c6c6f7765642e00000000000000000000600082015250565b6000620007766016836200072d565b915062000783826200073e565b602082019050919050565b60006020820190508181036000830152620007a98162000767565b9050919050565b7f4e487b7100000000000000000000000000000000000000000000000000000000600052602260045260246000fd5b60006002820490506001821680620007f857607f821691505b6020821081036200080e576200080d620007b0565b5b50919050565b61184b80620008246000396000f3fe608060405234801561001057600080fd5b50600436106100f55760003560e01c8063a6c3e6b911610097578063c2bb515f11610066578063c2bb515f14610240578063d29d44ee14610260578063db74db411461027c578063e7d931e4146102ac576100f5565b8063a6c3e6b9146101ca578063b46f0af2146101e8578063b6f3f14d14610204578063b9e3e2db14610222576100f5565b80636929b85d116100d35780636929b85d146101525780637284e416146101705780638c72c54e1461018e5780638da5cb5b146101ac576100f5565b806340078519146100fa5780634a79d50c14610116578063542a233f14610134575b600080fd5b610114600480360381019061010f919061128a565b6102ca565b005b61011e6104c0565b60405161012b919061135b565b60405180910390f35b61013c61054e565b60405161014991906113be565b60405180910390f35b61015a610574565b604051610167919061135b565b60405180910390f35b610178610602565b604051610185919061135b565b60405180910390f35b610196610690565b6040516101a3919061135b565b60405180910390f35b6101b461071e565b6040516101c191906113be565b60405180910390f35b6101d2610747565b6040516101df919061135b565b60405180910390f35b61020260048036038101906101fd919061128a565b6107d5565b005b61020c610a42565b604051610219919061135b565b60405180910390f35b61022a610b49565b604051610237919061135b565b60405180910390f35b610248610bd7565b604051610257939291906113d9565b60405180910390f35b61027a6004803603810190610275919061144a565b610e35565b005b6102966004803603810190610291919061144a565b610eed565b6040516102a39190611492565b60405180910390f35b6102b4610fbf565b6040516102c1919061135b565b60405180910390f35b3373ffffffffffffffffffffffffffffffffffffffff166102e961071e565b73ffffffffffffffffffffffffffffffffffffffff161461033f576040517f08c379a0000000000000000000000000000000000000000000000000000000008152600401610336906114f9565b60405180910390fd5b600073ffffffffffffffffffffffffffffffffffffffff16600a60000160009054906101000a900473ffffffffffffffffffffffffffffffffffffffff1673ffffffffffffffffffffffffffffffffffffffff16036103d3576040517f08c379a00000000000000000000000000000000000000000000000000000000081526004016103ca90611565565b60405180910390fd5b80600990805190602001906103e992919061104d565b50610418600a60000160009054906101000a900473ffffffffffffffffffffffffffffffffffffffff16610e35565b7feac7352a6c43aae51b89275a053c14ef2cf07f1856943c50a5f55fb28f4a36c0600a60000160009054906101000a900473ffffffffffffffffffffffffffffffffffffffff1660014260405161047193929190611693565b60405180910390a1600a600080820160006101000a81549073ffffffffffffffffffffffffffffffffffffffff02191690556001820160006104b391906110d3565b6002820160009055505050565b600180546104cd906115b4565b80601f01602080910402602001604051908101604052809291908181526020018280546104f9906115b4565b80156105465780601f1061051b57610100808354040283529160200191610546565b820191906000526020600020905b81548152906001019060200180831161052957829003601f168201915b505050505081565b600360009054906101000a900473ffffffffffffffffffffffffffffffffffffffff1681565b60068054610581906115b4565b80601f01602080910402602001604051908101604052809291908181526020018280546105ad906115b4565b80156105fa5780601f106105cf576101008083540402835291602001916105fa565b820191906000526020600020905b8154815290600101906020018083116105dd57829003601f168201915b505050505081565b6008805461060f906115b4565b80601f016020809104026020016040519081016040528092919081815260200182805461063b906115b4565b80156106885780601f1061065d57610100808354040283529160200191610688565b820191906000526020600020905b81548152906001019060200180831161066b57829003601f168201915b505050505081565b6004805461069d906115b4565b80601f01602080910402602001604051908101604052809291908181526020018280546106c9906115b4565b80156107165780601f106106eb57610100808354040283529160200191610716565b820191906000526020600020905b8154815290600101906020018083116106f957829003601f168201915b505050505081565b60008060009054906101000a900473ffffffffffffffffffffffffffffffffffffffff16905090565b60028054610754906115b4565b80601f0160208091040260200160405190810160405280929190818152602001828054610780906115b4565b80156107cd5780601f106107a2576101008083540402835291602001916107cd565b820191906000526020600020905b8154815290600101906020018083116107b057829003601f168201915b505050505081565b3373ffffffffffffffffffffffffffffffffffffffff166107f461071e565b73ffffffffffffffffffffffffffffffffffffffff160361084a576040517f08c379a00000000000000000000000000000000000000000000000000000000081526004016108419061171d565b60405180910390fd5b3373ffffffffffffffffffffffffffffffffffffffff16600a60000160009054906101000a900473ffffffffffffffffffffffffffffffffffffffff1673ffffffffffffffffffffffffffffffffffffffff16036108dd576040517f08c379a00000000000000000000000000000000000000000000000000000000081526004016108d490611789565b60405180910390fd5b600073ffffffffffffffffffffffffffffffffffffffff16600a60000160009054906101000a900473ffffffffffffffffffffffffffffffffffffffff1673ffffffffffffffffffffffffffffffffffffffff1614610971576040517f08c379a0000000000000000000000000000000000000000000000000000000008152600401610968906117f5565b60405180910390fd5b33600a60000160006101000a81548173ffffffffffffffffffffffffffffffffffffffff021916908373ffffffffffffffffffffffffffffffffffffffff16021790555080600a60010190805190602001906109ce92919061104d565b5042600a600201819055507f129f67783f1fc54762392a484603d038c3007571edd583280de130581c11f1c2600a60000160009054906101000a900473ffffffffffffffffffffffffffffffffffffffff166001600a60020154604051610a3793929190611693565b60405180910390a150565b60603373ffffffffffffffffffffffffffffffffffffffff16610a6361071e565b73ffffffffffffffffffffffffffffffffffffffff1614610ab9576040517f08c379a0000000000000000000000000000000000000000000000000000000008152600401610ab0906114f9565b60405180910390fd5b60098054610ac6906115b4565b80601f0160208091040260200160405190810160405280929190818152602001828054610af2906115b4565b8015610b3f5780601f10610b1457610100808354040283529160200191610b3f565b820191906000526020600020905b815481529060010190602001808311610b2257829003601f168201915b5050505050905090565b60058054610b56906115b4565b80601f0160208091040260200160405190810160405280929190818152602001828054610b82906115b4565b8015610bcf5780601f10610ba457610100808354040283529160200191610bcf565b820191906000526020600020905b815481529060010190602001808311610bb257829003601f168201915b505050505081565b60006060803373ffffffffffffffffffffffffffffffffffffffff16610bfb61071e565b73ffffffffffffffffffffffffffffffffffffffff1614610c51576040517f08c379a0000000000000000000000000000000000000000000000000000000008152600401610c48906114f9565b60405180910390fd5b600073ffffffffffffffffffffffffffffffffffffffff16600a60000160009054906101000a900473ffffffffffffffffffffffffffffffffffffffff1673ffffffffffffffffffffffffffffffffffffffff1603610ce5576040517f08c379a0000000000000000000000000000000000000000000000000000000008152600401610cdc90611565565b60405180910390fd5b600a60000160009054906101000a900473ffffffffffffffffffffffffffffffffffffffff16600a6001016009818054610d1e906115b4565b80601f0160208091040260200160405190810160405280929190818152602001828054610d4a906115b4565b8015610d975780601f10610d6c57610100808354040283529160200191610d97565b820191906000526020600020905b815481529060010190602001808311610d7a57829003601f168201915b50505050509150808054610daa906115b4565b80601f0160208091040260200160405190810160405280929190818152602001828054610dd6906115b4565b8015610e235780601f10610df857610100808354040283529160200191610e23565b820191906000526020600020905b815481529060010190602001808311610e0657829003601f168201915b50505050509050925092509250909192565b3373ffffffffffffffffffffffffffffffffffffffff16610e5461071e565b73ffffffffffffffffffffffffffffffffffffffff1614610eaa576040517f08c379a0000000000000000000000000000000000000000000000000000000008152600401610ea1906114f9565b60405180910390fd5b806000806101000a81548173ffffffffffffffffffffffffffffffffffffffff021916908373ffffffffffffffffffffffffffffffffffffffff16021790555050565b60003373ffffffffffffffffffffffffffffffffffffffff16610f0e61071e565b73ffffffffffffffffffffffffffffffffffffffff1603610f64576040517f08c379a0000000000000000000000000000000000000000000000000000000008152600401610f5b9061171d565b60405180910390fd5b8173ffffffffffffffffffffffffffffffffffffffff16600a60000160009054906101000a900473ffffffffffffffffffffffffffffffffffffffff1673ffffffffffffffffffffffffffffffffffffffff16149050919050565b60078054610fcc906115b4565b80601f0160208091040260200160405190810160405280929190818152602001828054610ff8906115b4565b80156110455780601f1061101a57610100808354040283529160200191611045565b820191906000526020600020905b81548152906001019060200180831161102857829003601f168201915b505050505081565b828054611059906115b4565b90600052602060002090601f01602090048101928261107b57600085556110c2565b82601f1061109457805160ff19168380011785556110c2565b828001600101855582156110c2579182015b828111156110c15782518255916020019190600101906110a6565b5b5090506110cf9190611113565b5090565b5080546110df906115b4565b6000825580601f106110f15750611110565b601f01602090049060005260206000209081019061110f9190611113565b5b50565b5b8082111561112c576000816000905550600101611114565b5090565b6000604051905090565b600080fd5b600080fd5b600080fd5b600080fd5b6000601f19601f8301169050919050565b7f4e487b7100000000000000000000000000000000000000000000000000000000600052604160045260246000fd5b6111978261114e565b810181811067ffffffffffffffff821117156111b6576111b561115f565b5b80604052505050565b60006111c9611130565b90506111d5828261118e565b919050565b600067ffffffffffffffff8211156111f5576111f461115f565b5b6111fe8261114e565b9050602081019050919050565b82818337600083830152505050565b600061122d611228846111da565b6111bf565b90508281526020810184848401111561124957611248611149565b5b61125484828561120b565b509392505050565b600082601f83011261127157611270611144565b5b813561128184826020860161121a565b91505092915050565b6000602082840312156112a05761129f61113a565b5b600082013567ffffffffffffffff8111156112be576112bd61113f565b5b6112ca8482850161125c565b91505092915050565b600081519050919050565b600082825260208201905092915050565b60005b8381101561130d5780820151818401526020810190506112f2565b8381111561131c576000848401525b50505050565b600061132d826112d3565b61133781856112de565b93506113478185602086016112ef565b6113508161114e565b840191505092915050565b600060208201905081810360008301526113758184611322565b905092915050565b600073ffffffffffffffffffffffffffffffffffffffff82169050919050565b60006113a88261137d565b9050919050565b6113b88161139d565b82525050565b60006020820190506113d360008301846113af565b92915050565b60006060820190506113ee60008301866113af565b81810360208301526114008185611322565b905081810360408301526114148184611322565b9050949350505050565b6114278161139d565b811461143257600080fd5b50565b6000813590506114448161141e565b92915050565b6000602082840312156114605761145f61113a565b5b600061146e84828501611435565b91505092915050565b60008115159050919050565b61148c81611477565b82525050565b60006020820190506114a76000830184611483565b92915050565b7f746865206775657374206e6f7420616c6c6f7765642e00000000000000000000600082015250565b60006114e36016836112de565b91506114ee826114ad565b602082019050919050565b60006020820190508181036000830152611512816114d6565b9050919050565b7f7468652072657175657374206973206e6f7420617661696c61626c6500000000600082015250565b600061154f601c836112de565b915061155a82611519565b602082019050919050565b6000602082019050818103600083015261157e81611542565b9050919050565b7f4e487b7100000000000000000000000000000000000000000000000000000000600052602260045260246000fd5b600060028204905060018216806115cc57607f821691505b6020821081036115df576115de611585565b5b50919050565b60008190508160005260206000209050919050565b60008154611607816115b4565b61161181866112de565b9450600182166000811461162c576001811461163e57611671565b60ff1983168652602086019350611671565b611647856115e5565b60005b838110156116695781548189015260018201915060208101905061164a565b808801955050505b50505092915050565b6000819050919050565b61168d8161167a565b82525050565b60006060820190506116a860008301866113af565b81810360208301526116ba81856115fa565b90506116c96040830184611684565b949350505050565b7f746865206f776e6572206e6f7420616c6c6f7765640000000000000000000000600082015250565b60006117076015836112de565b9150611712826116d1565b602082019050919050565b60006020820190508181036000830152611736816116fa565b9050919050565b7f796f752072657175657374656400000000000000000000000000000000000000600082015250565b6000611773600d836112de565b915061177e8261173d565b602082019050919050565b600060208201905081810360008301526117a281611766565b9050919050565b7f74686520626f6f6b207265717565737465640000000000000000000000000000600082015250565b60006117df6012836112de565b91506117ea826117a9565b602082019050919050565b6000602082019050818103600083015261180e816117d2565b905091905056fea264697066735822122063f4a13f15fee78872454ce08db06516128b607c884e2797b149a82db7de842a64736f6c634300080e0033a2646970667358221220218dd77c0c991821c8efc2b83c7b69a1f7b53d1011499d1080281f6a1876c95364736f6c634300080e0033",
  "immutableReferences": {},
  "source": "// SPDX-License-Identifier: MIT\npragma solidity >=0.8.0 <0.9.0;\n\nimport \"./Book.sol\";\n\ncontract BookFactory {\n    //for public info\n    Book[] private _books;\n\n    event BookCreated(string title, address owner, uint256 date);\n\n    function createBook(\n        string memory _title,\n        string memory _author,\n        address _author_account,\n        string memory _publisher,\n        string memory _releaseDate,\n        string memory _isbn,\n        string memory _cover,\n        string memory _description,\n        string memory _documentHash\n    ) public {\n        Book book = new Book(\n            _title,\n            _author,\n            _author_account,\n            _publisher,\n            _releaseDate,\n            _isbn,\n            _cover,\n            _description,\n            _documentHash,\n            msg.sender\n        );\n\n        _books.push(book);\n\n        emit BookCreated(_title, book.owner(), block.timestamp);\n    }\n\n    function bookCount() external view returns (uint256) {\n        return _books.length;\n    }\n\n    function books(uint256 _limit, uint256 _offset)\n        public\n        view\n        returns (Book[] memory collections)\n    {\n        require(_offset <= _books.length, \"offset out of bounds\");\n        uint256 maxlimit = 20;\n        uint256 size = _books.length - _offset;\n        size = size < _limit ? size : _limit;\n        size = size < maxlimit ? size : maxlimit;\n\n        collections = new Book[](size);\n\n        for (uint256 i = 0; i < size; i++) {\n            collections[i] = _books[_offset + i];\n        }\n\n        return collections;\n    }\n\n    function myBooks() external view returns (Book[] memory collections) {\n        uint256 size = 0;\n        for (uint256 i = 0; i < _books.length; i++) {\n            Book pub = _books[i];\n            if (pub.owner() == msg.sender) size++;\n        }\n\n        collections = new Book[](size);\n        for (uint256 i = 0; i < _books.length; i++) {\n            Book pub = _books[i];\n            if (pub.owner() == msg.sender) collections[i] = pub;\n        }\n\n        return collections;\n    }\n\n    function myRequests() external view returns (Book[] memory collections) {\n        uint256 size = 0;\n        for (uint256 i = 0; i < _books.length; i++) {\n            Book pub = _books[i];\n            if (pub.isMyRequest(msg.sender)) size++;\n        }\n\n        collections = new Book[](size);\n        for (uint256 i = 0; i < _books.length; i++) {\n            Book pub = _books[i];\n            if (pub.isMyRequest(msg.sender)) collections[i] = pub;\n        }\n\n        return collections;\n    }\n}\n",
  "sourcePath": "/Users/jee/Studies/projects/blockchain/drmchain-dapp/application/truffle/contracts/BookFactory.sol",
  "compiler": {
    "name": "solc",
    "version": "0.8.14+commit.80d49f37.Emscripten.clang"
  },
  "schemaVersion": "3.4.10",
  "updatedAt": "2023-01-05T15:24:25.005Z",
  "networkType": "ethereum",
  "devdoc": {
    "kind": "dev",
    "methods": {},
    "version": 1
  },
  "userdoc": {
    "kind": "user",
    "methods": {},
    "version": 1
  }
}