{
  "contractName": "Book",
  "abi": [
    {
      "inputs": [
        {
          "internalType": "string",
          "name": "_title",
          "type": "string"
        },
        {
          "internalType": "string",
          "name": "_author",
          "type": "string"
        },
        {
          "internalType": "address",
          "name": "_author_account",
          "type": "address"
        },
        {
          "internalType": "string",
          "name": "_publisher",
          "type": "string"
        },
        {
          "internalType": "string",
          "name": "_releaseDate",
          "type": "string"
        },
        {
          "internalType": "string",
          "name": "_isbn",
          "type": "string"
        },
        {
          "internalType": "string",
          "name": "_cover",
          "type": "string"
        },
        {
          "internalType": "string",
          "name": "_description",
          "type": "string"
        },
        {
          "internalType": "string",
          "name": "_hashDocument",
          "type": "string"
        },
        {
          "internalType": "address",
          "name": "_owner",
          "type": "address"
        }
      ],
      "stateMutability": "nonpayable",
      "type": "constructor"
    },
    {
      "anonymous": false,
      "inputs": [
        {
          "indexed": false,
          "internalType": "address",
          "name": "customer",
          "type": "address"
        },
        {
          "indexed": false,
          "internalType": "string",
          "name": "title",
          "type": "string"
        },
        {
          "indexed": false,
          "internalType": "uint256",
          "name": "date",
          "type": "uint256"
        }
      ],
      "name": "RequestAccepted",
      "type": "event"
    },
    {
      "anonymous": false,
      "inputs": [
        {
          "indexed": false,
          "internalType": "address",
          "name": "customer",
          "type": "address"
        },
        {
          "indexed": false,
          "internalType": "string",
          "name": "title",
          "type": "string"
        },
        {
          "indexed": false,
          "internalType": "uint256",
          "name": "date",
          "type": "uint256"
        }
      ],
      "name": "Requested",
      "type": "event"
    },
    {
      "inputs": [
        {
          "internalType": "address",
          "name": "newOwner",
          "type": "address"
        }
      ],
      "name": "_transferOwnership",
      "outputs": [],
      "stateMutability": "nonpayable",
      "type": "function"
    },
    {
      "inputs": [],
      "name": "author",
      "outputs": [
        {
          "internalType": "string",
          "name": "",
          "type": "string"
        }
      ],
      "stateMutability": "view",
      "type": "function"
    },
    {
      "inputs": [],
      "name": "author_account",
      "outputs": [
        {
          "internalType": "address",
          "name": "",
          "type": "address"
        }
      ],
      "stateMutability": "view",
      "type": "function"
    },
    {
      "inputs": [],
      "name": "cover",
      "outputs": [
        {
          "internalType": "string",
          "name": "",
          "type": "string"
        }
      ],
      "stateMutability": "view",
      "type": "function"
    },
    {
      "inputs": [],
      "name": "description",
      "outputs": [
        {
          "internalType": "string",
          "name": "",
          "type": "string"
        }
      ],
      "stateMutability": "view",
      "type": "function"
    },
    {
      "inputs": [],
      "name": "isbn",
      "outputs": [
        {
          "internalType": "string",
          "name": "",
          "type": "string"
        }
      ],
      "stateMutability": "view",
      "type": "function"
    },
    {
      "inputs": [],
      "name": "owner",
      "outputs": [
        {
          "internalType": "address",
          "name": "",
          "type": "address"
        }
      ],
      "stateMutability": "view",
      "type": "function"
    },
    {
      "inputs": [],
      "name": "publisher",
      "outputs": [
        {
          "internalType": "string",
          "name": "",
          "type": "string"
        }
      ],
      "stateMutability": "view",
      "type": "function"
    },
    {
      "inputs": [],
      "name": "releaseDate",
      "outputs": [
        {
          "internalType": "string",
          "name": "",
          "type": "string"
        }
      ],
      "stateMutability": "view",
      "type": "function"
    },
    {
      "inputs": [],
      "name": "title",
      "outputs": [
        {
          "internalType": "string",
          "name": "",
          "type": "string"
        }
      ],
      "stateMutability": "view",
      "type": "function"
    },
    {
      "inputs": [],
      "name": "getDocument",
      "outputs": [
        {
          "internalType": "string",
          "name": "",
          "type": "string"
        }
      ],
      "stateMutability": "view",
      "type": "function"
    },
    {
      "inputs": [
        {
          "internalType": "string",
          "name": "_customerPublicKey",
          "type": "string"
        }
      ],
      "name": "requestOwner",
      "outputs": [],
      "stateMutability": "nonpayable",
      "type": "function"
    },
    {
      "inputs": [],
      "name": "getRequest",
      "outputs": [
        {
          "internalType": "address",
          "name": "",
          "type": "address"
        },
        {
          "internalType": "string",
          "name": "",
          "type": "string"
        },
        {
          "internalType": "string",
          "name": "",
          "type": "string"
        }
      ],
      "stateMutability": "view",
      "type": "function"
    },
    {
      "inputs": [
        {
          "internalType": "address",
          "name": "customer",
          "type": "address"
        }
      ],
      "name": "isMyRequest",
      "outputs": [
        {
          "internalType": "bool",
          "name": "",
          "type": "bool"
        }
      ],
      "stateMutability": "view",
      "type": "function"
    },
    {
      "inputs": [],
      "name": "isRequested",
      "outputs": [
        {
          "internalType": "bool",
          "name": "",
          "type": "bool"
        }
      ],
      "stateMutability": "view",
      "type": "function"
    },
    {
      "inputs": [
        {
          "internalType": "string",
          "name": "_hashDocument",
          "type": "string"
        }
      ],
      "name": "acceptRequest",
      "outputs": [],
      "stateMutability": "nonpayable",
      "type": "function"
    }
  ],
  "bytecode": "0x60806040523480156200001157600080fd5b506040516200207f3803806200207f83398181016040528101906200003791906200053f565b336000806101000a81548173ffffffffffffffffffffffffffffffffffffffff021916908373ffffffffffffffffffffffffffffffffffffffff16021790555089600190805190602001906200008f9291906200028d565b508860029080519060200190620000a89291906200028d565b5087600360006101000a81548173ffffffffffffffffffffffffffffffffffffffff021916908373ffffffffffffffffffffffffffffffffffffffff1602179055508660049080519060200190620001029291906200028d565b5085600590805190602001906200011b9291906200028d565b508460069080519060200190620001349291906200028d565b5083600790805190602001906200014d9291906200028d565b508260089080519060200190620001669291906200028d565b5081600990805190602001906200017f9291906200028d565b506200019181620001a160201b60201c565b5050505050505050505062000814565b3373ffffffffffffffffffffffffffffffffffffffff16620001c86200026460201b60201c565b73ffffffffffffffffffffffffffffffffffffffff161462000221576040517f08c379a000000000000000000000000000000000000000000000000000000000815260040162000218906200078e565b60405180910390fd5b806000806101000a81548173ffffffffffffffffffffffffffffffffffffffff021916908373ffffffffffffffffffffffffffffffffffffffff16021790555050565b60008060009054906101000a900473ffffffffffffffffffffffffffffffffffffffff16905090565b8280546200029b90620007df565b90600052602060002090601f016020900481019282620002bf57600085556200030b565b82601f10620002da57805160ff19168380011785556200030b565b828001600101855582156200030b579182015b828111156200030a578251825591602001919060010190620002ed565b5b5090506200031a91906200031e565b5090565b5b80821115620003395760008160009055506001016200031f565b5090565b6000604051905090565b600080fd5b600080fd5b600080fd5b600080fd5b6000601f19601f8301169050919050565b7f4e487b7100000000000000000000000000000000000000000000000000000000600052604160045260246000fd5b620003a6826200035b565b810181811067ffffffffffffffff82111715620003c857620003c76200036c565b5b80604052505050565b6000620003dd6200033d565b9050620003eb82826200039b565b919050565b600067ffffffffffffffff8211156200040e576200040d6200036c565b5b62000419826200035b565b9050602081019050919050565b60005b838110156200044657808201518184015260208101905062000429565b8381111562000456576000848401525b50505050565b6000620004736200046d84620003f0565b620003d1565b90508281526020810184848401111562000492576200049162000356565b5b6200049f84828562000426565b509392505050565b600082601f830112620004bf57620004be62000351565b5b8151620004d18482602086016200045c565b91505092915050565b600073ffffffffffffffffffffffffffffffffffffffff82169050919050565b60006200050782620004da565b9050919050565b6200051981620004fa565b81146200052557600080fd5b50565b60008151905062000539816200050e565b92915050565b6000806000806000806000806000806101408b8d03121562000566576200056562000347565b5b60008b015167ffffffffffffffff8111156200058757620005866200034c565b5b620005958d828e01620004a7565b9a505060208b015167ffffffffffffffff811115620005b957620005b86200034c565b5b620005c78d828e01620004a7565b9950506040620005da8d828e0162000528565b98505060608b015167ffffffffffffffff811115620005fe57620005fd6200034c565b5b6200060c8d828e01620004a7565b97505060808b015167ffffffffffffffff81111562000630576200062f6200034c565b5b6200063e8d828e01620004a7565b96505060a08b015167ffffffffffffffff8111156200066257620006616200034c565b5b620006708d828e01620004a7565b95505060c08b015167ffffffffffffffff8111156200069457620006936200034c565b5b620006a28d828e01620004a7565b94505060e08b015167ffffffffffffffff811115620006c657620006c56200034c565b5b620006d48d828e01620004a7565b9350506101008b015167ffffffffffffffff811115620006f957620006f86200034c565b5b620007078d828e01620004a7565b9250506101206200071b8d828e0162000528565b9150509295989b9194979a5092959850565b600082825260208201905092915050565b7f746865206775657374206e6f7420616c6c6f7765642e00000000000000000000600082015250565b6000620007766016836200072d565b915062000783826200073e565b602082019050919050565b60006020820190508181036000830152620007a98162000767565b9050919050565b7f4e487b7100000000000000000000000000000000000000000000000000000000600052602260045260246000fd5b60006002820490506001821680620007f857607f821691505b6020821081036200080e576200080d620007b0565b5b50919050565b61185b80620008246000396000f3fe608060405234801561001057600080fd5b50600436106101005760003560e01c8063a6c3e6b911610097578063c2bb515f11610066578063c2bb515f14610269578063d29d44ee14610289578063db74db41146102a5578063e7d931e4146102d557610100565b8063a6c3e6b9146101f3578063b46f0af214610211578063b6f3f14d1461022d578063b9e3e2db1461024b57610100565b80637284e416116100d35780637284e4161461017b5780638c72c54e146101995780638da5cb5b146101b757806397781f02146101d557610100565b806340078519146101055780634a79d50c14610121578063542a233f1461013f5780636929b85d1461015d575b600080fd5b61011f600480360381019061011a919061129a565b6102f3565b005b6101296104e9565b604051610136919061136b565b60405180910390f35b610147610577565b60405161015491906113ce565b60405180910390f35b61016561059d565b604051610172919061136b565b60405180910390f35b61018361062b565b604051610190919061136b565b60405180910390f35b6101a16106b9565b6040516101ae919061136b565b60405180910390f35b6101bf610747565b6040516101cc91906113ce565b60405180910390f35b6101dd610770565b6040516101ea9190611404565b60405180910390f35b6101fb6107cc565b604051610208919061136b565b60405180910390f35b61022b6004803603810190610226919061129a565b61085a565b005b610235610ac7565b604051610242919061136b565b60405180910390f35b610253610bce565b604051610260919061136b565b60405180910390f35b610271610c5c565b6040516102809392919061141f565b60405180910390f35b6102a3600480360381019061029e9190611490565b610eba565b005b6102bf60048036038101906102ba9190611490565b610f72565b6040516102cc9190611404565b60405180910390f35b6102dd610fcf565b6040516102ea919061136b565b60405180910390f35b3373ffffffffffffffffffffffffffffffffffffffff16610312610747565b73ffffffffffffffffffffffffffffffffffffffff1614610368576040517f08c379a000000000000000000000000000000000000000000000000000000000815260040161035f90611509565b60405180910390fd5b600073ffffffffffffffffffffffffffffffffffffffff16600a60000160009054906101000a900473ffffffffffffffffffffffffffffffffffffffff1673ffffffffffffffffffffffffffffffffffffffff16036103fc576040517f08c379a00000000000000000000000000000000000000000000000000000000081526004016103f390611575565b60405180910390fd5b806009908051906020019061041292919061105d565b50610441600a60000160009054906101000a900473ffffffffffffffffffffffffffffffffffffffff16610eba565b7feac7352a6c43aae51b89275a053c14ef2cf07f1856943c50a5f55fb28f4a36c0600a60000160009054906101000a900473ffffffffffffffffffffffffffffffffffffffff1660014260405161049a939291906116a3565b60405180910390a1600a600080820160006101000a81549073ffffffffffffffffffffffffffffffffffffffff02191690556001820160006104dc91906110e3565b6002820160009055505050565b600180546104f6906115c4565b80601f0160208091040260200160405190810160405280929190818152602001828054610522906115c4565b801561056f5780601f106105445761010080835404028352916020019161056f565b820191906000526020600020905b81548152906001019060200180831161055257829003601f168201915b505050505081565b600360009054906101000a900473ffffffffffffffffffffffffffffffffffffffff1681565b600680546105aa906115c4565b80601f01602080910402602001604051908101604052809291908181526020018280546105d6906115c4565b80156106235780601f106105f857610100808354040283529160200191610623565b820191906000526020600020905b81548152906001019060200180831161060657829003601f168201915b505050505081565b60088054610638906115c4565b80601f0160208091040260200160405190810160405280929190818152602001828054610664906115c4565b80156106b15780601f10610686576101008083540402835291602001916106b1565b820191906000526020600020905b81548152906001019060200180831161069457829003601f168201915b505050505081565b600480546106c6906115c4565b80601f01602080910402602001604051908101604052809291908181526020018280546106f2906115c4565b801561073f5780601f106107145761010080835404028352916020019161073f565b820191906000526020600020905b81548152906001019060200180831161072257829003601f168201915b505050505081565b60008060009054906101000a900473ffffffffffffffffffffffffffffffffffffffff16905090565b60008073ffffffffffffffffffffffffffffffffffffffff16600a60000160009054906101000a900473ffffffffffffffffffffffffffffffffffffffff1673ffffffffffffffffffffffffffffffffffffffff161415905090565b600280546107d9906115c4565b80601f0160208091040260200160405190810160405280929190818152602001828054610805906115c4565b80156108525780601f1061082757610100808354040283529160200191610852565b820191906000526020600020905b81548152906001019060200180831161083557829003601f168201915b505050505081565b3373ffffffffffffffffffffffffffffffffffffffff16610879610747565b73ffffffffffffffffffffffffffffffffffffffff16036108cf576040517f08c379a00000000000000000000000000000000000000000000000000000000081526004016108c69061172d565b60405180910390fd5b3373ffffffffffffffffffffffffffffffffffffffff16600a60000160009054906101000a900473ffffffffffffffffffffffffffffffffffffffff1673ffffffffffffffffffffffffffffffffffffffff1603610962576040517f08c379a000000000000000000000000000000000000000000000000000000000815260040161095990611799565b60405180910390fd5b600073ffffffffffffffffffffffffffffffffffffffff16600a60000160009054906101000a900473ffffffffffffffffffffffffffffffffffffffff1673ffffffffffffffffffffffffffffffffffffffff16146109f6576040517f08c379a00000000000000000000000000000000000000000000000000000000081526004016109ed90611805565b60405180910390fd5b33600a60000160006101000a81548173ffffffffffffffffffffffffffffffffffffffff021916908373ffffffffffffffffffffffffffffffffffffffff16021790555080600a6001019080519060200190610a5392919061105d565b5042600a600201819055507f129f67783f1fc54762392a484603d038c3007571edd583280de130581c11f1c2600a60000160009054906101000a900473ffffffffffffffffffffffffffffffffffffffff166001600a60020154604051610abc939291906116a3565b60405180910390a150565b60603373ffffffffffffffffffffffffffffffffffffffff16610ae8610747565b73ffffffffffffffffffffffffffffffffffffffff1614610b3e576040517f08c379a0000000000000000000000000000000000000000000000000000000008152600401610b3590611509565b60405180910390fd5b60098054610b4b906115c4565b80601f0160208091040260200160405190810160405280929190818152602001828054610b77906115c4565b8015610bc45780601f10610b9957610100808354040283529160200191610bc4565b820191906000526020600020905b815481529060010190602001808311610ba757829003601f168201915b5050505050905090565b60058054610bdb906115c4565b80601f0160208091040260200160405190810160405280929190818152602001828054610c07906115c4565b8015610c545780601f10610c2957610100808354040283529160200191610c54565b820191906000526020600020905b815481529060010190602001808311610c3757829003601f168201915b505050505081565b60006060803373ffffffffffffffffffffffffffffffffffffffff16610c80610747565b73ffffffffffffffffffffffffffffffffffffffff1614610cd6576040517f08c379a0000000000000000000000000000000000000000000000000000000008152600401610ccd90611509565b60405180910390fd5b600073ffffffffffffffffffffffffffffffffffffffff16600a60000160009054906101000a900473ffffffffffffffffffffffffffffffffffffffff1673ffffffffffffffffffffffffffffffffffffffff1603610d6a576040517f08c379a0000000000000000000000000000000000000000000000000000000008152600401610d6190611575565b60405180910390fd5b600a60000160009054906101000a900473ffffffffffffffffffffffffffffffffffffffff16600a6001016009818054610da3906115c4565b80601f0160208091040260200160405190810160405280929190818152602001828054610dcf906115c4565b8015610e1c5780601f10610df157610100808354040283529160200191610e1c565b820191906000526020600020905b815481529060010190602001808311610dff57829003601f168201915b50505050509150808054610e2f906115c4565b80601f0160208091040260200160405190810160405280929190818152602001828054610e5b906115c4565b8015610ea85780601f10610e7d57610100808354040283529160200191610ea8565b820191906000526020600020905b815481529060010190602001808311610e8b57829003601f168201915b50505050509050925092509250909192565b3373ffffffffffffffffffffffffffffffffffffffff16610ed9610747565b73ffffffffffffffffffffffffffffffffffffffff1614610f2f576040517f08c379a0000000000000000000000000000000000000000000000000000000008152600401610f2690611509565b60405180910390fd5b806000806101000a81548173ffffffffffffffffffffffffffffffffffffffff021916908373ffffffffffffffffffffffffffffffffffffffff16021790555050565b60008173ffffffffffffffffffffffffffffffffffffffff16600a60000160009054906101000a900473ffffffffffffffffffffffffffffffffffffffff1673ffffffffffffffffffffffffffffffffffffffff16149050919050565b60078054610fdc906115c4565b80601f0160208091040260200160405190810160405280929190818152602001828054611008906115c4565b80156110555780601f1061102a57610100808354040283529160200191611055565b820191906000526020600020905b81548152906001019060200180831161103857829003601f168201915b505050505081565b828054611069906115c4565b90600052602060002090601f01602090048101928261108b57600085556110d2565b82601f106110a457805160ff19168380011785556110d2565b828001600101855582156110d2579182015b828111156110d15782518255916020019190600101906110b6565b5b5090506110df9190611123565b5090565b5080546110ef906115c4565b6000825580601f106111015750611120565b601f01602090049060005260206000209081019061111f9190611123565b5b50565b5b8082111561113c576000816000905550600101611124565b5090565b6000604051905090565b600080fd5b600080fd5b600080fd5b600080fd5b6000601f19601f8301169050919050565b7f4e487b7100000000000000000000000000000000000000000000000000000000600052604160045260246000fd5b6111a78261115e565b810181811067ffffffffffffffff821117156111c6576111c561116f565b5b80604052505050565b60006111d9611140565b90506111e5828261119e565b919050565b600067ffffffffffffffff8211156112055761120461116f565b5b61120e8261115e565b9050602081019050919050565b82818337600083830152505050565b600061123d611238846111ea565b6111cf565b90508281526020810184848401111561125957611258611159565b5b61126484828561121b565b509392505050565b600082601f83011261128157611280611154565b5b813561129184826020860161122a565b91505092915050565b6000602082840312156112b0576112af61114a565b5b600082013567ffffffffffffffff8111156112ce576112cd61114f565b5b6112da8482850161126c565b91505092915050565b600081519050919050565b600082825260208201905092915050565b60005b8381101561131d578082015181840152602081019050611302565b8381111561132c576000848401525b50505050565b600061133d826112e3565b61134781856112ee565b93506113578185602086016112ff565b6113608161115e565b840191505092915050565b600060208201905081810360008301526113858184611332565b905092915050565b600073ffffffffffffffffffffffffffffffffffffffff82169050919050565b60006113b88261138d565b9050919050565b6113c8816113ad565b82525050565b60006020820190506113e360008301846113bf565b92915050565b60008115159050919050565b6113fe816113e9565b82525050565b600060208201905061141960008301846113f5565b92915050565b600060608201905061143460008301866113bf565b81810360208301526114468185611332565b9050818103604083015261145a8184611332565b9050949350505050565b61146d816113ad565b811461147857600080fd5b50565b60008135905061148a81611464565b92915050565b6000602082840312156114a6576114a561114a565b5b60006114b48482850161147b565b91505092915050565b7f746865206775657374206e6f7420616c6c6f7765642e00000000000000000000600082015250565b60006114f36016836112ee565b91506114fe826114bd565b602082019050919050565b60006020820190508181036000830152611522816114e6565b9050919050565b7f7468652072657175657374206973206e6f7420617661696c61626c6500000000600082015250565b600061155f601c836112ee565b915061156a82611529565b602082019050919050565b6000602082019050818103600083015261158e81611552565b9050919050565b7f4e487b7100000000000000000000000000000000000000000000000000000000600052602260045260246000fd5b600060028204905060018216806115dc57607f821691505b6020821081036115ef576115ee611595565b5b50919050565b60008190508160005260206000209050919050565b60008154611617816115c4565b61162181866112ee565b9450600182166000811461163c576001811461164e57611681565b60ff1983168652602086019350611681565b611657856115f5565b60005b838110156116795781548189015260018201915060208101905061165a565b808801955050505b50505092915050565b6000819050919050565b61169d8161168a565b82525050565b60006060820190506116b860008301866113bf565b81810360208301526116ca818561160a565b90506116d96040830184611694565b949350505050565b7f746865206f776e6572206e6f7420616c6c6f7765640000000000000000000000600082015250565b60006117176015836112ee565b9150611722826116e1565b602082019050919050565b600060208201905081810360008301526117468161170a565b9050919050565b7f796f752072657175657374656400000000000000000000000000000000000000600082015250565b6000611783600d836112ee565b915061178e8261174d565b602082019050919050565b600060208201905081810360008301526117b281611776565b9050919050565b7f74686520626f6f6b207265717565737465640000000000000000000000000000600082015250565b60006117ef6012836112ee565b91506117fa826117b9565b602082019050919050565b6000602082019050818103600083015261181e816117e2565b905091905056fea2646970667358221220bc280386964f33b676871e75f738bdd563354e989043b48ad0e4c00d54a5b0b664736f6c634300080e0033",
  "immutableReferences": {},
  "source": "// SPDX-License-Identifier: MIT\npragma solidity >=0.8.0 <0.9.0;\n\n// import \"./Signature.sol\";\nimport \"./Ownable.sol\";\n\ncontract Book is Ownable {\n    string public title;\n    string public author;\n    address public author_account;\n    string public publisher;\n    string public releaseDate;\n    string public isbn;\n    string public cover;\n    string public description;\n\n    //hash yang sudah di sign dan encrypt, hanya bisa dibuka dengan kunci private owner\n    string private documentHash;\n\n    //customer struct\n    struct RequestOwner {\n        address customer;\n        string publicKey;\n        uint256 date;\n    }\n\n    RequestOwner private _requestOwner;\n\n    event Requested(address customer, string title, uint256 date);\n    event RequestAccepted(address customer, string title, uint256 date);\n\n    constructor(\n        string memory _title,\n        string memory _author,\n        address _author_account,\n        string memory _publisher,\n        string memory _releaseDate,\n        string memory _isbn,\n        string memory _cover,\n        string memory _description,\n        string memory _hashDocument,\n        address _owner\n    ) {\n        title = _title;\n        author = _author;\n        author_account = _author_account;\n        publisher = _publisher;\n        releaseDate = _releaseDate;\n        isbn = _isbn;\n        cover = _cover;\n        description = _description;\n        documentHash = _hashDocument;\n\n        _transferOwnership(_owner);\n    }\n\n    function getDocument() external view onlyOwner returns (string memory) {\n        return documentHash;\n    }\n\n    function requestOwner(string memory _customerPublicKey) external nonOwner {\n        require(_requestOwner.customer != msg.sender, \"you requested\");\n        require(_requestOwner.customer == address(0x0), \"the book requested\");\n\n        _requestOwner.customer = msg.sender;\n        _requestOwner.publicKey = _customerPublicKey;\n        _requestOwner.date = block.timestamp;\n\n        //emit event\n        emit Requested(_requestOwner.customer, title, _requestOwner.date);\n    }\n\n    function getRequest()\n        external\n        view\n        onlyOwner\n        returns (\n            address,\n            string memory,\n            string memory\n        )\n    {\n        require(\n            _requestOwner.customer != address(0x0),\n            \"the request is not available\"\n        );\n        return (_requestOwner.customer, _requestOwner.publicKey, documentHash);\n    }\n\n    function isMyRequest(address customer) public view returns (bool) {\n        return _requestOwner.customer == customer;\n    }\n\n    function isRequested() public view returns (bool) {\n        return _requestOwner.customer != address(0x00);\n    }\n\n    function acceptRequest(string memory _hashDocument) external onlyOwner {\n        require(\n            _requestOwner.customer != address(0x0),\n            \"the request is not available\"\n        );\n\n        documentHash = _hashDocument;\n        _transferOwnership(_requestOwner.customer);\n\n        emit RequestAccepted(_requestOwner.customer, title, block.timestamp);\n\n        delete _requestOwner;\n    }\n}\n",
  "sourcePath": "/Users/jee/Studies/projects/blockchain/drmchain-dapp/application/truffle/contracts/Book.sol",
  "compiler": {
    "name": "solc",
    "version": "0.8.14+commit.80d49f37.Emscripten.clang"
  },
  "schemaVersion": "3.4.10",
  "updatedAt": "2023-01-06T01:50:48.116Z",
  "devdoc": {
    "kind": "dev",
    "methods": {},
    "version": 1
  },
  "userdoc": {
    "kind": "user",
    "methods": {},
    "version": 1
  }
}