{
  "contractName": "PublicationFactory",
  "abi": [
    {
      "anonymous": false,
      "inputs": [
        {
          "indexed": false,
          "internalType": "string",
          "name": "title",
          "type": "string"
        },
        {
          "indexed": false,
          "internalType": "address",
          "name": "owner",
          "type": "address"
        },
        {
          "indexed": false,
          "internalType": "uint256",
          "name": "date",
          "type": "uint256"
        }
      ],
      "name": "PublicationCreated",
      "type": "event"
    },
    {
      "inputs": [
        {
          "internalType": "string",
          "name": "_title",
          "type": "string"
        },
        {
          "internalType": "string",
          "name": "_author",
          "type": "string"
        },
        {
          "internalType": "address",
          "name": "_author_account",
          "type": "address"
        },
        {
          "internalType": "string",
          "name": "_publisher",
          "type": "string"
        },
        {
          "internalType": "string",
          "name": "_releaseDate",
          "type": "string"
        },
        {
          "internalType": "string",
          "name": "_isbn",
          "type": "string"
        },
        {
          "internalType": "string",
          "name": "_cover",
          "type": "string"
        },
        {
          "internalType": "string",
          "name": "_description",
          "type": "string"
        },
        {
          "internalType": "string",
          "name": "_documentHash",
          "type": "string"
        }
      ],
      "name": "createPublication",
      "outputs": [],
      "stateMutability": "nonpayable",
      "type": "function"
    },
    {
      "inputs": [],
      "name": "publicationCount",
      "outputs": [
        {
          "internalType": "uint256",
          "name": "",
          "type": "uint256"
        }
      ],
      "stateMutability": "view",
      "type": "function",
      "constant": true
    },
    {
      "inputs": [
        {
          "internalType": "uint256",
          "name": "_limit",
          "type": "uint256"
        },
        {
          "internalType": "uint256",
          "name": "_offset",
          "type": "uint256"
        }
      ],
      "name": "publications",
      "outputs": [
        {
          "internalType": "contract Publication[]",
          "name": "collections",
          "type": "address[]"
        }
      ],
      "stateMutability": "view",
      "type": "function",
      "constant": true
    },
    {
      "inputs": [],
      "name": "myPublications",
      "outputs": [
        {
          "internalType": "contract Publication[]",
          "name": "collections",
          "type": "address[]"
        }
      ],
      "stateMutability": "view",
      "type": "function",
      "constant": true
    },
    {
      "inputs": [],
      "name": "myPublicationRequests",
      "outputs": [
        {
          "internalType": "contract Publication[]",
          "name": "collections",
          "type": "address[]"
        }
      ],
      "stateMutability": "view",
      "type": "function",
      "constant": true
    }
  ],
  "bytecode": "0x608060405234801561001057600080fd5b5061336f806100206000396000f3fe60806040523480156200001157600080fd5b50600436106200005e5760003560e01c80631552cae414620000635780632db54f7d14620000855780634f18550514620000a757806350b0237d14620000c9578063b1951e3414620000ff575b600080fd5b6200006d6200011f565b6040516200007c919062000b14565b60405180910390f35b6200008f620003be565b6040516200009e919062000b53565b60405180910390f35b620000b1620003ca565b604051620000c0919062000b14565b60405180910390f35b620000e76004803603810190620000e1919062000bb5565b620006a9565b604051620000f6919062000b14565b60405180910390f35b6200011d600480360381019062000117919062000da3565b62000852565b005b60606000805b600080549050811015620002255760008082815481106200014b576200014a62000f7a565b5b9060005260206000200160009054906101000a900473ffffffffffffffffffffffffffffffffffffffff1690508073ffffffffffffffffffffffffffffffffffffffff1663db74db41336040518263ffffffff1660e01b8152600401620001b3919062000fba565b602060405180830381865afa158015620001d1573d6000803e3d6000fd5b505050506040513d601f19601f82011682018060405250810190620001f7919062001014565b156200020e5782806200020a9062001075565b9350505b5080806200021c9062001075565b91505062000125565b508067ffffffffffffffff81111562000243576200024262000c17565b5b604051908082528060200260200182016040528015620002725781602001602082028036833780820191505090505b50915060005b600080549050811015620003b95760008082815481106200029e576200029d62000f7a565b5b9060005260206000200160009054906101000a900473ffffffffffffffffffffffffffffffffffffffff1690508073ffffffffffffffffffffffffffffffffffffffff1663db74db41336040518263ffffffff1660e01b815260040162000306919062000fba565b602060405180830381865afa15801562000324573d6000803e3d6000fd5b505050506040513d601f19601f820116820180604052508101906200034a919062001014565b15620003a2578084838151811062000367576200036662000f7a565b5b602002602001019073ffffffffffffffffffffffffffffffffffffffff16908173ffffffffffffffffffffffffffffffffffffffff16815250505b508080620003b09062001075565b91505062000278565b505090565b60008080549050905090565b60606000805b600080549050811015620004f0576000808281548110620003f657620003f562000f7a565b5b9060005260206000200160009054906101000a900473ffffffffffffffffffffffffffffffffffffffff1690503373ffffffffffffffffffffffffffffffffffffffff168173ffffffffffffffffffffffffffffffffffffffff16638da5cb5b6040518163ffffffff1660e01b8152600401602060405180830381865afa15801562000486573d6000803e3d6000fd5b505050506040513d601f19601f82011682018060405250810190620004ac9190620010d9565b73ffffffffffffffffffffffffffffffffffffffff1603620004d9578280620004d59062001075565b9350505b508080620004e79062001075565b915050620003d0565b508067ffffffffffffffff8111156200050e576200050d62000c17565b5b6040519080825280602002602001820160405280156200053d5781602001602082028036833780820191505090505b50915060005b600080549050811015620006a457600080828154811062000569576200056862000f7a565b5b9060005260206000200160009054906101000a900473ffffffffffffffffffffffffffffffffffffffff1690503373ffffffffffffffffffffffffffffffffffffffff168173ffffffffffffffffffffffffffffffffffffffff16638da5cb5b6040518163ffffffff1660e01b8152600401602060405180830381865afa158015620005f9573d6000803e3d6000fd5b505050506040513d601f19601f820116820180604052508101906200061f9190620010d9565b73ffffffffffffffffffffffffffffffffffffffff16036200068d578084838151811062000652576200065162000f7a565b5b602002602001019073ffffffffffffffffffffffffffffffffffffffff16908173ffffffffffffffffffffffffffffffffffffffff16815250505b5080806200069b9062001075565b91505062000543565b505090565b6060600080549050821115620006f6576040517f08c379a0000000000000000000000000000000000000000000000000000000008152600401620006ed906200116c565b60405180910390fd5b6000601490506000836000805490506200071191906200118e565b905084811062000722578462000724565b805b905081811062000735578162000737565b805b90508067ffffffffffffffff81111562000756576200075562000c17565b5b604051908082528060200260200182016040528015620007855781602001602082028036833780820191505090505b50925060005b81811015620008495760008186620007a49190620011c9565b81548110620007b857620007b762000f7a565b5b9060005260206000200160009054906101000a900473ffffffffffffffffffffffffffffffffffffffff16848281518110620007f957620007f862000f7a565b5b602002602001019073ffffffffffffffffffffffffffffffffffffffff16908173ffffffffffffffffffffffffffffffffffffffff16815250508080620008409062001075565b9150506200078b565b50505092915050565b6000898989898989898989336040516200086c90620009be565b620008819a99989796959493929190620012a8565b604051809103906000f0801580156200089e573d6000803e3d6000fd5b5090506000819080600181540180825580915050600190039060005260206000200160009091909190916101000a81548173ffffffffffffffffffffffffffffffffffffffff021916908373ffffffffffffffffffffffffffffffffffffffff1602179055507f70b511d3a9fc8f857bc881c5277d9ea99ee81b07be7f56373808d93ce3ccf8088a8273ffffffffffffffffffffffffffffffffffffffff16638da5cb5b6040518163ffffffff1660e01b8152600401602060405180830381865afa15801562000972573d6000803e3d6000fd5b505050506040513d601f19601f82011682018060405250810190620009989190620010d9565b42604051620009aa9392919062001390565b60405180910390a150505050505050505050565b611f6580620013d583390190565b600081519050919050565b600082825260208201905092915050565b6000819050602082019050919050565b600073ffffffffffffffffffffffffffffffffffffffff82169050919050565b6000819050919050565b600062000a4362000a3d62000a3784620009f8565b62000a18565b620009f8565b9050919050565b600062000a578262000a22565b9050919050565b600062000a6b8262000a4a565b9050919050565b62000a7d8162000a5e565b82525050565b600062000a91838362000a72565b60208301905092915050565b6000602082019050919050565b600062000ab782620009cc565b62000ac38185620009d7565b935062000ad083620009e8565b8060005b8381101562000b0757815162000aeb888262000a83565b975062000af88362000a9d565b92505060018101905062000ad4565b5085935050505092915050565b6000602082019050818103600083015262000b30818462000aaa565b905092915050565b6000819050919050565b62000b4d8162000b38565b82525050565b600060208201905062000b6a600083018462000b42565b92915050565b6000604051905090565b600080fd5b600080fd5b62000b8f8162000b38565b811462000b9b57600080fd5b50565b60008135905062000baf8162000b84565b92915050565b6000806040838503121562000bcf5762000bce62000b7a565b5b600062000bdf8582860162000b9e565b925050602062000bf28582860162000b9e565b9150509250929050565b600080fd5b600080fd5b6000601f19601f8301169050919050565b7f4e487b7100000000000000000000000000000000000000000000000000000000600052604160045260246000fd5b62000c518262000c06565b810181811067ffffffffffffffff8211171562000c735762000c7262000c17565b5b80604052505050565b600062000c8862000b70565b905062000c96828262000c46565b919050565b600067ffffffffffffffff82111562000cb95762000cb862000c17565b5b62000cc48262000c06565b9050602081019050919050565b82818337600083830152505050565b600062000cf762000cf18462000c9b565b62000c7c565b90508281526020810184848401111562000d165762000d1562000c01565b5b62000d2384828562000cd1565b509392505050565b600082601f83011262000d435762000d4262000bfc565b5b813562000d5584826020860162000ce0565b91505092915050565b600062000d6b82620009f8565b9050919050565b62000d7d8162000d5e565b811462000d8957600080fd5b50565b60008135905062000d9d8162000d72565b92915050565b60008060008060008060008060006101208a8c03121562000dc95762000dc862000b7a565b5b60008a013567ffffffffffffffff81111562000dea5762000de962000b7f565b5b62000df88c828d0162000d2b565b99505060208a013567ffffffffffffffff81111562000e1c5762000e1b62000b7f565b5b62000e2a8c828d0162000d2b565b985050604062000e3d8c828d0162000d8c565b97505060608a013567ffffffffffffffff81111562000e615762000e6062000b7f565b5b62000e6f8c828d0162000d2b565b96505060808a013567ffffffffffffffff81111562000e935762000e9262000b7f565b5b62000ea18c828d0162000d2b565b95505060a08a013567ffffffffffffffff81111562000ec55762000ec462000b7f565b5b62000ed38c828d0162000d2b565b94505060c08a013567ffffffffffffffff81111562000ef75762000ef662000b7f565b5b62000f058c828d0162000d2b565b93505060e08a013567ffffffffffffffff81111562000f295762000f2862000b7f565b5b62000f378c828d0162000d2b565b9250506101008a013567ffffffffffffffff81111562000f5c5762000f5b62000b7f565b5b62000f6a8c828d0162000d2b565b9150509295985092959850929598565b7f4e487b7100000000000000000000000000000000000000000000000000000000600052603260045260246000fd5b62000fb48162000d5e565b82525050565b600060208201905062000fd1600083018462000fa9565b92915050565b60008115159050919050565b62000fee8162000fd7565b811462000ffa57600080fd5b50565b6000815190506200100e8162000fe3565b92915050565b6000602082840312156200102d576200102c62000b7a565b5b60006200103d8482850162000ffd565b91505092915050565b7f4e487b7100000000000000000000000000000000000000000000000000000000600052601160045260246000fd5b6000620010828262000b38565b91507fffffffffffffffffffffffffffffffffffffffffffffffffffffffffffffffff8203620010b757620010b662001046565b5b600182019050919050565b600081519050620010d38162000d72565b92915050565b600060208284031215620010f257620010f162000b7a565b5b60006200110284828501620010c2565b91505092915050565b600082825260208201905092915050565b7f6f6666736574206f7574206f6620626f756e6473000000000000000000000000600082015250565b6000620011546014836200110b565b915062001161826200111c565b602082019050919050565b60006020820190508181036000830152620011878162001145565b9050919050565b60006200119b8262000b38565b9150620011a88362000b38565b925082821015620011be57620011bd62001046565b5b828203905092915050565b6000620011d68262000b38565b9150620011e38362000b38565b9250827fffffffffffffffffffffffffffffffffffffffffffffffffffffffffffffffff038211156200121b576200121a62001046565b5b828201905092915050565b600081519050919050565b60005b838110156200125157808201518184015260208101905062001234565b8381111562001261576000848401525b50505050565b6000620012748262001226565b6200128081856200110b565b93506200129281856020860162001231565b6200129d8162000c06565b840191505092915050565b6000610140820190508181036000830152620012c5818d62001267565b90508181036020830152620012db818c62001267565b9050620012ec604083018b62000fa9565b818103606083015262001300818a62001267565b9050818103608083015262001316818962001267565b905081810360a08301526200132c818862001267565b905081810360c083015262001342818762001267565b905081810360e083015262001358818662001267565b90508181036101008301526200136f818562001267565b90506200138161012083018462000fa9565b9b9a5050505050505050505050565b60006060820190508181036000830152620013ac818662001267565b9050620013bd602083018562000fa9565b620013cc604083018462000b42565b94935050505056fe60806040523480156200001157600080fd5b5060405162001f6538038062001f6583398181016040528101906200003791906200053f565b336000806101000a81548173ffffffffffffffffffffffffffffffffffffffff021916908373ffffffffffffffffffffffffffffffffffffffff16021790555089600190805190602001906200008f9291906200028d565b508860029080519060200190620000a89291906200028d565b5087600360006101000a81548173ffffffffffffffffffffffffffffffffffffffff021916908373ffffffffffffffffffffffffffffffffffffffff1602179055508660049080519060200190620001029291906200028d565b5085600590805190602001906200011b9291906200028d565b508460069080519060200190620001349291906200028d565b5083600790805190602001906200014d9291906200028d565b508260089080519060200190620001669291906200028d565b5081600990805190602001906200017f9291906200028d565b506200019181620001a160201b60201c565b5050505050505050505062000814565b3373ffffffffffffffffffffffffffffffffffffffff16620001c86200026460201b60201c565b73ffffffffffffffffffffffffffffffffffffffff161462000221576040517f08c379a000000000000000000000000000000000000000000000000000000000815260040162000218906200078e565b60405180910390fd5b806000806101000a81548173ffffffffffffffffffffffffffffffffffffffff021916908373ffffffffffffffffffffffffffffffffffffffff16021790555050565b60008060009054906101000a900473ffffffffffffffffffffffffffffffffffffffff16905090565b8280546200029b90620007df565b90600052602060002090601f016020900481019282620002bf57600085556200030b565b82601f10620002da57805160ff19168380011785556200030b565b828001600101855582156200030b579182015b828111156200030a578251825591602001919060010190620002ed565b5b5090506200031a91906200031e565b5090565b5b80821115620003395760008160009055506001016200031f565b5090565b6000604051905090565b600080fd5b600080fd5b600080fd5b600080fd5b6000601f19601f8301169050919050565b7f4e487b7100000000000000000000000000000000000000000000000000000000600052604160045260246000fd5b620003a6826200035b565b810181811067ffffffffffffffff82111715620003c857620003c76200036c565b5b80604052505050565b6000620003dd6200033d565b9050620003eb82826200039b565b919050565b600067ffffffffffffffff8211156200040e576200040d6200036c565b5b62000419826200035b565b9050602081019050919050565b60005b838110156200044657808201518184015260208101905062000429565b8381111562000456576000848401525b50505050565b6000620004736200046d84620003f0565b620003d1565b90508281526020810184848401111562000492576200049162000356565b5b6200049f84828562000426565b509392505050565b600082601f830112620004bf57620004be62000351565b5b8151620004d18482602086016200045c565b91505092915050565b600073ffffffffffffffffffffffffffffffffffffffff82169050919050565b60006200050782620004da565b9050919050565b6200051981620004fa565b81146200052557600080fd5b50565b60008151905062000539816200050e565b92915050565b6000806000806000806000806000806101408b8d03121562000566576200056562000347565b5b60008b015167ffffffffffffffff8111156200058757620005866200034c565b5b620005958d828e01620004a7565b9a505060208b015167ffffffffffffffff811115620005b957620005b86200034c565b5b620005c78d828e01620004a7565b9950506040620005da8d828e0162000528565b98505060608b015167ffffffffffffffff811115620005fe57620005fd6200034c565b5b6200060c8d828e01620004a7565b97505060808b015167ffffffffffffffff81111562000630576200062f6200034c565b5b6200063e8d828e01620004a7565b96505060a08b015167ffffffffffffffff8111156200066257620006616200034c565b5b620006708d828e01620004a7565b95505060c08b015167ffffffffffffffff8111156200069457620006936200034c565b5b620006a28d828e01620004a7565b94505060e08b015167ffffffffffffffff811115620006c657620006c56200034c565b5b620006d48d828e01620004a7565b9350506101008b015167ffffffffffffffff811115620006f957620006f86200034c565b5b620007078d828e01620004a7565b9250506101206200071b8d828e0162000528565b9150509295989b9194979a5092959850565b600082825260208201905092915050565b7f746865206775657374206e6f7420616c6c6f7765642e00000000000000000000600082015250565b6000620007766016836200072d565b915062000783826200073e565b602082019050919050565b60006020820190508181036000830152620007a98162000767565b9050919050565b7f4e487b7100000000000000000000000000000000000000000000000000000000600052602260045260246000fd5b60006002820490506001821680620007f857607f821691505b6020821081036200080e576200080d620007b0565b5b50919050565b61174180620008246000396000f3fe608060405234801561001057600080fd5b50600436106100f55760003560e01c8063a6c3e6b911610097578063c2bb515f11610066578063c2bb515f14610240578063d29d44ee1461025f578063db74db411461027b578063e7d931e4146102ab576100f5565b8063a6c3e6b9146101ca578063b46f0af2146101e8578063b6f3f14d14610204578063b9e3e2db14610222576100f5565b80637284e416116100d35780637284e416146101545780638c72c54e146101725780638da5cb5b146101905780639a8e49a4146101ae576100f5565b80634a79d50c146100fa578063542a233f146101185780636929b85d14610136575b600080fd5b6101026102c9565b60405161010f9190611078565b60405180910390f35b610120610357565b60405161012d91906110db565b60405180910390f35b61013e61037d565b60405161014b9190611078565b60405180910390f35b61015c61040b565b6040516101699190611078565b60405180910390f35b61017a610499565b6040516101879190611078565b60405180910390f35b610198610527565b6040516101a591906110db565b60405180910390f35b6101c860048036038101906101c3919061126b565b610550565b005b6101d26106fd565b6040516101df9190611078565b60405180910390f35b61020260048036038101906101fd91906112c7565b61078b565b005b61020c6109f8565b6040516102199190611078565b60405180910390f35b61022a610aff565b6040516102379190611078565b60405180910390f35b610248610b8d565b604051610256929190611310565b60405180910390f35b61027960048036038101906102749190611340565b610d59565b005b61029560048036038101906102909190611340565b610e11565b6040516102a29190611388565b60405180910390f35b6102b3610e6e565b6040516102c09190611078565b60405180910390f35b600180546102d6906113d2565b80601f0160208091040260200160405190810160405280929190818152602001828054610302906113d2565b801561034f5780601f106103245761010080835404028352916020019161034f565b820191906000526020600020905b81548152906001019060200180831161033257829003601f168201915b505050505081565b600360009054906101000a900473ffffffffffffffffffffffffffffffffffffffff1681565b6006805461038a906113d2565b80601f01602080910402602001604051908101604052809291908181526020018280546103b6906113d2565b80156104035780601f106103d857610100808354040283529160200191610403565b820191906000526020600020905b8154815290600101906020018083116103e657829003601f168201915b505050505081565b60088054610418906113d2565b80601f0160208091040260200160405190810160405280929190818152602001828054610444906113d2565b80156104915780601f1061046657610100808354040283529160200191610491565b820191906000526020600020905b81548152906001019060200180831161047457829003601f168201915b505050505081565b600480546104a6906113d2565b80601f01602080910402602001604051908101604052809291908181526020018280546104d2906113d2565b801561051f5780601f106104f45761010080835404028352916020019161051f565b820191906000526020600020905b81548152906001019060200180831161050257829003601f168201915b505050505081565b60008060009054906101000a900473ffffffffffffffffffffffffffffffffffffffff16905090565b3373ffffffffffffffffffffffffffffffffffffffff1661056f610527565b73ffffffffffffffffffffffffffffffffffffffff16146105c5576040517f08c379a00000000000000000000000000000000000000000000000000000000081526004016105bc9061144f565b60405180910390fd5b600073ffffffffffffffffffffffffffffffffffffffff16600a60000160009054906101000a900473ffffffffffffffffffffffffffffffffffffffff1673ffffffffffffffffffffffffffffffffffffffff1603610659576040517f08c379a0000000000000000000000000000000000000000000000000000000008152600401610650906114bb565b60405180910390fd5b806009908051906020019061066f929190610efc565b5061067982610d59565b600a600080820160006101000a81549073ffffffffffffffffffffffffffffffffffffffff02191690556001820160006106b39190610f82565b600282016000905550507feac7352a6c43aae51b89275a053c14ef2cf07f1856943c50a5f55fb28f4a36c0826001426040516106f193929190611589565b60405180910390a15050565b6002805461070a906113d2565b80601f0160208091040260200160405190810160405280929190818152602001828054610736906113d2565b80156107835780601f1061075857610100808354040283529160200191610783565b820191906000526020600020905b81548152906001019060200180831161076657829003601f168201915b505050505081565b3373ffffffffffffffffffffffffffffffffffffffff166107aa610527565b73ffffffffffffffffffffffffffffffffffffffff1603610800576040517f08c379a00000000000000000000000000000000000000000000000000000000081526004016107f790611613565b60405180910390fd5b3373ffffffffffffffffffffffffffffffffffffffff16600a60000160009054906101000a900473ffffffffffffffffffffffffffffffffffffffff1673ffffffffffffffffffffffffffffffffffffffff1603610893576040517f08c379a000000000000000000000000000000000000000000000000000000000815260040161088a9061167f565b60405180910390fd5b600073ffffffffffffffffffffffffffffffffffffffff16600a60000160009054906101000a900473ffffffffffffffffffffffffffffffffffffffff1673ffffffffffffffffffffffffffffffffffffffff1614610927576040517f08c379a000000000000000000000000000000000000000000000000000000000815260040161091e906116eb565b60405180910390fd5b33600a60000160006101000a81548173ffffffffffffffffffffffffffffffffffffffff021916908373ffffffffffffffffffffffffffffffffffffffff16021790555080600a6001019080519060200190610984929190610efc565b5042600a600201819055507f129f67783f1fc54762392a484603d038c3007571edd583280de130581c11f1c2600a60000160009054906101000a900473ffffffffffffffffffffffffffffffffffffffff166001600a600201546040516109ed93929190611589565b60405180910390a150565b60603373ffffffffffffffffffffffffffffffffffffffff16610a19610527565b73ffffffffffffffffffffffffffffffffffffffff1614610a6f576040517f08c379a0000000000000000000000000000000000000000000000000000000008152600401610a669061144f565b60405180910390fd5b60098054610a7c906113d2565b80601f0160208091040260200160405190810160405280929190818152602001828054610aa8906113d2565b8015610af55780601f10610aca57610100808354040283529160200191610af5565b820191906000526020600020905b815481529060010190602001808311610ad857829003601f168201915b5050505050905090565b60058054610b0c906113d2565b80601f0160208091040260200160405190810160405280929190818152602001828054610b38906113d2565b8015610b855780601f10610b5a57610100808354040283529160200191610b85565b820191906000526020600020905b815481529060010190602001808311610b6857829003601f168201915b505050505081565b600060603373ffffffffffffffffffffffffffffffffffffffff16610bb0610527565b73ffffffffffffffffffffffffffffffffffffffff1614610c06576040517f08c379a0000000000000000000000000000000000000000000000000000000008152600401610bfd9061144f565b60405180910390fd5b600073ffffffffffffffffffffffffffffffffffffffff16600a60000160009054906101000a900473ffffffffffffffffffffffffffffffffffffffff1673ffffffffffffffffffffffffffffffffffffffff1603610c9a576040517f08c379a0000000000000000000000000000000000000000000000000000000008152600401610c91906114bb565b60405180910390fd5b600a60000160009054906101000a900473ffffffffffffffffffffffffffffffffffffffff16600a600101808054610cd1906113d2565b80601f0160208091040260200160405190810160405280929190818152602001828054610cfd906113d2565b8015610d4a5780601f10610d1f57610100808354040283529160200191610d4a565b820191906000526020600020905b815481529060010190602001808311610d2d57829003601f168201915b50505050509050915091509091565b3373ffffffffffffffffffffffffffffffffffffffff16610d78610527565b73ffffffffffffffffffffffffffffffffffffffff1614610dce576040517f08c379a0000000000000000000000000000000000000000000000000000000008152600401610dc59061144f565b60405180910390fd5b806000806101000a81548173ffffffffffffffffffffffffffffffffffffffff021916908373ffffffffffffffffffffffffffffffffffffffff16021790555050565b60008173ffffffffffffffffffffffffffffffffffffffff16600a60000160009054906101000a900473ffffffffffffffffffffffffffffffffffffffff1673ffffffffffffffffffffffffffffffffffffffff16149050919050565b60078054610e7b906113d2565b80601f0160208091040260200160405190810160405280929190818152602001828054610ea7906113d2565b8015610ef45780601f10610ec957610100808354040283529160200191610ef4565b820191906000526020600020905b815481529060010190602001808311610ed757829003601f168201915b505050505081565b828054610f08906113d2565b90600052602060002090601f016020900481019282610f2a5760008555610f71565b82601f10610f4357805160ff1916838001178555610f71565b82800160010185558215610f71579182015b82811115610f70578251825591602001919060010190610f55565b5b509050610f7e9190610fc2565b5090565b508054610f8e906113d2565b6000825580601f10610fa05750610fbf565b601f016020900490600052602060002090810190610fbe9190610fc2565b5b50565b5b80821115610fdb576000816000905550600101610fc3565b5090565b600081519050919050565b600082825260208201905092915050565b60005b83811015611019578082015181840152602081019050610ffe565b83811115611028576000848401525b50505050565b6000601f19601f8301169050919050565b600061104a82610fdf565b6110548185610fea565b9350611064818560208601610ffb565b61106d8161102e565b840191505092915050565b60006020820190508181036000830152611092818461103f565b905092915050565b600073ffffffffffffffffffffffffffffffffffffffff82169050919050565b60006110c58261109a565b9050919050565b6110d5816110ba565b82525050565b60006020820190506110f060008301846110cc565b92915050565b6000604051905090565b600080fd5b600080fd5b611113816110ba565b811461111e57600080fd5b50565b6000813590506111308161110a565b92915050565b600080fd5b600080fd5b7f4e487b7100000000000000000000000000000000000000000000000000000000600052604160045260246000fd5b6111788261102e565b810181811067ffffffffffffffff8211171561119757611196611140565b5b80604052505050565b60006111aa6110f6565b90506111b6828261116f565b919050565b600067ffffffffffffffff8211156111d6576111d5611140565b5b6111df8261102e565b9050602081019050919050565b82818337600083830152505050565b600061120e611209846111bb565b6111a0565b90508281526020810184848401111561122a5761122961113b565b5b6112358482856111ec565b509392505050565b600082601f83011261125257611251611136565b5b81356112628482602086016111fb565b91505092915050565b6000806040838503121561128257611281611100565b5b600061129085828601611121565b925050602083013567ffffffffffffffff8111156112b1576112b0611105565b5b6112bd8582860161123d565b9150509250929050565b6000602082840312156112dd576112dc611100565b5b600082013567ffffffffffffffff8111156112fb576112fa611105565b5b6113078482850161123d565b91505092915050565b600060408201905061132560008301856110cc565b8181036020830152611337818461103f565b90509392505050565b60006020828403121561135657611355611100565b5b600061136484828501611121565b91505092915050565b60008115159050919050565b6113828161136d565b82525050565b600060208201905061139d6000830184611379565b92915050565b7f4e487b7100000000000000000000000000000000000000000000000000000000600052602260045260246000fd5b600060028204905060018216806113ea57607f821691505b6020821081036113fd576113fc6113a3565b5b50919050565b7f746865206775657374206e6f7420616c6c6f7765642e00000000000000000000600082015250565b6000611439601683610fea565b915061144482611403565b602082019050919050565b600060208201905081810360008301526114688161142c565b9050919050565b7f7468652072657175657374206973206e6f7420617661696c61626c6500000000600082015250565b60006114a5601c83610fea565b91506114b08261146f565b602082019050919050565b600060208201905081810360008301526114d481611498565b9050919050565b60008190508160005260206000209050919050565b600081546114fd816113d2565b6115078186610fea565b94506001821660008114611522576001811461153457611567565b60ff1983168652602086019350611567565b61153d856114db565b60005b8381101561155f57815481890152600182019150602081019050611540565b808801955050505b50505092915050565b6000819050919050565b61158381611570565b82525050565b600060608201905061159e60008301866110cc565b81810360208301526115b081856114f0565b90506115bf604083018461157a565b949350505050565b7f746865206f776e6572206e6f7420616c6c6f7765640000000000000000000000600082015250565b60006115fd601583610fea565b9150611608826115c7565b602082019050919050565b6000602082019050818103600083015261162c816115f0565b9050919050565b7f796f752072657175657374656400000000000000000000000000000000000000600082015250565b6000611669600d83610fea565b915061167482611633565b602082019050919050565b600060208201905081810360008301526116988161165c565b9050919050565b7f746865207075626c69636174696f6e2072657175657374656400000000000000600082015250565b60006116d5601983610fea565b91506116e08261169f565b602082019050919050565b60006020820190508181036000830152611704816116c8565b905091905056fea264697066735822122027ac036903a9c21f47a89f79b43c7af29e1f6b79af3474c079fdcef8365c8f5064736f6c634300080e0033a2646970667358221220fe837b005ccfdb6f591697b7795fa483fd7f419b54bb61ec1df83983a91fd30464736f6c634300080e0033",
  "immutableReferences": {},
  "source": "// SPDX-License-Identifier: MIT\npragma solidity >=0.8.0 <0.9.0;\n\nimport \"./Publication.sol\";\n\ncontract PublicationFactory {\n    //for public info\n    Publication[] private _publications;\n\n    event PublicationCreated(string title, address owner, uint256 date);\n\n    function createPublication(\n        string memory _title,\n        string memory _author,\n        address _author_account,\n        string memory _publisher,\n        string memory _releaseDate,\n        string memory _isbn,\n        string memory _cover,\n        string memory _description,\n        string memory _documentHash\n    ) public {\n        Publication publication = new Publication(\n            _title,\n            _author,\n            _author_account,\n            _publisher,\n            _releaseDate,\n            _isbn,\n            _cover,\n            _description,\n            _documentHash,\n            msg.sender\n        );\n\n        _publications.push(publication);\n\n        emit PublicationCreated(_title, publication.owner(), block.timestamp);\n    }\n\n    function publicationCount() external view returns (uint256) {\n        return _publications.length;\n    }\n\n    function publications(uint256 _limit, uint256 _offset)\n        public\n        view\n        returns (Publication[] memory collections)\n    {\n        require(_offset <= _publications.length, \"offset out of bounds\");\n        uint256 maxlimit = 20;\n        uint256 size = _publications.length - _offset;\n        size = size < _limit ? size : _limit;\n        size = size < maxlimit ? size : maxlimit;\n\n        collections = new Publication[](size);\n\n        for (uint256 i = 0; i < size; i++) {\n            collections[i] = _publications[_offset + i];\n        }\n\n        return collections;\n    }\n\n    function myPublications()\n        external\n        view\n        returns (Publication[] memory collections)\n    {\n        uint256 size = 0;\n        for (uint256 i = 0; i < _publications.length; i++) {\n            Publication pub = _publications[i];\n            if (pub.owner() == msg.sender) size++;\n        }\n\n        collections = new Publication[](size);\n        for (uint256 i = 0; i < _publications.length; i++) {\n            Publication pub = _publications[i];\n            if (pub.owner() == msg.sender) collections[i] = pub;\n        }\n\n        return collections;\n    }\n\n    function myPublicationRequests()\n        external\n        view\n        returns (Publication[] memory collections)\n    {\n        uint256 size = 0;\n        for (uint256 i = 0; i < _publications.length; i++) {\n            Publication pub = _publications[i];\n            if (pub.isMyRequest(msg.sender)) size++;\n        }\n\n        collections = new Publication[](size);\n        for (uint256 i = 0; i < _publications.length; i++) {\n            Publication pub = _publications[i];\n            if (pub.isMyRequest(msg.sender)) collections[i] = pub;\n        }\n\n        return collections;\n    }\n}\n",
  "sourcePath": "/Users/jee/Studies/projects/blockchain/drmchain-dapp/application/truffle/contracts/PublicationFactory.sol",
  "compiler": {
    "name": "solc",
    "version": "0.8.14+commit.80d49f37.Emscripten.clang"
  },
  "schemaVersion": "3.4.10",
  "updatedAt": "2022-12-31T08:47:41.515Z",
  "networkType": "ethereum",
  "devdoc": {
    "kind": "dev",
    "methods": {},
    "version": 1
  },
  "userdoc": {
    "kind": "user",
    "methods": {},
    "version": 1
  }
}