{
  "contractName": "Publication",
  "abi": [
    {
      "inputs": [
        {
          "internalType": "string",
          "name": "_title",
          "type": "string"
        },
        {
          "internalType": "string",
          "name": "_author",
          "type": "string"
        },
        {
          "internalType": "address",
          "name": "_author_account",
          "type": "address"
        },
        {
          "internalType": "string",
          "name": "_publisher",
          "type": "string"
        },
        {
          "internalType": "string",
          "name": "_releaseDate",
          "type": "string"
        },
        {
          "internalType": "string",
          "name": "_isbn",
          "type": "string"
        },
        {
          "internalType": "string",
          "name": "_cover",
          "type": "string"
        },
        {
          "internalType": "string",
          "name": "_description",
          "type": "string"
        },
        {
          "internalType": "string",
          "name": "_hashDocument",
          "type": "string"
        },
        {
          "internalType": "address",
          "name": "_owner",
          "type": "address"
        }
      ],
      "stateMutability": "nonpayable",
      "type": "constructor"
    },
    {
      "anonymous": false,
      "inputs": [
        {
          "indexed": false,
          "internalType": "address",
          "name": "customer",
          "type": "address"
        },
        {
          "indexed": false,
          "internalType": "string",
          "name": "title",
          "type": "string"
        },
        {
          "indexed": false,
          "internalType": "uint256",
          "name": "date",
          "type": "uint256"
        }
      ],
      "name": "RequestAccepted",
      "type": "event"
    },
    {
      "anonymous": false,
      "inputs": [
        {
          "indexed": false,
          "internalType": "address",
          "name": "customer",
          "type": "address"
        },
        {
          "indexed": false,
          "internalType": "string",
          "name": "title",
          "type": "string"
        },
        {
          "indexed": false,
          "internalType": "uint256",
          "name": "date",
          "type": "uint256"
        }
      ],
      "name": "Requested",
      "type": "event"
    },
    {
      "inputs": [
        {
          "internalType": "address",
          "name": "newOwner",
          "type": "address"
        }
      ],
      "name": "_transferOwnership",
      "outputs": [],
      "stateMutability": "nonpayable",
      "type": "function"
    },
    {
      "inputs": [],
      "name": "author",
      "outputs": [
        {
          "internalType": "string",
          "name": "",
          "type": "string"
        }
      ],
      "stateMutability": "view",
      "type": "function"
    },
    {
      "inputs": [],
      "name": "author_account",
      "outputs": [
        {
          "internalType": "address",
          "name": "",
          "type": "address"
        }
      ],
      "stateMutability": "view",
      "type": "function"
    },
    {
      "inputs": [],
      "name": "cover",
      "outputs": [
        {
          "internalType": "string",
          "name": "",
          "type": "string"
        }
      ],
      "stateMutability": "view",
      "type": "function"
    },
    {
      "inputs": [],
      "name": "description",
      "outputs": [
        {
          "internalType": "string",
          "name": "",
          "type": "string"
        }
      ],
      "stateMutability": "view",
      "type": "function"
    },
    {
      "inputs": [],
      "name": "isbn",
      "outputs": [
        {
          "internalType": "string",
          "name": "",
          "type": "string"
        }
      ],
      "stateMutability": "view",
      "type": "function"
    },
    {
      "inputs": [],
      "name": "owner",
      "outputs": [
        {
          "internalType": "address",
          "name": "",
          "type": "address"
        }
      ],
      "stateMutability": "view",
      "type": "function"
    },
    {
      "inputs": [],
      "name": "publisher",
      "outputs": [
        {
          "internalType": "string",
          "name": "",
          "type": "string"
        }
      ],
      "stateMutability": "view",
      "type": "function"
    },
    {
      "inputs": [],
      "name": "releaseDate",
      "outputs": [
        {
          "internalType": "string",
          "name": "",
          "type": "string"
        }
      ],
      "stateMutability": "view",
      "type": "function"
    },
    {
      "inputs": [],
      "name": "title",
      "outputs": [
        {
          "internalType": "string",
          "name": "",
          "type": "string"
        }
      ],
      "stateMutability": "view",
      "type": "function"
    },
    {
      "inputs": [],
      "name": "getDocument",
      "outputs": [
        {
          "internalType": "string",
          "name": "",
          "type": "string"
        }
      ],
      "stateMutability": "view",
      "type": "function"
    },
    {
      "inputs": [
        {
          "internalType": "string",
          "name": "_customerPublicKey",
          "type": "string"
        }
      ],
      "name": "requestOwner",
      "outputs": [],
      "stateMutability": "nonpayable",
      "type": "function"
    },
    {
      "inputs": [],
      "name": "getRequest",
      "outputs": [
        {
          "internalType": "address",
          "name": "",
          "type": "address"
        },
        {
          "internalType": "string",
          "name": "",
          "type": "string"
        }
      ],
      "stateMutability": "view",
      "type": "function"
    },
    {
      "inputs": [
        {
          "internalType": "address",
          "name": "customer",
          "type": "address"
        }
      ],
      "name": "isMyRequest",
      "outputs": [
        {
          "internalType": "bool",
          "name": "",
          "type": "bool"
        }
      ],
      "stateMutability": "view",
      "type": "function"
    },
    {
      "inputs": [
        {
          "internalType": "address",
          "name": "_customer",
          "type": "address"
        },
        {
          "internalType": "string",
          "name": "_hashDocument",
          "type": "string"
        }
      ],
      "name": "acceptRequest",
      "outputs": [],
      "stateMutability": "nonpayable",
      "type": "function"
    }
  ],
  "bytecode": "0x60806040523480156200001157600080fd5b5060405162001f6538038062001f6583398181016040528101906200003791906200053f565b336000806101000a81548173ffffffffffffffffffffffffffffffffffffffff021916908373ffffffffffffffffffffffffffffffffffffffff16021790555089600190805190602001906200008f9291906200028d565b508860029080519060200190620000a89291906200028d565b5087600360006101000a81548173ffffffffffffffffffffffffffffffffffffffff021916908373ffffffffffffffffffffffffffffffffffffffff1602179055508660049080519060200190620001029291906200028d565b5085600590805190602001906200011b9291906200028d565b508460069080519060200190620001349291906200028d565b5083600790805190602001906200014d9291906200028d565b508260089080519060200190620001669291906200028d565b5081600990805190602001906200017f9291906200028d565b506200019181620001a160201b60201c565b5050505050505050505062000814565b3373ffffffffffffffffffffffffffffffffffffffff16620001c86200026460201b60201c565b73ffffffffffffffffffffffffffffffffffffffff161462000221576040517f08c379a000000000000000000000000000000000000000000000000000000000815260040162000218906200078e565b60405180910390fd5b806000806101000a81548173ffffffffffffffffffffffffffffffffffffffff021916908373ffffffffffffffffffffffffffffffffffffffff16021790555050565b60008060009054906101000a900473ffffffffffffffffffffffffffffffffffffffff16905090565b8280546200029b90620007df565b90600052602060002090601f016020900481019282620002bf57600085556200030b565b82601f10620002da57805160ff19168380011785556200030b565b828001600101855582156200030b579182015b828111156200030a578251825591602001919060010190620002ed565b5b5090506200031a91906200031e565b5090565b5b80821115620003395760008160009055506001016200031f565b5090565b6000604051905090565b600080fd5b600080fd5b600080fd5b600080fd5b6000601f19601f8301169050919050565b7f4e487b7100000000000000000000000000000000000000000000000000000000600052604160045260246000fd5b620003a6826200035b565b810181811067ffffffffffffffff82111715620003c857620003c76200036c565b5b80604052505050565b6000620003dd6200033d565b9050620003eb82826200039b565b919050565b600067ffffffffffffffff8211156200040e576200040d6200036c565b5b62000419826200035b565b9050602081019050919050565b60005b838110156200044657808201518184015260208101905062000429565b8381111562000456576000848401525b50505050565b6000620004736200046d84620003f0565b620003d1565b90508281526020810184848401111562000492576200049162000356565b5b6200049f84828562000426565b509392505050565b600082601f830112620004bf57620004be62000351565b5b8151620004d18482602086016200045c565b91505092915050565b600073ffffffffffffffffffffffffffffffffffffffff82169050919050565b60006200050782620004da565b9050919050565b6200051981620004fa565b81146200052557600080fd5b50565b60008151905062000539816200050e565b92915050565b6000806000806000806000806000806101408b8d03121562000566576200056562000347565b5b60008b015167ffffffffffffffff8111156200058757620005866200034c565b5b620005958d828e01620004a7565b9a505060208b015167ffffffffffffffff811115620005b957620005b86200034c565b5b620005c78d828e01620004a7565b9950506040620005da8d828e0162000528565b98505060608b015167ffffffffffffffff811115620005fe57620005fd6200034c565b5b6200060c8d828e01620004a7565b97505060808b015167ffffffffffffffff81111562000630576200062f6200034c565b5b6200063e8d828e01620004a7565b96505060a08b015167ffffffffffffffff8111156200066257620006616200034c565b5b620006708d828e01620004a7565b95505060c08b015167ffffffffffffffff8111156200069457620006936200034c565b5b620006a28d828e01620004a7565b94505060e08b015167ffffffffffffffff811115620006c657620006c56200034c565b5b620006d48d828e01620004a7565b9350506101008b015167ffffffffffffffff811115620006f957620006f86200034c565b5b620007078d828e01620004a7565b9250506101206200071b8d828e0162000528565b9150509295989b9194979a5092959850565b600082825260208201905092915050565b7f746865206775657374206e6f7420616c6c6f7765642e00000000000000000000600082015250565b6000620007766016836200072d565b915062000783826200073e565b602082019050919050565b60006020820190508181036000830152620007a98162000767565b9050919050565b7f4e487b7100000000000000000000000000000000000000000000000000000000600052602260045260246000fd5b60006002820490506001821680620007f857607f821691505b6020821081036200080e576200080d620007b0565b5b50919050565b61174180620008246000396000f3fe608060405234801561001057600080fd5b50600436106100f55760003560e01c8063a6c3e6b911610097578063c2bb515f11610066578063c2bb515f14610240578063d29d44ee1461025f578063db74db411461027b578063e7d931e4146102ab576100f5565b8063a6c3e6b9146101ca578063b46f0af2146101e8578063b6f3f14d14610204578063b9e3e2db14610222576100f5565b80637284e416116100d35780637284e416146101545780638c72c54e146101725780638da5cb5b146101905780639a8e49a4146101ae576100f5565b80634a79d50c146100fa578063542a233f146101185780636929b85d14610136575b600080fd5b6101026102c9565b60405161010f9190611078565b60405180910390f35b610120610357565b60405161012d91906110db565b60405180910390f35b61013e61037d565b60405161014b9190611078565b60405180910390f35b61015c61040b565b6040516101699190611078565b60405180910390f35b61017a610499565b6040516101879190611078565b60405180910390f35b610198610527565b6040516101a591906110db565b60405180910390f35b6101c860048036038101906101c3919061126b565b610550565b005b6101d26106fd565b6040516101df9190611078565b60405180910390f35b61020260048036038101906101fd91906112c7565b61078b565b005b61020c6109f8565b6040516102199190611078565b60405180910390f35b61022a610aff565b6040516102379190611078565b60405180910390f35b610248610b8d565b604051610256929190611310565b60405180910390f35b61027960048036038101906102749190611340565b610d59565b005b61029560048036038101906102909190611340565b610e11565b6040516102a29190611388565b60405180910390f35b6102b3610e6e565b6040516102c09190611078565b60405180910390f35b600180546102d6906113d2565b80601f0160208091040260200160405190810160405280929190818152602001828054610302906113d2565b801561034f5780601f106103245761010080835404028352916020019161034f565b820191906000526020600020905b81548152906001019060200180831161033257829003601f168201915b505050505081565b600360009054906101000a900473ffffffffffffffffffffffffffffffffffffffff1681565b6006805461038a906113d2565b80601f01602080910402602001604051908101604052809291908181526020018280546103b6906113d2565b80156104035780601f106103d857610100808354040283529160200191610403565b820191906000526020600020905b8154815290600101906020018083116103e657829003601f168201915b505050505081565b60088054610418906113d2565b80601f0160208091040260200160405190810160405280929190818152602001828054610444906113d2565b80156104915780601f1061046657610100808354040283529160200191610491565b820191906000526020600020905b81548152906001019060200180831161047457829003601f168201915b505050505081565b600480546104a6906113d2565b80601f01602080910402602001604051908101604052809291908181526020018280546104d2906113d2565b801561051f5780601f106104f45761010080835404028352916020019161051f565b820191906000526020600020905b81548152906001019060200180831161050257829003601f168201915b505050505081565b60008060009054906101000a900473ffffffffffffffffffffffffffffffffffffffff16905090565b3373ffffffffffffffffffffffffffffffffffffffff1661056f610527565b73ffffffffffffffffffffffffffffffffffffffff16146105c5576040517f08c379a00000000000000000000000000000000000000000000000000000000081526004016105bc9061144f565b60405180910390fd5b600073ffffffffffffffffffffffffffffffffffffffff16600a60000160009054906101000a900473ffffffffffffffffffffffffffffffffffffffff1673ffffffffffffffffffffffffffffffffffffffff1603610659576040517f08c379a0000000000000000000000000000000000000000000000000000000008152600401610650906114bb565b60405180910390fd5b806009908051906020019061066f929190610efc565b5061067982610d59565b600a600080820160006101000a81549073ffffffffffffffffffffffffffffffffffffffff02191690556001820160006106b39190610f82565b600282016000905550507feac7352a6c43aae51b89275a053c14ef2cf07f1856943c50a5f55fb28f4a36c0826001426040516106f193929190611589565b60405180910390a15050565b6002805461070a906113d2565b80601f0160208091040260200160405190810160405280929190818152602001828054610736906113d2565b80156107835780601f1061075857610100808354040283529160200191610783565b820191906000526020600020905b81548152906001019060200180831161076657829003601f168201915b505050505081565b3373ffffffffffffffffffffffffffffffffffffffff166107aa610527565b73ffffffffffffffffffffffffffffffffffffffff1603610800576040517f08c379a00000000000000000000000000000000000000000000000000000000081526004016107f790611613565b60405180910390fd5b3373ffffffffffffffffffffffffffffffffffffffff16600a60000160009054906101000a900473ffffffffffffffffffffffffffffffffffffffff1673ffffffffffffffffffffffffffffffffffffffff1603610893576040517f08c379a000000000000000000000000000000000000000000000000000000000815260040161088a9061167f565b60405180910390fd5b600073ffffffffffffffffffffffffffffffffffffffff16600a60000160009054906101000a900473ffffffffffffffffffffffffffffffffffffffff1673ffffffffffffffffffffffffffffffffffffffff1614610927576040517f08c379a000000000000000000000000000000000000000000000000000000000815260040161091e906116eb565b60405180910390fd5b33600a60000160006101000a81548173ffffffffffffffffffffffffffffffffffffffff021916908373ffffffffffffffffffffffffffffffffffffffff16021790555080600a6001019080519060200190610984929190610efc565b5042600a600201819055507f129f67783f1fc54762392a484603d038c3007571edd583280de130581c11f1c2600a60000160009054906101000a900473ffffffffffffffffffffffffffffffffffffffff166001600a600201546040516109ed93929190611589565b60405180910390a150565b60603373ffffffffffffffffffffffffffffffffffffffff16610a19610527565b73ffffffffffffffffffffffffffffffffffffffff1614610a6f576040517f08c379a0000000000000000000000000000000000000000000000000000000008152600401610a669061144f565b60405180910390fd5b60098054610a7c906113d2565b80601f0160208091040260200160405190810160405280929190818152602001828054610aa8906113d2565b8015610af55780601f10610aca57610100808354040283529160200191610af5565b820191906000526020600020905b815481529060010190602001808311610ad857829003601f168201915b5050505050905090565b60058054610b0c906113d2565b80601f0160208091040260200160405190810160405280929190818152602001828054610b38906113d2565b8015610b855780601f10610b5a57610100808354040283529160200191610b85565b820191906000526020600020905b815481529060010190602001808311610b6857829003601f168201915b505050505081565b600060603373ffffffffffffffffffffffffffffffffffffffff16610bb0610527565b73ffffffffffffffffffffffffffffffffffffffff1614610c06576040517f08c379a0000000000000000000000000000000000000000000000000000000008152600401610bfd9061144f565b60405180910390fd5b600073ffffffffffffffffffffffffffffffffffffffff16600a60000160009054906101000a900473ffffffffffffffffffffffffffffffffffffffff1673ffffffffffffffffffffffffffffffffffffffff1603610c9a576040517f08c379a0000000000000000000000000000000000000000000000000000000008152600401610c91906114bb565b60405180910390fd5b600a60000160009054906101000a900473ffffffffffffffffffffffffffffffffffffffff16600a600101808054610cd1906113d2565b80601f0160208091040260200160405190810160405280929190818152602001828054610cfd906113d2565b8015610d4a5780601f10610d1f57610100808354040283529160200191610d4a565b820191906000526020600020905b815481529060010190602001808311610d2d57829003601f168201915b50505050509050915091509091565b3373ffffffffffffffffffffffffffffffffffffffff16610d78610527565b73ffffffffffffffffffffffffffffffffffffffff1614610dce576040517f08c379a0000000000000000000000000000000000000000000000000000000008152600401610dc59061144f565b60405180910390fd5b806000806101000a81548173ffffffffffffffffffffffffffffffffffffffff021916908373ffffffffffffffffffffffffffffffffffffffff16021790555050565b60008173ffffffffffffffffffffffffffffffffffffffff16600a60000160009054906101000a900473ffffffffffffffffffffffffffffffffffffffff1673ffffffffffffffffffffffffffffffffffffffff16149050919050565b60078054610e7b906113d2565b80601f0160208091040260200160405190810160405280929190818152602001828054610ea7906113d2565b8015610ef45780601f10610ec957610100808354040283529160200191610ef4565b820191906000526020600020905b815481529060010190602001808311610ed757829003601f168201915b505050505081565b828054610f08906113d2565b90600052602060002090601f016020900481019282610f2a5760008555610f71565b82601f10610f4357805160ff1916838001178555610f71565b82800160010185558215610f71579182015b82811115610f70578251825591602001919060010190610f55565b5b509050610f7e9190610fc2565b5090565b508054610f8e906113d2565b6000825580601f10610fa05750610fbf565b601f016020900490600052602060002090810190610fbe9190610fc2565b5b50565b5b80821115610fdb576000816000905550600101610fc3565b5090565b600081519050919050565b600082825260208201905092915050565b60005b83811015611019578082015181840152602081019050610ffe565b83811115611028576000848401525b50505050565b6000601f19601f8301169050919050565b600061104a82610fdf565b6110548185610fea565b9350611064818560208601610ffb565b61106d8161102e565b840191505092915050565b60006020820190508181036000830152611092818461103f565b905092915050565b600073ffffffffffffffffffffffffffffffffffffffff82169050919050565b60006110c58261109a565b9050919050565b6110d5816110ba565b82525050565b60006020820190506110f060008301846110cc565b92915050565b6000604051905090565b600080fd5b600080fd5b611113816110ba565b811461111e57600080fd5b50565b6000813590506111308161110a565b92915050565b600080fd5b600080fd5b7f4e487b7100000000000000000000000000000000000000000000000000000000600052604160045260246000fd5b6111788261102e565b810181811067ffffffffffffffff8211171561119757611196611140565b5b80604052505050565b60006111aa6110f6565b90506111b6828261116f565b919050565b600067ffffffffffffffff8211156111d6576111d5611140565b5b6111df8261102e565b9050602081019050919050565b82818337600083830152505050565b600061120e611209846111bb565b6111a0565b90508281526020810184848401111561122a5761122961113b565b5b6112358482856111ec565b509392505050565b600082601f83011261125257611251611136565b5b81356112628482602086016111fb565b91505092915050565b6000806040838503121561128257611281611100565b5b600061129085828601611121565b925050602083013567ffffffffffffffff8111156112b1576112b0611105565b5b6112bd8582860161123d565b9150509250929050565b6000602082840312156112dd576112dc611100565b5b600082013567ffffffffffffffff8111156112fb576112fa611105565b5b6113078482850161123d565b91505092915050565b600060408201905061132560008301856110cc565b8181036020830152611337818461103f565b90509392505050565b60006020828403121561135657611355611100565b5b600061136484828501611121565b91505092915050565b60008115159050919050565b6113828161136d565b82525050565b600060208201905061139d6000830184611379565b92915050565b7f4e487b7100000000000000000000000000000000000000000000000000000000600052602260045260246000fd5b600060028204905060018216806113ea57607f821691505b6020821081036113fd576113fc6113a3565b5b50919050565b7f746865206775657374206e6f7420616c6c6f7765642e00000000000000000000600082015250565b6000611439601683610fea565b915061144482611403565b602082019050919050565b600060208201905081810360008301526114688161142c565b9050919050565b7f7468652072657175657374206973206e6f7420617661696c61626c6500000000600082015250565b60006114a5601c83610fea565b91506114b08261146f565b602082019050919050565b600060208201905081810360008301526114d481611498565b9050919050565b60008190508160005260206000209050919050565b600081546114fd816113d2565b6115078186610fea565b94506001821660008114611522576001811461153457611567565b60ff1983168652602086019350611567565b61153d856114db565b60005b8381101561155f57815481890152600182019150602081019050611540565b808801955050505b50505092915050565b6000819050919050565b61158381611570565b82525050565b600060608201905061159e60008301866110cc565b81810360208301526115b081856114f0565b90506115bf604083018461157a565b949350505050565b7f746865206f776e6572206e6f7420616c6c6f7765640000000000000000000000600082015250565b60006115fd601583610fea565b9150611608826115c7565b602082019050919050565b6000602082019050818103600083015261162c816115f0565b9050919050565b7f796f752072657175657374656400000000000000000000000000000000000000600082015250565b6000611669600d83610fea565b915061167482611633565b602082019050919050565b600060208201905081810360008301526116988161165c565b9050919050565b7f746865207075626c69636174696f6e2072657175657374656400000000000000600082015250565b60006116d5601983610fea565b91506116e08261169f565b602082019050919050565b60006020820190508181036000830152611704816116c8565b905091905056fea264697066735822122027ac036903a9c21f47a89f79b43c7af29e1f6b79af3474c079fdcef8365c8f5064736f6c634300080e0033",
  "immutableReferences": {},
  "source": "// SPDX-License-Identifier: MIT\npragma solidity >=0.8.0 <0.9.0;\n\n// import \"./Signature.sol\";\nimport \"./Ownable.sol\";\n\ncontract Publication is Ownable {\n    string public title;\n    string public author;\n    address public author_account;\n    string public publisher;\n    string public releaseDate;\n    string public isbn;\n    string public cover;\n    string public description;\n\n    //hash yang sudah di sign dan encrypt, hanya bisa dibuka dengan kunci private owner\n    string private documentHash;\n\n    //customer struct\n    struct RequestOwner {\n        address customer;\n        string publicKey;\n        uint256 date;\n    }\n\n    RequestOwner private _requestOwner;\n\n    event Requested(address customer, string title, uint256 date);\n    event RequestAccepted(address customer, string title, uint256 date);\n\n    constructor(\n        string memory _title,\n        string memory _author,\n        address _author_account,\n        string memory _publisher,\n        string memory _releaseDate,\n        string memory _isbn,\n        string memory _cover,\n        string memory _description,\n        string memory _hashDocument,\n        address _owner\n    ) {\n        title = _title;\n        author = _author;\n        author_account = _author_account;\n        publisher = _publisher;\n        releaseDate = _releaseDate;\n        isbn = _isbn;\n        cover = _cover;\n        description = _description;\n        documentHash = _hashDocument;\n\n        _transferOwnership(_owner);\n    }\n\n    function getDocument() external view onlyOwner returns (string memory) {\n        return documentHash;\n    }\n\n    function requestOwner(string memory _customerPublicKey) external nonOwner {\n        require(_requestOwner.customer != msg.sender, \"you requested\");\n        require(\n            _requestOwner.customer == address(0x0),\n            \"the publication requested\"\n        );\n\n        _requestOwner.customer = msg.sender;\n        _requestOwner.publicKey = _customerPublicKey;\n        _requestOwner.date = block.timestamp;\n\n        //emit event\n        emit Requested(_requestOwner.customer, title, _requestOwner.date);\n    }\n\n    function getRequest()\n        external\n        view\n        onlyOwner\n        returns (address, string memory)\n    {\n        require(\n            _requestOwner.customer != address(0x0),\n            \"the request is not available\"\n        );\n        return (_requestOwner.customer, _requestOwner.publicKey);\n    }\n\n    function isMyRequest(address customer) public view returns (bool) {\n        return _requestOwner.customer == customer;\n    }\n\n    function acceptRequest(address _customer, string memory _hashDocument)\n        external\n        onlyOwner\n    {\n        require(\n            _requestOwner.customer != address(0x0),\n            \"the request is not available\"\n        );\n\n        documentHash = _hashDocument;\n        _transferOwnership(_customer);\n\n        delete _requestOwner;\n\n        emit RequestAccepted(_customer, title, block.timestamp);\n    }\n}\n",
  "sourcePath": "/Users/jee/Studies/projects/blockchain/drmchain-dapp/application/truffle/contracts/Publication.sol",
  "compiler": {
    "name": "solc",
    "version": "0.8.14+commit.80d49f37.Emscripten.clang"
  },
  "schemaVersion": "3.4.10",
  "updatedAt": "2022-12-31T07:59:47.706Z",
  "devdoc": {
    "kind": "dev",
    "methods": {},
    "version": 1
  },
  "userdoc": {
    "kind": "user",
    "methods": {},
    "version": 1
  }
}